:020000040800F2
:1000000088080020C9010008D1010008D3010008B8
:10001000D5010008D7010008D90100080000000040
:10002000000000000000000000000000DB010008EC
:10003000DD01000800000000DF0100089D0A000843
:10004000E3010008E3010008E3010008E301000800
:10005000E3010008E3010008E3010008E3010008F0
:10006000E3010008E3010008E3010008FD020008C5
:10007000E3010008E3010008E3010008E3010008D0
:10008000E3010008E301000885020008E30100081D
:10009000E3010008E3010008E30100083D04000853
:1000A000E3010008E3010008E3010008E3010008A0
:1000B000E3010008E3010008E3010008E301000890
:1000C000E3010008E3010008E3010008E301000880
:1000D00055090008C9100008E3010008D9100008FC
:1000E000C9030008E3010008E301000800F002F87A
:1000F00000F05AF80AA090E8000C82448344AAF168
:100100000107DA4501D100F04FF8AFF2090EBAE865
:100110000F0013F0010F18BFFB1A43F0010318473B
:1001200070170000901700000A444FF0000C10F800
:10013000013B13F0070408BF10F8014B1D1108BF65
:1001400010F8015B641E05D010F8016B641E01F805
:10015000016BF9D113F0080F1EBF10F8014BAD1C55
:100160000C1B09D16D1E58BF01F801CBFAD505E073
:1001700014F8016B01F8016B6D1EF9D59142D6D3CD
:10018000704700000023002400250026103A28BFF5
:1001900078C1FBD8520728BF30C148BF0B607047F9
:1001A0001FB51FBD10B510BD00F031F81146FFF7A7
:1001B000F7FF01F07DF800F04FF803B4FFF7F2FF0E
:1001C00003BC00F057F80000094880470948004781
:1001D000FEE7FEE7FEE7FEE7FEE7FEE7FEE7FEE7F7
:1001E000FEE7FEE704480549054A064B7047000054
:1001F000C50A0008ED0000088802002088080020D9
:1002000088040020880400207047704770477546B6
:1002100000F02CF8AE4605006946534620F0070072
:10022000854618B020B5FFF7DDFFBDE820404FF050
:1002300000064FF000074FF000084FF0000B21F0D0
:100240000701AC46ACE8C009ACE8C009ACE8C0099D
:10025000ACE8C0098D46704710B50446AFF3008086
:100260002046BDE81040FFF7A8BF000000487047D7
:100270002802002001491820ABBEFEE7260002003C
:100280007047000010B54FF408710B4800F023F8D8
:1002900088B1094800F01BF80849094A127821F88A
:1002A000120007480078401C054908704FF4087197
:1002B000014800F007F810BD00240140C8010020EB
:1002C0009001002000220A12D343036070470146C8
:1002D000C86C80B2704770B502460020002300242D
:1002E0000B125568CEB205EA060415681D4015B11B
:1002F0000CB1012000E0002070BD000010B502200C
:1003000000F01AF838B104480078401C024908701F
:10031000022000F003F810BD9001002000F0805191
:1003200011B10349086001E00249486070470000CC
:10033000040402400000024001460020002201F0B7
:10034000805313B1054B1A6801E0054B1A6802EAA5
:1003500001030BB1012000E00020704700040240BF
:1003600000000240704770470F48007888B90420A9
:100370000E49086080020E49086001200A49087091
:1003800000030B49091F086004200849091F086081
:1003900009E005480078012805D1000304490860F8
:1003A00002200149087070473801002014140140F0
:1003B0001408014010B5002000F0D4FE10BD10B5A7
:1003C000012000F0CFFE10BD10B51648006800F403
:1003D000805028B1FFF7C8FF4FF4805000F07EF83E
:1003E0001048006800F4005028B1FFF7E3FF4FF415
:1003F000005000F073F80B48006800F4804028B10A
:10040000FFF7DDFF4FF4804000F068F80548006812
:1004100000F4004028B100F007F84FF4004000F06D
:100420005DF810BD1404014010B5022000F09AFEE2
:1004300010BD7047704770477047000010B52548E1
:10044000006800F0200020B1FFF7F3FF202000F04B
:1004500045F82048006800F0400020B1FFF7EAFFAF
:10046000402000F03BF81B48006800F0800020B1FD
:10047000FFF7E1FF802000F031F81648006800F433
:10048000807028B1FFF7D8FF4FF4807000F026F895
:100490001048006800F4007028B100F01DF84FF417
:1004A000007000F01BF80B48006800F4806028B171
:1004B000FFF758FF4FF4806000F010F8054800681F
:1004C00000F4006028B1FFF74EFF4FF4006000F029
:1004D00005F810BD14040140704700000149086090
:1004E00070470000140401402DE9F0410246002548
:1004F0000026002000230024002791F803C00CF000
:100500000F0591F803C00CF0100CBCF1000F03D0E4
:1005100091F802C04CEA050591F800C0BCF1000F4B
:1005200031D0146800202BE04FF0010C0CFA00F3DE
:10053000B1F800C00CEA03069E4220D183004FF0C0
:100540000F0C0CFA03F7BC4305FA03FC4CEA040455
:1005500091F803C0BCF1280F06D14FF0010C0CFA42
:1005600000FCC2F814C00AE091F803C0BCF1480FC7
:1005700005D14FF0010C0CFA00FCC2F810C0401C71
:100580000828D1D31460B1F800C0BCF1FF0F34DDEE
:10059000546800202EE000F1080C4FF0010808FA22
:1005A0000CF3B1F800C00CEA03069E4221D183008F
:1005B0004FF00F0C0CFA03F7BC4305FA03FC4CEAAE
:1005C000040491F803C0BCF1280F05D100F1080C18
:1005D00008FA0CF8C2F8148091F803C0BCF1480F77
:1005E00007D100F1080C4FF0010808FA0CF8C2F826
:1005F0001080401C0828CED35460BDE8F081000074
:10060000F0B50A46002300240021002500F0004632
:10061000B6F1004F02D11D4EF16901E01B4E716829
:10062000C0F3034583B200F44016B6F5401F08D16D
:1006300021F07061154E766826F07066134F7E606B
:1006400012E000F48016B6F5801F06D1032606FAE4
:1006500005F4A14341F0706106E0460D360103FA4E
:1006600006F6B14341F0706122B1460D360103FA3E
:1006700006F6314300F00046B6F1004F02D1034EBA
:10068000F16101E0014E7160F0BD00000000014029
:100690000246002093680B400BB1012000E00020CF
:1006A00070474161704701617047000070B50446B2
:1006B0000025E2B24821184800F002FEE2B24821CB
:1006C000164800F0FDFD00F093FD064620E000BF57
:1006D00000F08EFDB042FBD000F08AFD0646012DF1
:1006E00000D116E0002000F029F9012810D17DB9D1
:1006F0000125E2B20021084800F0E2FDE2B200214B
:10070000064800F0DDFD06480068401C044908600A
:10071000DDE700BF70BD000050170008601700083B
:10072000C001002070B504460025E2B248211848F7
:1007300000F0C6FDE2B24821164800F0C1FD00F00D
:1007400057FD064620E000BF00F052FDB042FBD04E
:1007500000F04EFD0646012D00D116E0002000F00D
:10076000EDF8012810D17DB90125E2B20021084839
:1007700000F0A6FDE2B20021064800F0A1FD064807
:100780004068401E04494860DDE700BF70BD0000BE
:100790005017000860170008C001002070B504461B
:1007A0000025E2B24821184800F08AFDE2B2482153
:1007B000164800F085FD00F01BFD064620E000BF56
:1007C00000F016FDB042FBD000F012FD0646012DF0
:1007D00000D116E0002000F0B1F8012810D17DB959
:1007E0000125E2B20021084800F06AFDE2B20021D2
:1007F000064800F065FD06484068401C0449486012
:10080000DDE700BF70BD000050170008601700084A
:10081000C001002070B504460025E2B24821184806
:1008200000F04EFDE2B24821164800F049FD00F00C
:10083000DFFC064620E000BF00F0DAFCB042FBD04F
:1008400000F0D6FC0646012D00D116E0002000F095
:1008500075F8012810D17DB90125E2B200210848C0
:1008600000F02EFDE2B20021064800F029FD064806
:100870000068401E04490860DDE700BF70BD00004D
:100880005017000860170008C001002070B5002153
:1008900000230F22C47804B3154C246804F4E064E8
:1008A000C4F5E064210AC1F10403CA40447804FAA3
:1008B00003F184781440214309010E4C0678A155B8
:1008C000047804F01F050124AC4005786D11AD00DB
:1008D00005F1E025C5F8004109E0047804F01F05A2
:1008E0000124AC40044D0678761145F8264070BDD1
:1008F0000CED00E000E400E080E100E029B1064AF0
:10090000D2690243044BDA6104E0034AD2698243AC
:10091000014BDA61704700000010024029B1064A1D
:1009200092690243044B9A6104E0034A926982434C
:10093000014B9A61704700000010024070B50546F7
:10094000034850F82540A1882068FFF7A1FE70BD3C
:100950009401002010B5024800F072FD10BD0000A7
:100960008000002010B5002201F00F040123A340F5
:100970009AB2D343038110BDF0B502460020002493
:100980000023002501F00F070126BE40B4B20B1171
:1009900001269E40B3B2968806EA030516892640D2
:1009A00016B10DB1012000E00020F0BD014688899C
:1009B000704710B500F002F810BD00000CB5002023
:1009C000019000903348006840F48030314908605D
:1009D00000BF3048006800F4003000900198401CCF
:1009E0000190009818B90198B0F5A06FF1D129488D
:1009F000006800F4003010B10120009001E00020F8
:100A000000900098012843D12348006840F010006E
:100A1000214908600846006820F003000860084685
:100A2000006840F0020008601A48406819494860B0
:100A30000846406848600846406840F48060486066
:100A40000846406820F47C1048600846406840F43E
:100A5000E81048600846006840F08070086000BFF9
:100A60000C48006800F000700028F9D00948406880
:100A700020F00300074948600846406840F0020043
:100A8000486000BF0348406800F00C000828F9D116
:100A90000CBD000000100240002002400648006823
:100AA000401C0549086005480068401E034908606D
:100AB000002003490870704714000020180000202F
:100AC0001C00002010B51348006840F001001149D7
:100AD000086008464068104908400E4948600846CA
:100AE00000680E4908400B4908600846006820F479
:100AF000802008600846406820F4FE0048604FF4FB
:100B00001F008860FFF755FF4FF000600449086040
:100B100010BD0000001002400000FFF8FFFFF6FECD
:100B200008ED00E021B1028842F08002028004E07A
:100B300002884FF67F731A400280704721B1028805
:100B400042F00102028004E002884FF6FE731A4070
:100B50000280704731B1B0F8442042F40042A0F85E
:100B6000442005E0B0F84420C2F30E02A0F844206F
:100B70007047000070B5002400220023058C4FF65A
:100B8000FE7635400584028C8388048B4FF68F7582
:100B90002C40B51E2C400D882C43751E2A400D8913
:100BA0002A434D882A43144DA8420BD0134DA84226
:100BB00008D0134DA84205D0124DA84202D0124DC4
:100BC000A84213D14FF6F7752A404D892A434FF6B4
:100BD000FB752A408D882A434FF6FF652B404FF660
:100BE000FF552B408D892B43CD892B438380048374
:100BF000CD888586028470BD002C01400034014000
:100C00000040014000440140004801400A460021E4
:100C1000018B4FF6F77319401143018370470000B1
:100C200070B5002400220023058C4FF6EF76354086
:100C30000584028C8388048B48F6FF752C404FF6A0
:100C4000FF452C400D884FF6FF7606EA05252C431C
:100C50004FF6DF752A400D8906EA05152A434D88AF
:100C600006EA05152A43154DA84202D0144DA842A4
:100C70001DD14FF67F752A404D894FF6FF7606EA63
:100C800005152A434FF6BF752A408D8806EA0515DB
:100C90002A434FF6FF352B404FF2FF752B408D89CD
:100CA00006EA85052B43CD8906EA85052B4383801B
:100CB0000483CD880587028470BD0000002C0140AC
:100CC000003401400A460021018B4FF2FF731940A6
:100CD0004FF6FF7303EA02231943018370470000B4
:100CE00070B5002400220023058C4FF6FF663540C6
:100CF0000584028C8388848B4FF68F752C404FF6C9
:100D0000FC752C400D882C434FF6FF552A400D8969
:100D10004FF6FF7606EA05252A434D8806EA0525A3
:100D20002A43154DA84202D0144DA8421DD14FF2BE
:100D3000FF752A404D894FF6FF7606EA05252A43BE
:100D40004FF6FF352A408D8806EA05252A434EF6E0
:100D5000FF752B404DF6FF752B408D8906EA051572
:100D60002B43CD8906EA05152B4383808483CD88E8
:100D70008587028470BD0000002C014000340140D2
:100D80000A460021818B4FF6F77319401143818386
:100D90007047000070B5002200230024058C4EF639
:100DA000FF7635400584038C8488828B48F6FF7576
:100DB0002A404FF6FF452A400D884FF6FF7606EA97
:100DC00005252A434DF6FF752B400D8906EA0535AA
:100DD0002B434D8806EA05352B430B4DA84202D024
:100DE0000A4DA84208D14BF6FF752C408D894FF66D
:100DF000FF7606EA85152C4384808283CD88A0F88F
:100E00004050038470BD0000002C014000340140BC
:100E10000A460021818B4FF2FF7319404FF6FF7392
:100E200003EA0223194381837047818470470000DD
:100E3000002202881D4B98420ED01D4B98420BD0C9
:100E4000B0F1804F08D01B4B984205D01A4B984206
:100E500002D01A4B984204D14FF68F731A404B8838
:100E60001A43174B984207D0164B984204D04FF6BE
:100E7000FF431A40CB881A4302808B8883850B88F6
:100E800003850A4B98420BD0094B984208D00E4B71
:100E9000984205D00D4B984202D00D4B984201D19B
:100EA0000B7A03860123838270470000002C0140E7
:100EB000003401400004004000080040000C0040E5
:100EC0000010004000140040004001400044014078
:100ED0000048014008B5052061490860486000BF2E
:100EE00000BF00274FF048084FF00009B42501204B
:100EF0003B46AA00014600905A4800F0EFF9012055
:100F00003B46AA0001460090574800F0E7F900F080
:100F1000C1F900F06DF98346A0E000BF00F068F968
:100F20005845FBD000F064F98346B9F1000F13D1A6
:100F30000020FFF703FD01280ED1EAB21FFA88F165
:100F4000484800F0BDF9EAB21FFA88F1464800F0BF
:100F5000B7F94FF0010900BFB9F1010F7ED10126A9
:100F6000002474E0414830F81400B42823D003DC96
:100F700050B15A2868D135E0B0F5877F49D0A0F24A
:100F80000F10002860D15CE0384931F81410A1EB53
:100F9000050ABAF1000F01DB514601E0CAF1000178
:100FA000B42902D171420E4600E031460846FFF7EF
:100FB0007DFB002549E02D4931F81410A1EB050A0D
:100FC000BAF1000F01DB514601E0CAF10001B4297A
:100FD00002D171420E4600E031460846FFF71AFC86
:100FE000B42532E0214931F81410A1EB050ABAF119
:100FF000000F01DB514601E0CAF10001B42902D122
:1010000071420E4600E031460846FFF78BFB5A2539
:101010001BE0164931F81410A1EB050ABAF1000FD4
:1010200001DB514601E0CAF10001B42902D171424D
:101030000E4600E031460846FFF7B0FB4FF48775D7
:1010400003E000F017F800E000BF00BF641C084890
:101050000068844286DB4FF0020900BF5DE70000B4
:10106000C001002050170008601700089C010020F4
:10107000BC01002070B5002401224821104800F076
:101080001FF9FF2248210F4800F01AF900F0B0F8CC
:10109000054611E000BF00F0ABF8A842FBD000F01D
:1010A000A7F80546012C00D107E00020FFF746FC19
:1010B000012801D104B90124ECE700BF70BD000094
:1010C000501700086017000810B5024800F0CAFA6F
:1010D00010BD00005000002010B5024800F0C2FA18
:1010E00010BD00006800002010B50022002340F66B
:1010F0006A14A14200D100BF0A1201249440A3B295
:10110000DC43048010BD70B5024600240023002596
:10111000002040F66A16B14200D100BFC1F342156B
:1011200001F01F03012606FA03F3012D02D196896F
:10113000334006E0022D02D1168A334001E0968A40
:1011400033400C12012606FA04F41688344013B119
:101150000CB1012000E0002070BD01468888C0F37A
:101160000800704770B50446204600F02FF8054689
:10117000124800EB0410806850B14DB10F4800EBED
:101180000410007920B90D4901EB041188688047EB
:101190000A4800EB0410C06850B14DB9074800EB95
:1011A0000410007920B1054901EB0411C86880479B
:1011B000024800EB0410057170BD00002000002003
:1011C00010B501210846FFF7A9FB10BD70B5054613
:1011D000064800EB05100468A1882068FFF758FA5C
:1011E00008B9012070BD0020FCE7000020000020AD
:1011F00001480068704700001400002038B504461C
:101200000D4603208DF802008DF80350A088ADF83C
:10121000000069462068FFF767F938BD38B5044615
:101220000D4603208DF802008DF80350A088ADF81C
:10123000000069462068FFF757F938BD38B5044605
:101240000D4603208DF802008DF80350A088ADF8FC
:10125000000069462068FFF747F938BD70B50446BD
:101260000D4625B1A1882068FFF71DFA03E0A1888B
:101270002068FFF716FA70BD10B510210348FFF77C
:10128000CDFF10210248FFF7C9FF10BDE01700088D
:10129000E817000810B548210348FFF7CFFF4821A1
:1012A0000248FFF7CBFF10BD88180008801800081F
:1012B00000F0AEF800F0E8F8FFF7DEFFFFF70AFEF7
:1012C00070B504460E4615462946E068FFF7C6FF8E
:1012D0003146204600F024F870BD00002DE9F843A7
:1012E00004460D4616461F46DDF8208033462A4642
:1012F00021460948009700F016F81021E068FFF732
:101300007DFF4146E068FFF7A9FF01210348FFF791
:1013100077F9BDE8F883000000340140000C1A00A2
:101320008268118070472DE9F04188B007460C466D
:1013300015461E46DDF83880384600F0E9F80020F2
:10134000ADF81600ADF81A008DF81C00ADF8145079
:10135000ADF8186005A93846FFF76AFD0020ADF822
:101360000C00ADF80E006020ADF804000020ADF8D0
:101370001000ADF812000120ADF806000420ADF811
:101380000800ADF80A80207830B101280DD002287D
:1013900014D0032824D11AE001A93846FFF7EAFB4C
:1013A00001213846FFF732FC1AE001A93846FFF761
:1013B00037FC01213846FFF785FC11E001A93846CA
:1013C000FFF78EFC01213846FFF7DAFC08E001A99F
:1013D0003846FFF7DFFC01213846FFF719FD00BF53
:1013E00000BF18216068FFF709FF01213846FFF7A9
:1013F00099FB01213846FFF7A1FB00213846FFF792
:1014000014FD01213846FFF7A5FB08B0BDE8F081C7
:1014100010B5FFF7D5FE01210420FFF77FFA012167
:101420000820FFF77BFA01211020FFF777FA01214E
:101430002020FFF773FA01214020FFF76FFA10BD5B
:1014400070B5044660212068FFF796FA68B12068FD
:10145000FFF7ACFA0546606910B1E8B261698847E8
:1014600060212068FFF77EFA0DE071212068FFF708
:1014700083FA40B1A06910B1A16920688847712141
:101480002068FFF76FFA70BD38B500208DF80100B5
:101490008DF8020001208DF80300FF208DF8000078
:1014A0006846FFF7F3F9164800684FF47A72B0FB0C
:1014B000F2F1B1F1807F00D31DE021F07F40401EAA
:1014C0004FF0E022506150170F22002807DA13076F
:1014D0001D0E0C4B00F00F04241F1D5503E01307D5
:1014E0001C0E094B1C5400BF00204FF0E0229061FD
:1014F0000720106100BF00200449086038BD0000CB
:101500000000002018ED00E000E400E014000020DE
:1015100010B504464348844204D10121C014FFF7AA
:10152000FDF97EE04048844204D101214014FFF7D8
:10153000F5F976E03D48844204D101210804FFF723
:10154000EDF96EE03A48844204D101214804FFF7E6
:10155000E5F966E03748844204D101218804FFF7A9
:10156000DDF95EE03448844204D10121C804FFF76C
:10157000D5F956E03148844204D101210805FFF72E
:10158000CDF94EE02E48844204D101214805FFF7F1
:10159000C5F946E0B4F1804F04D101210846FFF7B8
:1015A000ADF93EE02748844204D101210220FFF733
:1015B000A5F936E02448844204D101210420FFF734
:1015C0009DF92EE02148844204D101210820FFF733
:1015D00095F926E01E48844204D101211020FFF72E
:1015E0008DF91EE01B48844204D101212020FFF721
:1015F00085F916E01848844204D101214020FFF704
:101600007DF90EE01548844204D101218020FFF7C6
:1016100075F906E01248844203D101218015FFF7D5
:101620006DF910BD002C0140003401400040014024
:101630000044014000480140004C0140005001407E
:10164000005401400004004000080040000C00402D
:10165000001000400014004000180040001C004032
:101660000020004070B5044640F225512068FFF785
:101670004AFD70B12068FFF770FD0546E06810B1C3
:10168000E8B2E168884740F225512068FFF72CFD59
:101690000EE040F227712068FFF735FD40B1206968
:1016A00008B12069804740F227712068FFF71CFDD0
:1016B00070BD00000008014001000000000801406A
:1016C0000200000000080140040000000008014082
:1016D0000800000000080140400000000008014030
:1016E00080000000000801400001000000080140E7
:1016F00000800000000C014000040000000C0140CC
:101700000008000000100140080000000010014027
:101710004000000000100140800000000010014067
:101720000001000000100140000200000000000065
:10173000EC1600083400004003000000FC1600080E
:101740004000004002000000F41600083C00004089
:10175000000000000C170008343401400417000892
:10176000010000001417000838340140E416000896
:10177000020000001C1700083C3401402417000838
:1017800000000000B4160008340C0040000C0040BB
:1017900001000000BC160008380C0040000C00409E
:1017A00002000000C41600083C0C0040000C004081
:1017B00003000000CC160008400C0040000C004064
:1017C00000000000D416000834040040000400406B
:1017D00001000000DC16000838040040000400404E
:1017E0000010014002000000001001400400000051
:1017F00000100140002000000010014000400000E7
:1018000000100140008000000008014000020000BC
:101810000008014000040000001001400004000026
:101820000010014000080000000C014000200000F2
:10183000000C014000400000000C0140008000004E
:101840000008014001000000000801400200000003
:1018500000080140040000000008014008000000EA
:1018600000080140100000000008014020000000B6
:101870000008014040000000000801408000000016
:101880000008014040000000000801408000000006
:10189000B018000800000020C8010000280100085E
:1018A000D0190008C8010020C0060000840100080B
:1018B0001184A24A04C0090102030406070809139F
:1018C000F017C208DAF81011DA18101D38014008B4
:1018D00014EA101812481B4018149A201812101AF3
:1018E0001430111B4028141A3004DA383412111045
:1018F0001E124617201814192F1A1E320429142CF0
:101900001E2A04427F4D0963E064FF65206612676A
:10191000101413F00D810FC5142122FF230124346C
:10192000253C26A12B101E6BAA13FF695D900A911E
:101930000192019301945F95539611971A983D99DE
:101940005A9A1E9B10329C25A765A8659E81A60603
:101950007E0C7F16802A814E8261836F847B858610
:10196000868E879788A489AF8AC58BD78CE88D200F
:10197000A980AA80ACFF3316229923034A100E498E
:101980001347084B144C1746050CD00E924D1A40C5
:10199000B42A0FDF290822012A500822022A5808F7
:1019A00022032A600822042A680822052A700822D5
:1019B000062A780872077A10F1511A881C1A8004D6
:1019C00012B4490221140F015A69022966C937412C
:04000005080000ED02
:00000001FF
