:020000040800F2
:1000000060080020C9010008D1010008D3010008E0
:10001000D5010008D7010008D90100080000000040
:10002000000000000000000000000000DB010008EC
:10003000DD01000800000000DF010008D50600080F
:10004000E3010008E3010008E3010008E301000800
:10005000E3010008E3010008E3010008E3010008F0
:10006000E3010008E3010008E3010008FD020008C5
:10007000E3010008E3010008E3010008E3010008D0
:10008000E3010008E301000885020008E30100081D
:10009000E3010008E3010008E30100083D04000853
:1000A000E3010008E3010008E3010008E3010008A0
:1000B000E3010008E3010008E3010008E301000890
:1000C000E3010008E3010008E3010008E301000880
:1000D0008D0500085D070008E30100086D070008B2
:1000E000C9030008E3010008E301000800F002F87A
:1000F00000F05AF80AA090E8000C82448344AAF168
:100100000107DA4501D100F04FF8AFF2090EBAE865
:100110000F0013F0010F18BFFB1A43F0010318473B
:100120008C090000AC0900000A444FF0000C10F8E4
:10013000013B13F0070408BF10F8014B1D1108BF65
:1001400010F8015B641E05D010F8016B641E01F805
:10015000016BF9D113F0080F1EBF10F8014BAD1C55
:100160000C1B09D16D1E58BF01F801CBFAD505E073
:1001700014F8016B01F8016B6D1EF9D59142D6D3CD
:10018000704700000023002400250026103A28BFF5
:1001900078C1FBD8520728BF30C148BF0B607047F9
:1001A0001FB51FBD10B510BD00F031F81146FFF7A7
:1001B000F7FF00F06DFB00F04FF803B4FFF7F2FF1C
:1001C00003BC00F057F80000094880470948004781
:1001D000FEE7FEE7FEE7FEE7FEE7FEE7FEE7FEE7F7
:1001E000FEE7FEE704480549054A064B7047000054
:1001F000FD060008ED0000086002002060080020F5
:100200006004002060040020704770477047754606
:1002100000F02CF8AE4605006946534620F0070072
:10022000854618B020B5FFF7DDFFBDE820404FF050
:1002300000064FF000074FF000084FF0000B21F0D0
:100240000701AC46ACE8C009ACE8C009ACE8C0099D
:10025000ACE8C0098D46704710B50446AFF3008086
:100260002046BDE81040FFF7A8BF000000487047D7
:10027000FC01002001491820ABBEFEE72600020069
:100280007047000010B54FF408710B4800F023F8D8
:1002900088B1094800F01BF80849094A127821F88A
:1002A000120007480078401C054908704FF4087197
:1002B000014800F007F810BD002401409C01002017
:1002C0009001002000220A12D343036070470146C8
:1002D000C86C80B2704770B502460020002300242D
:1002E0000B125568CEB205EA060415681D4015B11B
:1002F0000CB1012000E0002070BD000010B502200C
:1003000000F01AF838B104480078401C024908701F
:10031000022000F003F810BD9001002000F0805191
:1003200011B10349086001E00249486070470000CC
:10033000040402400000024001460020002201F0B7
:10034000805313B1054B1A6801E0054B1A6802EAA5
:1003500001030BB1012000E00020704700040240BF
:1003600000000240704770470F48007888B90420A9
:100370000E49086080020E49086001200A49087091
:1003800000030B49091F086004200849091F086081
:1003900009E005480078012805D1000304490860F8
:1003A00002200149087070473801002014140140F0
:1003B0001408014010B5002000F01EFA10BD10B561
:1003C000012000F019FA10BD10B51648006800F4BD
:1003D000805028B1FFF7C8FF4FF4805000F07EF83E
:1003E0001048006800F4005028B1FFF7E3FF4FF415
:1003F000005000F073F80B48006800F4804028B10A
:10040000FFF7DDFF4FF4804000F068F80548006812
:1004100000F4004028B100F007F84FF4004000F06D
:100420005DF810BD1404014010B5022000F0E4F99D
:1004300010BD7047704770477047000010B52548E1
:10044000006800F0200020B1FFF7F3FF202000F04B
:1004500045F82048006800F0400020B1FFF7EAFFAF
:10046000402000F03BF81B48006800F0800020B1FD
:10047000FFF7E1FF802000F031F81648006800F433
:10048000807028B1FFF7D8FF4FF4807000F026F895
:100490001048006800F4007028B100F01DF84FF417
:1004A000007000F01BF80B48006800F4806028B171
:1004B000FFF758FF4FF4806000F010F8054800681F
:1004C00000F4006028B1FFF74EFF4FF4006000F029
:1004D00005F810BD14040140704700000149086090
:1004E00070470000140401400246002093680B404E
:1004F0000BB1012000E000207047000070B5002122
:1005000000230F22C47804B3154C246804F4E0647B
:10051000C4F5E064210AC1F10403CA40447804FA36
:1005200003F184781440214309010E4C0678A1554B
:10053000047804F01F050124AC4005786D11AD006E
:1005400005F1E025C5F8004109E0047804F01F0535
:100550000124AC40044D0678761145F8264070BD64
:100560000CED00E000E400E080E100E029B1064A83
:1005700092690243044B9A6104E0034A9269824300
:10058000014B9A61704700000010024010B502480C
:1005900000F0B6F910BD00008000002010B5002268
:1005A00001F00F040123A3409AB2D343038110BD8D
:1005B000F0B50246002000240023002501F00F07BB
:1005C0000126BE40B4B20B1101269E40B3B29688FC
:1005D00006EA03051689264016B10DB1012000E098
:1005E0000020F0BD01468889704710B500F002F880
:1005F00010BD00000CB50020019000903348006849
:1006000040F480303149086000BF3048006800F491
:10061000003000900198401C0190009818B9019892
:10062000B0F5A06FF1D12948006800F4003010B196
:100630000120009001E0002000900098012843D1A3
:100640002348006840F0100021490860084600680F
:1006500020F0030008600846006840F002000860CF
:100660001A4840681949486008464068486008468A
:10067000406840F4806048600846406820F47C1080
:1006800048600846406840F4E81048600846006842
:1006900040F08070086000BF0C48006800F00070F7
:1006A0000028F9D00948406820F003000749486055
:1006B0000846406840F00200486000BF03484068B8
:1006C00000F00C000828F9D10CBD00000010024019
:1006D0000020024006480068401C054908600548A3
:1006E0000068401E034908600020034908707047F5
:1006F00014000020180000201C00002010B5134832
:10070000006840F00100114908600846406810493F
:1007100008400E494860084600680E4908400B49E9
:1007200008600846006820F4802008600846406899
:1007300020F4FE0048604FF41F008860FFF755FF6B
:100740004FF000600449086010BD00000010024036
:100750000000FFF8FFFFF6FE08ED00E010B50248CC
:1007600000F034F910BD00005000002010B5024820
:1007700000F02CF910BD00006800002010B5002228
:10078000002340F66A14A14200D100BF0A120124DE
:100790009440A3B2DC43048010BD70B5024600242F
:1007A00000230025002040F66A16B14200D100BFA8
:1007B000C1F3421501F01F03012606FA03F3012DD0
:1007C00002D19689334006E0022D02D1168A3340C9
:1007D00001E0968A33400C12012606FA04F41688CA
:1007E000344013B10CB1012000E0002070BD01467F
:1007F0008888C0F30800704770B50446204600F0B2
:100800002FF80546124800EB0410806850B14DB136
:100810000F4800EB0410007920B90D4901EB0411D9
:10082000886880470A4800EB0410C06850B14DB991
:10083000074800EB0410007920B1054901EB0411D1
:10084000C8688047024800EB0410057170BD0000C5
:100850002000002010B501210846FFF787FE10BDDB
:1008600070B50546064800EB05100468A1882068AD
:10087000FFF73AFE08B9012070BD0020FCE7000038
:10088000200000200148006870470000140000208C
:1008900000F01EF800F058F815E000BFFFF7F2FF77
:1008A000094909688842F9D0FFF7ECFF064908605A
:1008B0000846006805490968401A192803D3024808
:1008C000006802490860E8E79401002098010020D0
:1008D00010B5FFF7BFFF01210420FFF747FE0121FC
:1008E0000820FFF743FE01211020FFF73FFE012102
:1008F0002020FFF73BFE01214020FFF737FE10BD0F
:1009000070B5044660212068FFF752FE68B1206888
:10091000FFF768FE0546606910B1E8B26169884773
:1009200060212068FFF73AFE0DE071212068FFF793
:100930003FFE40B1A06910B1A169206888477121CC
:100940002068FFF72BFE70BD38B500208DF8010040
:100950008DF8020001208DF80300FF208DF80000C3
:100960006846FFF7CBFD154800684FF47A72B0FB7C
:10097000F2F1481EB0F1807F00D31BE0481E4FF01B
:10098000E022506150170F22002804DB13071C0ED1
:100990000B4B1C5406E013071D0E0A4B00F00F040E
:1009A000241F1D5500BF00204FF0E022906107205A
:1009B000106100BF00200449086038BD000000201D
:1009C00000E400E018ED00E01400002070B50446DB
:1009D00040F225512068FFF7E0FE70B12068FFF774
:1009E00006FF0546E06810B1E8B2E168884740F2CA
:1009F00025512068FFF7C2FE0EE040F22771206803
:100A0000FFF7CBFE40B1206908B12069804740F272
:100A100027712068FFF7B2FE70BD00000010014092
:100A200000200000001001400040000000100140C4
:100A300000800000000801400002000000080140A2
:100A400000040000001001400004000000100140FC
:100A500000080000000C014000200000000C0140D4
:100A600000400000000C0140008000000008014030
:100A700001000000000801400200000000080140E1
:100A800004000000000801400800000000080140C8
:100A90001000000000080140200000000008014094
:100AA000400000000008014080000000CC0A00085F
:100AB000000000209C01000028010008D80B00085D
:100AC0009C010020C4060000840100081184A24A91
:100AD00004C0090102030406070809131C0AC2081E
:100AE000DA2410DA2C10111D3801403414EA3C18B5
:100AF00012481B4044149A4C1812101A1430111B3F
:100B00004054141A5C04DA64341211101E12461791
:100B1000201814192F1A1E320429142C1E2A0442DC
:100B20007F4D0963E064FF6520661267101413F0BF
:100B30000D810FC5142122FF23012434253C26A159
:100B40002B101E6BAA13FF695D900A91019201930D
:100B500001945F95539611971A983D995A9A1E9B46
:100B600010329C25A765A8659E81A6067E0C7F167F
:100B7000802A814E8261836F847B8586868E8797EB
:100B800088A489AF8AC58BD78CE88D20A980AA80DC
:100B9000ACFF3316229923034A100E491347084B22
:100BA000144C1746050CD00E924D1A6CB4320F2A15
:100BB000740822012A7C0822022A840822032A8C33
:100BC0000822042A940822052A9C0822062AA4083E
:080BD00072077A10F1D1000058
:04000005080000ED02
:00000001FF
