:020000040800F2
:1000000048160020750200087D0200087F020008E3
:100010008102000883020008850200080000000039
:10002000000000000000000000000000870200083F
:1000300089020008000000008B0200083D2700082C
:100040008F0200088F0200088F0200088F0200084C
:100050008F0200088F0200088F0200088F0200083C
:100060008F0200088F0200088F020008C11D0008DF
:100070008F0200088F0200088F0200088F0200081C
:100080008F0200088F020008391B00088F02000849
:100090008F0200088F0200088F020008A1200008CC
:1000A0008F0200088F0200088F0200088F020008EC
:1000B000C52700088F0200088F0200088F02000881
:1000C0008F0200088F0200088F0200088F020008CC
:1000D0008D240008D52A00088F020008E52A0008B0
:1000E0002D2000088F0200088F02000800F002F89F
:1000F00000F0B0F80AA090E8000C82448344AAF112
:100100000107DA4501D100F0A5F8AFF2090EBAE80F
:100110000F0013F0010F18BFFB1A43F0010318473B
:10012000D4460000F44600000A444FF0000C10F8DA
:10013000013B13F0070408BF10F8014B1D1108BF65
:1001400010F8015B641E05D010F8016B641E01F805
:10015000016BF9D113F0080F1EBF10F8014BAD1C55
:100160000C1B09D16D1E58BF01F801CBFAD505E073
:1001700014F8016B01F8016B6D1EF9D59142D6D3CD
:10018000704700000023002400250026103A28BFF5
:1001900078C1FBD8520728BF30C148BF0B607047F9
:1001A0006E2900F03B81702900F07D82662904F001
:1001B000FA81652904F0F781672904F0F481612947
:1001C00004F0F38103681B0A28BF41F0800169290C
:1001D00000F0E880642900F0E580752900F0E280F5
:1001E0006F2900F00A82782900F04982E92900F09D
:1001F000A581E42900F0A281F52900F09F81EF2973
:1002000000F00782F82900F048820368DB0928BF64
:1002100041F08001632900F04B87732900F050877B
:10022000E32900F05B87F32900F060870020704726
:100230001FB500F0ADFF04000020002103F0A8FD71
:10024000401C60600020002103F08CFDE0601FBDB9
:1002500010B510BD00F06EFF1146FFF7E9FF02F088
:10026000F1FE01F04BF803B4FFF7F2FF03BC01F01D
:1002700093F800000948804709480047FEE7FEE779
:10028000FEE7FEE7FEE7FEE7FEE7FEE7FEE7FEE746
:1002900004480549054A064B7047000065270008D9
:1002A000ED000008481000204816002048120020E9
:1002B000481200201CB50C46064B7B446946009052
:1002C000204600F0C4F804460020694600F0D2F849
:1002D00020461CBDB701000070477047704770B5DD
:1002E000044685690068C10601D5302600E0202655
:1002F000C00707D070BDD4E9012130469047206A7D
:10030000401C20626D1EF6D570BD70B5044685692F
:100310000078C00707D170BDD4E9012120209047A3
:10032000206A401C20626D1EF6D570BD09684A0522
:1003300001D540B27047C905FCD500B270470968C5
:100340004A0501D5C0B27047C905FCD580B27047D7
:1003500070B50C460546012A05D02878800600D5E0
:10036000EA69002302E0012305E05B1C934202D20C
:10037000E05C0028F9D1A869E618C01AA861286ACB
:10038000184428622846FFF7AAFF04E0D5E90121B6
:1003900014F8010B9047B442F8D32846FFF7B5FF95
:1003A00070BD00002DE9F041064600241068752953
:1003B000314616A510D0FFF7B9FF002802DA4042F7
:1003C00013A507E031688A0701D512A502E04907A5
:1003D00004D511A5012401E0FFF7B1FF00210A2295
:1003E00006F1240709E0B0FBF2FCB0FBF2F302FBDC
:1003F0001C00303078541846491C0028F3D123469D
:100400002A463046BDE8F04100F061BA0000000025
:100410002D0000002B000000200000001168026881
:10042000006A530501D508700AE0D30501D508809C
:1004300006E0130603D5C217C1E9000200E0086018
:100440000120704701694A1C02610878704700B5B5
:100450008FB0CDE901310021059105497944CDE9FD
:1004600003101146684600F029F90FB000BD0000E6
:10047000E5FFFFFF0A6802F8010B0A607047000001
:100480002DE9FF5F15468A460446DFF8AC80F84444
:100490000027D8E900103E46CDE9001010E03AF8F8
:1004A00016106A4602A800F025FE411C07D02178EC
:1004B000890603D5E269391891420DD80744761CA4
:1004C0002078800602D5E069B84205DDAE42E6DB61
:1004D0003AF816000028E2D1A069C01BA0612046AE
:1004E000FFF7FDFED8E90010CDE90010002017E06D
:1004F0003AF818106A4602A800F0FCFDB0F1FF3F80
:1005000081460BD000250DF1080B05E0D4E901214F
:100510001BF8050090476D1C4D45F7D308F101000D
:10052000B0428046E4DB206A384420622046FFF770
:10053000ECFEBDE8FF9F0000664200002DE9F0419F
:100540008046D21D22F007020025D2E90002F529DB
:1005500015A614D0011E72F1000106DA0023D0EBBB
:10056000030063EB020211A608E0D8F800108B0725
:1005700001D50FA602E0490701D50EA601251146B7
:10058000002408F1240704E000F05CF930323A5509
:10059000641C50EA0102F7D12B4632462146404600
:1005A000BDE8F04100F093B9000000002D0000000C
:1005B0002B0000002000000030B4002100F12404D2
:1005C00008E002F00705D208303542EA4372DB0842
:1005D0006554491C52EA0305F3D10468002310A2B4
:1005E000250707D5A40600D421B1C46901230DA2B3
:1005F000641EC46130BC00F06AB910B504462146DF
:100600001068FFF79CFE02462046BDE8104000231C
:10061000D2E7D21D22F00701D1E90023CCE7000088
:100620000000000030000000F0B40D46018809050C
:1006300002D5214C7C4402E01F4C7C440E34002146
:1006400000F1240608E002F00F071209E75D42EA14
:1006500003721B097754491C52EA0307F3D102784D
:100660000023120704D5702D06D009B102231134DE
:100670002246F0BC00F02BB901231034F8E770B526
:1006800004460D4621461068FFF759FE02462946EA
:100690002046BDE870400023C6E7D21D22F00703C4
:1006A000D3E90023C0E70368126843F02003036026
:1006B0000823C3610023B7E7C84000002DE9F05FBD
:1006C000894604464FF0000ADFF874B1FB44C0F8D5
:1006D00020A02046E1688847002874D0252806D04D
:1006E000D4E901219047206A401C2062F1E70026EE
:1006F0005F462046E16888472028054607DB312D04
:1007000005D2781910F8200C08B10643F1E7B007BC
:1007100001D526F00406C4F81CA00027C4F818A0D0
:100720002A2D09D0284602F065FA38B304EB870871
:10073000303DC8F8185019E059F8041B204604EB66
:1007400087029161E1688847012F054618D1E06969
:10075000002820DA26F020061DE0D8F8180000EB6B
:10076000800005EB40003038C8F818002046E168EA
:100770008847054602F03EFA0028EED1012F0AD044
:100780002E2D08D12046E16888477F1C0546022FA0
:1007900046F02006C4DBA069002803DA404246F098
:1007A0000106A061F00701D026F010066C2D0BD0D9
:1007B000682D09D04C2D39D06A2D35D0742D35D007
:1007C0007A2D33D016E038E0E1682F46204688477E
:1007D000B842054609D16C2F26D04FF48060E168FD
:1007E000064320468847054604E06C2F1AD04FF494
:1007F000807006430DB3A5F14100192802D82035B9
:1008000046F400664A462946204626604E46FFF7D3
:10081000C7FC80B101280BD0F61D26F0070000F1BF
:10082000080956E74020E4E78020D8E70020D6E713
:1008300006F104094DE7284652E7206ABDE8F09F1B
:100840005840000030B5B0F10A024FEA900E71F145
:1008500000034EEA817EB0EB0E0061EB91014FEA9E
:10086000101E4EEA017E10EB0E0041EB11114FEA13
:10087000102E4EEA016E10EB0E0041EB11214FEAF3
:10088000104E4EEA014E10EB0E0041EB11414018A4
:1008900041F100014FEAD00040EA41704FEAD10136
:1008A00010EB80054FEA810444EA907444EB0104A4
:1008B0006D1944EB0404521BA3414FF0000348BFE1
:1008C0000A3200D530BD401C41F1000130BD2DE998
:1008D000F0470D4699469246044600F12408016807
:1008E000880604D5E06921F01001216000E00120B4
:1008F000A84201DD471B00E00027A1697A1902EB3D
:100900000900081AA0612078C00602D42046FFF72B
:10091000E6FC002608E0D4E901211AF80600904719
:10092000206A401C761C20624E45F4DB2078C0060D
:100930000AD52046FFF7D3FC06E0D4E90121302098
:100940009047206A401C2062381EA7F10107F4DCA2
:1009500007E0D4E9012118F805009047206A401CFF
:100960002062281EA5F10105F3DC2046FFF7CDFC2F
:100970002078000602D50220BDE8F0870120FBE7C1
:1009800070472DE9FF4F0C461E464FF0FF378BB0E6
:10099000D2E90001DDF860800A908A46C1F30A5569
:1009A00005B93D46002108464FF00000BAF1000F9E
:1009B00000F4400005DA00EB80004FF4400101EA4A
:1009C00050004FEA9059B9F1010F00DDB9460A987D
:1009D00050EA4A000ED044F61050A5F2FF354543C8
:1009E0002F14B8F1000F1ED07542291E1EDDC9F16B
:1009F00000021CE0B8F1010F4FF0000001D03021DF
:100A000003E0F24305E02154401CB042FBDB3046DA
:100A10000022002121540B99C1F80880C1E900206F
:100A20000FB0BDE8F08FBD1B6D1CDEE74A4600DA53
:100A3000694206A800F0F0FB06AB93E8070003ABA1
:100A400083E8070050460A9900F0ADFC8DE80700E6
:100A5000A0F500501F3800900398002D0ADD42F2E7
:100A60001F014A460844002303A90390684600F08A
:100A700016FF09E0A0F500504A461F38002303A9DD
:100A80000390684600F020FF8DE807000004000C8A
:100A900003D04FF0FF30410800E01046B8F1000FDE
:100AA00003D00022009215461EE0751E05D4FFF704
:100AB000C9FE303262556D1EF9D5B3460122084396
:100AC00002D000227F1C04E02078302801D10022CF
:100AD0007F1E002A099784D01DE0112D07DAFFF749
:100AE000B1FE303262556D1C50EA0102F5D1084367
:100AF00002D00098C8B10EE00021681E05E0235C1A
:100B0000625C63542254401E491C8142F7DBAB46B1
:100B1000A81B401E0990002004F80B000B98099AAE
:100B2000C0F80880C0E9002B7AE711264FF00008D2
:100B300057E72DE9F04F88460446D21D22F0070101
:100B400091B0D1E90001CDE90A0102F011F80246A5
:100B50000B98C00F01D02D2007E02068810701D538
:100B60002B2002E0202101EAC000032A099001D0D5
:100B7000072A05DB03464146204600F00DFB0BE14A
:100B80002078800601D5E06900E00620B8F1650F05
:100B9000814606D0B8F1660F18D0B8F1670F70D152
:100BA00031E00020B9F1110F009001DB112301E0C9
:100BB00009F101030AAA01A90CA8FFF7E2FEDDE989
:100BC0000C70002609F10105834647E001204B46E1
:100BD00000904FF000470AAA01A90CA8FFF7D1FE28
:100BE000DDE90DB00C995D46002610B909F1010050
:100BF0000D18B9EB050003D4C0F1FF3609F101056A
:100C0000A5EB09002BE0B9F1010F01DA4FF0010962
:100C10000020B9F1110F0090484601DD112300E0DA
:100C200003460AAA01A90CA8FFF7ABFEDDE90C7088
:100C30004D4600268346207800070AD4AB4500DAEB
:100C40005D4601A8012D04DD411911F8011C302970
:100C500007D04F4502DA17F1040F04DA012082466B
:100C60000FE06D1EEEE7002F02DCED1B3E4403E0BB
:100C7000781CA84200DD7D1CB81B00F1010A4FF072
:100C800000472078000703D4AA4501DB4FF0FF3A64
:100C90000021B7F1004F0DF143088DF8431024D027
:100CA00002202B23002F01DA7F422D230A21021E6E
:100CB000A0F1010000DC5FB197FBF1FC97FBF1F2C2
:100CC00001FB1C7C17460CF1300C08F801CDEEE757
:100CD000A8F1010003702188090501D5452100E034
:100CE0006521A0F1010800F8011C09980FA9A1EBEA
:100CF0000807FF1D00B10120411901EBEA70A1694D
:100D00003844081A401EA0612078C00602D420464C
:100D1000FFF7E5FA099828B1D4E901219047206A44
:100D2000401C20622078C00622D52046FFF7D7FA63
:100D30001EE0002E04DBB34502DD01A8805D00E06B
:100D40003020D4E901219047206A401C2062761CA3
:100D5000AAF101005FEA000A0AD100F019FAC0689E
:100D60000168405CD4E901219047206A401C206260
:100D7000281EA5F10105DCDC07E0D4E9012118F803
:100D8000010B9047206A401C2062381EA7F1010722
:100D9000F3DC2046FFF7B9FA032011B041E600006A
:100DA0002DE9F04F04460D46D21D22F0070089B010
:100DB000D0E900974846394601F0DAFE0246F80FBE
:100DC00001D02D2307E02068810701D52B2302E005
:100DD000202101EAC0038DF820300BB1012000E092
:100DE0000020032A824601D0072A04DB2946204638
:100DF00000F0D2F93FE12078800601D40D2500E013
:100E0000E569C7F30A560D2D49DA00214FEA175B51
:100E100008464FF00000002F00F4400007DA00EB16
:100E200080004FF4400100EBD07001EA60008115B2
:100E3000012901DD4FF0FF3100224FEA850CBCF1A2
:100E4000180F06D31346ACF118004FF08052C24081
:100E500003E04FF4801323FA0CF30CF10C0CBCF1FB
:100E6000200F04D3ACF1200C09FA0CF001E007FAD2
:100E70000CF000294FF0004801DD18B90FE00ED149
:100E800040450CD319EB02095F4121B9404502D11D
:100E90009F4329EA0209BBEB175F00D0761C20882C
:100EA000000502D57B48784402E07A487844193836
:100EB00008AA302302F80A30037C0AF10101002E4F
:100EC0000AF1020A53546A4602DC4FF0300101E095
:100ED0004FF031014FF001088DF8001002D0A6F25A
:100EE000FF3603E059EA470100D06B4E002D02DCCB
:100EF0002178090704D54FF002082E218DF8011042
:100F0000C44600210BE0C7F303433F01C35C491C07
:100F10006D1E02F80830052908F1010801DA002DDC
:100F2000F1DC00210CE000EB1973491C1B786D1EED
:100F3000082902F808304FEA091908F1010801DA16
:100F4000002DF0DC21688B0602D516E0A8F101081F
:100F5000E04505DD02EB080313F8013C302BF5D02A
:100F6000B8F1000F09DD02EB080313F8013C2E2B4A
:100F700003D1090701D4A8F10108002D05DD3E21A8
:100F800002F808106D1E08F10108407C002E02F8DE
:100F9000080008F1010804DA2D20764202F8080062
:100FA00002E02B2002F808000A214FF47A708642F2
:100FB00008F101080BDB96FBF0F3303302F8083040
:100FC00096FBF0F308F1010800FB136601E0642EC4
:100FD0000CDB642096FBF0F3303302F8083096FB0C
:100FE000F0F308F1010800FB136601E00A2E06DBAE
:100FF00096FBF1F0303002F8080008F1010896FB8A
:10100000F1F001FB1060303002F80800A16908F12E
:10101000010808EB050202EB0A00081AA06120781B
:10102000C00602D42046FFF75AF9216A08AE01EB48
:101030000A00206204E0D4E9012116F8010B904770
:10104000BAF1010AF7D22078C00602D52046FFF790
:1010500046F96E4609E016F8010B3E280FD0D4E998
:1010600001219047206A401C2062B8F10108F2D2A9
:101070002046FFF74AF909B00320BDE8F08F206A47
:101080002844206203E0D4E90121302090476D1EFE
:10109000EBD3F8E7A238000002FCFFFF10B543696C
:1010A00013B1AFF3008001E0FFF752F9012010BD4A
:1010B000127800F124010A7000224A700122EDE743
:1010C00011684FF0FF32E9E710B5436913B1AFF390
:1010D000008001E0FFF7D4F9012010BD128800F173
:1010E000240182840022C2840122EDE711684FF0BE
:1010F000FF32E9E770B516460C46054600F040F8A9
:10110000036893F80101012806D0FF2C0FD8185D61
:1011100068B101202C7070BDD3F80701324621461A
:1011200003F2071303442846BDE8704018474FF008
:10113000FF3070BD754600F0EBF8AE46050069461D
:10114000534620F00700854618B020B5FFF7A0F8F9
:10115000BDE820404FF000064FF000074FF00008B8
:101160004FF0000B21F00701AC46ACE8C009ACE839
:10117000C009ACE8C009ACE8C0098D467047000062
:1011800010B500F005F8001D10BD00BF052C0000D3
:1011900000487047081000202DE9F0411F46044622
:1011A00003260168072A01F4006004DB08B116A5D4
:1011B00005E016A503E008B115A500E015A521F08E
:1011C00010002060A069C01EA0610FB1401EA06188
:1011D0002046FFF784F84FB1D4E901213846904703
:1011E000206A401C2062C01C206206E0206AFAE7E8
:1011F000D4E9012115F8010B9047761EF8D220465C
:10120000FFF783F8BDE8F0814E414E006E616E003D
:10121000494E4600696E66002DE9F0478146164644
:101220008AB0354878440DC88DE80D0032487844BE
:10123000801C03AC0DC884E80D0041F69B300844C7
:10124000372190FBF1F290FBF1F5A5F1800501FB50
:1012500012041B3C02D56442012000E00020DFF8AC
:1012600098A080460027FA44AAF1BE0A0EE0E007E3
:101270000AD03246684607EB470101230AEB810199
:1012800000F022FB8DE8070064107F1C002CEED1DB
:10129000194F7F44AE3F19E0E80715D007EB041063
:1012A0000DF1180A90E80E008AE80E00C068F042BE
:1012B00001D1981908903246012306A903A800F02D
:1012C00003FB03AB83E807006D10641C002DE3D122
:1012D0004FF0010332466946B8F1000F03A802D06F
:1012E00000F0DDFA01E000F0EFFAC9E90001C9F809
:1012F00008200AB0BDE8F087B435000010B50446F8
:10130000AFF300802046BDE81040FEF7ACBF000000
:1013100000487047E80F00204FF0013C50F8042BC4
:1013200051F8043B9A4221D1A2EB0C03934313EAF8
:10133000CC1317D150F8042B51F8043B9A4215D125
:10134000A2EB0C03934313EACC130BD150F8042BFC
:1013500051F8043B9A4209D1A2EB0C03934313EAE0
:10136000CC13DBD04FF00000704700BFD01A01BA99
:10137000B1FA81F101F0180122FA01F0CB40C1F17C
:101380002001DBB2C0B2C01A2CFA01F3D11A91438A
:1013900011EAC311E6D1704701491820ABBEFEE740
:1013A0002600020070475FEA400C08BF91F0000F72
:1013B0004FEA8C234FEAC12243EA51514FEA1C50B5
:1013C00018BF00F5F0404FEA300018BF41F000416F
:1013D0005FEA6C5C00F02980BCF1FF3F08BF40F081
:1013E00080407047130C06BF12044FF0100C4FF0F2
:1013F000000C130E04BF12020CF1080C130F04BFF3
:1014000012010CF1040C930F04BF92000CF1020CBA
:10141000D30F04BF52000CF1010C11464FF0000233
:10142000A0F11F00A0EB0C00704711F0004F08BFA7
:10143000704731F000413FF4D5AF0B0C06BF0904F3
:101440004FF0100C4FF0000C0B0E04BF09020CF112
:10145000080C0B0F04BF09010CF1040C8B0F04BF27
:1014600089000CF1020CCB0F04BF49000CF1010CF8
:10147000CCF12003A0EB0C0022FA03F302FA0CF2E9
:1014800041EA030100F10100704720F07F4C80EA3F
:10149000030023F07F47ACEB070303F57C5300F018
:1014A000004003F1FF032DE980494FEA154B09B4D1
:1014B0004FEA144325EA0B4E24EA03480FF20426B0
:1014C00006EB132749083E785FEA320203FB066702
:1014D000C7F5000707FB06F64FEA54374FEAD64632
:1014E00006F1020607FB066CCCF1005C4FEA1C47D4
:1014F0002CEA074C07FB06F40CFB06F504EB15463B
:101500004FEA961634BF00204FF000404FEAD13723
:1015100006FB07FC4FEA1C4C0CFB0BF7D21B03FB32
:101520000CF761EB07010CFB0EF7B0EB074072EB19
:1015300017420CFB08F734BFA2EB0742B2EB07429D
:1015400061EB17414FEA0C444FEA910706FB07FC99
:101550004FEA1C4C0CFB0BF7B0EBC74072EB573259
:1015600003FB0CF734BFA2EBC742B2EBC74261EBFF
:1015700057310CFB0EF7B0EBC70072EB57720CFB48
:1015800008F734BFA2EBC702B2EBC70261EB577199
:10159000039F4FEA816141EA921104EBCC044FEAC8
:1015A000D1374FEA826206FB07FC42EA90124FEA0B
:1015B00080604FEA1C4C0CFB0BF7D21B03FB0CF7B3
:1015C00061EB07010CFB0EF7B0EB074072EB174223
:1015D0000CFB08F734BFA2EB0742B2EB074261EB0A
:1015E00017414FEA8C554FEA910704EB9C2406FB08
:1015F00007FC4FEA1C4C0CFB0BF7B0EBC74072EB3F
:10160000573203FB0CF734BFA2EBC742B2EBC74221
:1016100061EB57310CFB0EF7B0EBC70072EB577262
:101620000CFB08F734BFA2EBC702B2EBC70261EBB9
:10163000577115EB4C254FEA816141EA92114FEA4F
:1016400082624FEAD13742EA901206FB07FC44F16E
:1016500000044FEA80604FEA1C4C0CFB0BF7D21BD6
:1016600003FB0CF761EB07010CFB0EF7B0EB074037
:1016700072EB17420CFB08F734BFA2EB0742B2EB48
:10168000074261EB174115EB1C154FEA813141EA26
:1016900092414FEA823242EA90424FEA80304FEA6A
:1016A0000C7644F1000448EA03434EEA0B484FF03D
:1016B000000EB2EB080C71EB030724BF62463946FB
:1016C0004EEB0E0E4FF0000B0018524149414BEB10
:1016D0000B0BB2EB080C71EB03077BF1000B24BF83
:1016E000624639464EEB0E0E4FF0000B0018524189
:1016F00049414BEB0B0BB2EB080C71EB03077BF191
:10170000000B24BF624639464EEB0E0E51EA02072B
:1017100018BF46F0010616EB0E7655F1000254F1A3
:10172000000103D5BDE88901BDE80088BDE8890155
:10173000BDE80048B619524141EB0101A3F1010394
:10174000704780807F7E7D7C7B7A7978777676752E
:101750007473727171706F6E6E6D6C6C6B6A6A69A6
:101760006868676666656464636362616160605F40
:101770005F5E5E5D5D5C5C5B5B5A5A5959585857B9
:101780005756565555555454535352525251515021
:1017900050504F4F4F4E4E4D4D4D4C4C4C4B4B4B74
:1017A0004A4A4A49494948484847474747464646BA
:1017B00045454544444444434343434242424241F5
:1017C0004141002B9C4630D477002BD01CB54FEA0A
:1017D000370703B44FF010004FF01001BAF1000FBB
:1017E00006D0BCF1000FDCBF40F0080040F008015B
:1017F0004FF000000FBCBDE810400BF1010BBBF136
:10180000010F08BF5FEA170722BF12F1010211F1B1
:1018100001014FF0004143F1000300F0004043EAB2
:1018200000007047F9D35708D0E746EA064613F19F
:10183000400F4FEA16461FDD13F1200FDFBF16439E
:101840000A46002120335B42BED0C3F1200746EA9E
:10185000064602FA07F74FEA164646EA0706C3F1BC
:10186000200722FA03F201FA07F721FA03F14FF0F9
:10187000000342EA0702A7E746EA020646EA0646EE
:101880004FEA164646EA0106BCBF46EA0646360C53
:101890004FF000034FF000024FF0000194E72DE9F4
:1018A000804C9A46934670B491E8380007C831EAF4
:1018B000400C48BF34EA430C03D5FFF7E6FDFFF7C1
:1018C00080FFF0BCBDE8008C2DE9804C9A46934621
:1018D00070B491E8380007C810F0804F08BF13F0CB
:1018E000804F03D100F005F8FFF76BFFF0BCBDE8B7
:1018F000008C20F07F4780EA030023F07F4C07EB49
:101900000C03A3F57C5300F00040A3F1FE0392F01A
:10191000000F00F0B38095F0000F00F077802DE904
:1019200001494FEA11404FEA144621EA004800FB02
:1019300006FC24EA064708FB06F607FB08F800FB4E
:1019400007F718EB06484CEB164C4FEA124B18EB16
:1019500007484FEA15464CEB174022EA0B4E0BFBAB
:1019600006FC25EA06470EFB06F607FB0EFE0BFB00
:1019700007F71EEB064E4CEB164C4FF000061EEB25
:10198000074E4CEB174B18EB0B0840F1000018EB1F
:101990000E0B58EB000840F100008F1A4FF00001C9
:1019A0003CBFC943661B14BFB5EB040C00213CBF10
:1019B000C943F61B4FEA17444EEA8E0E27EA044548
:1019C0004FEA1C4704FB07622CEA074C05FB07F7AC
:1019D0000CFB05F604FB0CFC16EB074642EB17422A
:1019E00016EB0C4642EB1C421BEB060658EB0202C0
:1019F000414146EA9E0601D5BDE80189B61952412A
:101A000041EB0101A3F10103BDE801894FEA14454F
:101A10004FEA114724EA054621EA074C05FB07F483
:101A200006FB07F70CFB06F105FB0CFC11EB07416D
:101A300044EB17444FEA124711EB0C4144EB1C44B2
:101A400022EA074C05FB07F206FB07F70CFB06F63C
:101A500005FB0CFC16EB074642EB174216EB0C4657
:101A600042EB1C456A1854F1000148BF7047B61993
:101A7000524141EB0101A3F10103704795F0000FC2
:101A800037D04FEA11424FEA144721EA024624EACE
:101A9000074C02FB07F106FB07F70CFB06F402FB01
:101AA0000CFC14EB074441EB17414FEA154714EBCC
:101AB0000C4441EB1C4125EA074C02FB07F506FBF1
:101AC00007F70CFB06F602FB0CFC16EB074645EB92
:101AD000174516EB0C4645EB1C42121951F100015B
:101AE00048BF7047B619524141EB0101A3F1010310
:101AF00070474FEA14454FEA114724EA054621EAA8
:101B0000074C05FB07F106FB07F70CFB06F24FF04D
:101B1000000605FB0CFC12EB074241EB174112EBF0
:101B20000C4251EB1C4148BF7047921841EB010138
:101B3000A3F101037047000010B54FF408710B4882
:101B400000F043F888B1094800F03BF80849094A19
:101B5000127821F8120007480078401C05490870E7
:101B60004FF40871014800F007F810BD002401404F
:101B7000880F0020A407002000220A12D34303602C
:101B8000704721B1826842F00102826003E08268FE
:101B900022F001028260704721B1826842F48072B3
:101BA000826003E0826822F480728260704701469E
:101BB00000208A6802F004020AB1012000E000203F
:101BC00070470146C86C80B2704770B5024600206D
:101BD000002300240B125568CEB205EA06041568EE
:101BE0001D4015B10CB1012000E0002070BD014680
:101BF00000208A6802F008020AB1012000E00020FB
:101C00007047000030B502460020002350680F4C9A
:101C100020400D790C6844EA052420435060906808
:101C20000B4C2040D1E902542C434D7944EA450441
:101C300020439060D06A20F470000C7C641EE4B2F3
:101C4000234340EA0350D06230BD0000FFFEF0FFA6
:101C5000FDF7F1FFF0B504460D4600200021092DE7
:101C600011DDE068A5F10A0606EB4607072606FA2D
:101C700007F18843A5F10A0606EB460603FA06F1CA
:101C80000843E0600CE0206905EB4507072606FAEB
:101C900007F1884305EB450603FA06F10843206186
:101CA000072A0FDA606B561E06EB86071F2606FA18
:101CB00007F18843561E06EB860605FA06F108432F
:101CC000606322E00D2A0FDA206BD61F06EB860731
:101CD0001F2606FA07F18843D61F06EB860605FA8B
:101CE00006F10843206310E0E06AA2F10D0606EB5E
:101CF00086071F2606FA07F18843A2F10D0606EBB8
:101D0000860605FA06F10843E062F0BD816841F0FD
:101D100008018160704721B1826842F4A0028260AC
:101D200003E0826822F4A00282607047816841F07B
:101D300004018160704700001FB50121042000F0FC
:101D400079FB0121084600F055FB03208DF80E00B9
:101D500010208DF80F004002ADF80C0003A91748C1
:101D600000F0F4F904208DF80F000003ADF80C002A
:101D700003A9124800F0EAF94FF0804000F046FD58
:101D800040F2E730ADF804004720ADF80000002035
:101D9000ADF80600ADF8020069464FF0804000F053
:101DA00047FE01221146900700F038FE00F0AFFA1E
:101DB00000214FF0804000F01CFD1FBD00080140D5
:101DC00010B5022000F0CCF838B104480078401C6F
:101DD00002490870022000F003F810BDA40700209B
:101DE00000F0805111B10349086001E002494860E8
:101DF00070470000040402400000024021B1026864
:101E000042F00102026004E002684FF6FE731A40DD
:101E10000260704701684FF6FE72114001600021B8
:101E2000016041608160C1604B49884208D14A49E4
:101E30000839496841F00F01474A083A51608AE081
:101E400045491431884208D143490839496841F06D
:101E5000F001414A083A51607DE03F49283188420B
:101E600008D13D490839496841F470613A4A083A55
:101E7000516070E038493C31884208D13649083910
:101E8000496841F47041344A083A516063E032498C
:101E90005031884208D130490839496841F47021ED
:101EA0002D4A083A516056E02B496431884208D1E6
:101EB00029490839496841F47001274A083A5160B4
:101EC00049E025497831884208D1234908394968D1
:101ED00041F07061204A083A51603CE01F49884255
:101EE00006D1011F096841F00F01021F116032E0A5
:101EF0001A491431884208D11849091F096841F06C
:101F0000F001164A121F116025E014492831884259
:101F100008D11249091F096841F470610F4A121F64
:101F2000116018E00D493C31884208D10B49091F66
:101F3000096841F47041094A121F11600BE007491A
:101F40005031884207D10549091F096841F47021C1
:101F5000024A121F11607047080002400804024044
:101F600001460020002201F0805313B1054B1A688E
:101F700001E0054B1A6802EA01030BB1012000E001
:101F800000207047000402400000024010B500220B
:101F9000026847F6F0739A430C6A8B6823430C6916
:101FA00023434C6923438C692343CC6923434C6A04
:101FB00023438C6A23431A430260CB6843600B6857
:101FC00083604B68C36010BD704770470F4800784E
:101FD00088B904200E49086080020E49086001207B
:101FE0000A49087000030B49091F086004200849CA
:101FF000091F086009E005480078012805D10003A1
:102000000449086002200149087070474D0700200C
:10201000141401401408014010B5002000F0BCFD6C
:1020200010BD10B5012000F0B7FD10BD10B5164869
:10203000006800F4805028B1FFF7C8FF4FF48050CB
:1020400000F07EF81048006800F4005028B1FFF757
:10205000E3FF4FF4005000F073F80B48006800F401
:10206000804028B1FFF7DDFF4FF4804000F068F8B2
:102070000548006800F4004028B100F007F84FF46C
:10208000004000F05DF810BD1404014010B50220BE
:1020900000F082FD10BD7047704770477047000028
:1020A00010B52548006800F0200020B1FFF7F3FFCD
:1020B000202000F045F82048006800F0400020B1E2
:1020C000FFF7EAFF402000F03BF81B48006800F0F3
:1020D000800020B1FFF7E1FF802000F031F81648C2
:1020E000006800F4807028B1FFF7D8FF4FF48070CB
:1020F00000F026F81048006800F4007028B100F0E5
:102100001DF84FF4007000F01BF80B48006800F455
:10211000806028B1FFF758FF4FF4806000F010F89E
:102120000548006800F4006028B1FFF74EFF4FF447
:10213000006000F005F810BD140401407047000075
:102140000149086070470000140401402DE9F04186
:10215000024600250026002000230024002791F8D5
:1021600003C00CF00F0591F803C00CF0100CBCF18B
:10217000000F03D091F802C04CEA050591F800C0A9
:10218000BCF1000F31D0146800202BE04FF0010C9F
:102190000CFA00F3B1F800C00CEA03069E4220D10D
:1021A00083004FF00F0C0CFA03F7BC4305FA03FC55
:1021B0004CEA040491F803C0BCF1280F06D14FF09B
:1021C000010C0CFA00FCC2F814C00AE091F803C03C
:1021D000BCF1480F05D14FF0010C0CFA00FCC2F81D
:1021E00010C0401C0828D1D31460B1F800C0BCF165
:1021F000FF0F34DD546800202EE000F1080C4FF092
:10220000010808FA0CF3B1F800C00CEA03069E427C
:1022100021D183004FF00F0C0CFA03F7BC4305FAF1
:1022200003FC4CEA040491F803C0BCF1280F05D16B
:1022300000F1080C08FA0CF8C2F8148091F803C0F9
:10224000BCF1480F07D100F1080C4FF0010808FA63
:102250000CF8C2F81080401C0828CED35460BDE8AA
:10226000F0810000F0B50A4600230024002100257B
:1022700000F00046B6F1004F02D11D4EF16901E0B9
:102280001B4E7168C0F3034583B200F44016B6F5E7
:10229000401F08D121F07061154E766826F07066F7
:1022A000134F7E6012E000F48016B6F5801F06D151
:1022B000032606FA05F4A14341F0706106E0460DDD
:1022C000360103FA06F6B14341F0706122B1460DC2
:1022D000360103FA06F6314300F00046B6F1004F2E
:1022E00002D1034EF16101E0014E7160F0BD0000CA
:1022F000000001400246002093680B400BB1012012
:1023000000E000207047416170470161704708B5E7
:102310004FF4A06000F048F800208DF801008DF81F
:1023200002001C208DF8000001208DF80300684693
:1023300000F002F808BD000070B5002100230F2254
:10234000C47804B3154C246804F4E064C4F5E06474
:10235000210AC1F10403CA40447804FA03F18478E5
:102360001440214309010E4C0678A155047804F06D
:102370001F050124AC4005786D11AD0005F1E02585
:10238000C5F8004109E0047804F01F050124AC40C1
:10239000044D0678761145F8264070BD0CED00E03E
:1023A00000E400E080E100E002490143024A1160DC
:1023B000704700000000FA050CED00E00146002027
:1023C000034A506820F440400843506070470000C2
:1023D0000010024029B1064A52690243044B5A6177
:1023E00004E0034A52698243014B5A61704700007E
:1023F0000010024029B1064AD2690243044BDA6157
:1024000004E0034AD2698243014BDA61704700005D
:102410000010024029B1064A12690243044B1A61B6
:1024200004E0034A12698243014B1A6170470000BD
:102430000010024029B1064A92690243044B9A6196
:1024400004E0034A92698243014B9A61704700009D
:102450000010024029B1064AD2680243044BDA60F8
:1024600004E0034AD2688243014BDA6070470000FF
:102470000010024070B50546034850F82540A18879
:102480002068FFF737FF70BDA807002010B502488D
:1024900000F0A0FF10BD00008000002021B10288E4
:1024A00042F40052028004E002884DF6FF731A40A5
:1024B0000280704721B1028842F04002028004E0AD
:1024C00002884FF6BF731A400280704710B5002291
:1024D00001F00F040123A3409AB2D343038110BD3E
:1024E0000246002013890B400BB1012000E00020C0
:1024F0007047F0B50246002000240023002501F0BB
:102500000F070126BE40B4B20B1101269E40B3B2A4
:10251000968806EA03051689264016B10DB10120FA
:1025200000E00020F0BD0146888970478181704736
:1025300010B50022028802F441520B884C882343D4
:102540008C882343CC8823430C8923434C89234321
:102550008C892343CC8923431A430280838B4FF217
:10256000FF74234083830B8A038210BD21B18288CC
:1025700042F00402828004E082884FF6FB731A4026
:10258000828070472DE9F05F0024A146A3464AE00F
:1025900001202A4908600F2000F06AFC0020284929
:1025A000C1F8B40100BF4FF480412648FFF7A2FEF6
:1025B0000028F8D00121880700F01BF90BF1010B6E
:1025C00000BF4FF480411F48FFF794FE0128F8D068
:1025D00000214FF0804000F00CF94FF0804000F0F7
:1025E00009FA82461849096801EB4102C2EBC111A0
:1025F0000AEBC10001F06CFD07460022134B01F00D
:102600000FFC054601F0DAFB04464946204601F07E
:10261000CBFD814600204FF0804188840A49086044
:10262000642000F007FCBBF1050FB1D10849484612
:1026300001F01CFE04462046BDE8F09FB401214293
:102640000000214200080140B007002000004D407A
:102650000000A04010B500F001F810BD0CB500203E
:10266000019000903348006840F4803031490860A0
:1026700000BF3048006800F4003000900198401C12
:102680000190009818B90198B0F5A06FF1D12948D0
:10269000006800F4003010B10120009001E000203B
:1026A00000900098012843D12348006840F01000B2
:1026B000214908600846006820F0030008600846C9
:1026C000006840F0020008601A48406819494860F4
:1026D0000846406848600846406840F480604860AA
:1026E0000846406820F47C1048600846406840F482
:1026F000E81048600846006840F08070086000BF3D
:102700000C48006800F000700028F9D009484068C3
:1027100020F00300074948600846406840F0020086
:10272000486000BF0348406800F00C000828F9D159
:102730000CBD000000100240002002400648006866
:10274000401C0549086005480068401E03490860B0
:102750000020034908707047140000201800002072
:102760001C00002010B51348006840F0010011491A
:10277000086008464068104908400E49486008460D
:1027800000680E4908400B4908600846006820F4BC
:10279000802008600846406820F4FE0048604FF43E
:1027A0001F008860FFF756FF4FF000600449086083
:1027B00010BD0000001002400000FFF8FFFFF6FE11
:1027C00008ED00E010B50121064800F016F940B10F
:1027D0000121044800F00AF803480068401C02493F
:1027E000086010BD004C0140B0070020CA430282BF
:1027F000704721B1028842F00102028004E00288A1
:102800004FF6FE731A4002807047000010B5044670
:102810006848844208D10121C014FFF71BFE002143
:10282000E014FFF717FEC4E0B4F1804F08D1012196
:102830000846FFF7EFFD00210120FFF7EBFDB8E0B0
:102840005D48844208D101210220FFF7E3FD002109
:102850000220FFF7DFFDACE05848844208D1012197
:102860000420FFF7D7FD00210420FFF7D3FDA0E0EF
:102870005348844208D101210820FFF7CBFD0021F5
:102880000820FFF7C7FD94E04E48844208D101219B
:102890001020FFF7BFFD00211020FFF7BBFD88E0EF
:1028A0004948844208D101212020FFF7B3FD0021CF
:1028B0002020FFF7AFFD7CE04448844208D101218D
:1028C0004014FFF7C7FD00216014FFF7C3FD70E05F
:1028D0003F48844209D10121C804FFF7BBFD002114
:1028E0004FF40020FFF7B6FD63E03A48844209D177
:1028F00001210805FFF7AEFD00214FF48010FFF71E
:10290000A9FD56E03448844209D101214805FFF76A
:10291000A1FD00214FF40010FFF79CFD49E02F4876
:10292000844208D101214020FFF774FD002140209E
:10293000FFF770FD3DE02A48844208D10121802044
:10294000FFF768FD00218020FFF764FD31E0254896
:10295000844208D101218015FFF75CFD0021A015FC
:10296000FFF758FD25E02048844209D101210804E1
:10297000FFF770FD00214FF48030FFF76BFD18E08A
:102980001A48844209D101214804FFF763FD002160
:102990004FF40030FFF75EFD0BE01548844208D18C
:1029A00001218804FFF756FD00214FF48020FFF736
:1029B00051FD10BD002C0140000400400008004003
:1029C000000C0040001000400014004000340140A2
:1029D000004C0140005001400054014000180040EC
:1029E000001C004000200040004001400044014025
:1029F000004801400146888C704730B502460020EF
:102A000000230024158A05EA0103958905EA0104DB
:102A100013B10CB1012000E0002030BD1AB1838950
:102A20000B43838102E083898B43838170470000DD
:102A3000002202881D4B98420ED01D4B98420BD0AD
:102A4000B0F1804F08D01B4B984205D01A4B9842EA
:102A500002D01A4B984204D14FF68F731A404B881C
:102A60001A43174B984207D0164B984204D04FF6A2
:102A7000FF431A40CB881A4302808B8883850B88DA
:102A800003850A4B98420BD0094B984208D00E4B55
:102A9000984205D00D4B984202D00D4B984201D17F
:102AA0000B7A03860123838270470000002C0140CB
:102AB000003401400004004000080040000C0040C9
:102AC000001000400014004000400140004401405C
:102AD0000048014010B5024801F01CF910BD00008B
:102AE0005000002010B5024801F014F910BD00009C
:102AF0006800002010B50022002340F66A14A142AD
:102B000000D100BF0A1201249440A3B2DC43048028
:102B100010BD70B50246002400230025002040F6B9
:102B20006A16B14200D100BFC1F3421501F01F0384
:102B3000012606FA03F3012D02D19689334006E0FF
:102B4000022D02D1168A334001E0968A33400C12DE
:102B5000012606FA04F41688344013B10CB10120A2
:102B600000E0002070BD01468888C0F3080070476F
:102B7000490050EAC12018BF04204A0D18BF40F098
:102B8000010040F2FF72B2EB515F08BF40F002005B
:102B9000012808BF0520704770B50446204600F0A4
:102BA00011F90546124800EB0410806850B14DB190
:102BB0000F4800EB0410007920B90D4901EB041116
:102BC000886880470A4800EB0410C06850B14DB9CE
:102BD000074800EB0410007920B1054901EB04110E
:102BE000C8688047024800EB0410057170BD000002
:102BF0002000002030380A2801D201207047002030
:102C000070470000F8B504460F48007820710E4860
:102C10000078401C0C490870206878B100262568AF
:102C200003208DF802008DF80360A888ADF800003D
:102C300069462868FFF78AFA00BF00BF2079034978
:102C400041F82040F8BD000050070020A80F0020E8
:102C500000B58BB0144800F029F913480830FFF78D
:102C6000D9F8124800900020029011480078039093
:102C7000002004908020059040000690800007907E
:102C8000202008900002099000200A900948019035
:102C9000694605480830FFF779F9012102480830F4
:102CA000FFF7ACF80BB000BD000002404C2401401F
:102CB00050070020880F002010B586B02A4800F089
:102CC0005BF80020019001208DF808008DF80900C4
:102CD0004FF46020039000200490244800788DF881
:102CE00014004FF40040FFF769FBFFF7B1FF00F05D
:102CF00041F800240FE01E4850F824000079401CE1
:102D0000C2B21B4850F82400417907231648FEF749
:102D1000A1FF601CC4B2154800788442EBDB01A916
:102D20001148FEF76FFF01210F48FEF735FF012123
:102D30000D48FEF726FF0C48FEF7E8FF00BF0A48E3
:102D4000FEF755FF0028FAD10748FEF7EFFF00BF56
:102D50000548FEF72CFF0028FAD101210248FEF7B2
:102D6000DAFF06B010BD000000240140500700202B
:102D7000A80F00207047000010B504460B4884429D
:102D800004D101214015FFF755FB0EE008488442AD
:102D900004D101210015FFF74DFB06E005488442F0
:102DA00003D10121C803FFF745FB10BD00240140FA
:102DB00000280140003C014010B501210846FFF702
:102DC00039FB10BD70B50546064800EB05100468D8
:102DD000A1882068FFF78EFA08B9012070BD002095
:102DE000FCE7000020000020F8B5002412E00B48AA
:102DF00000EB04104826056803208DF802008DF8CA
:102E00000360A888ADF8000069462868FFF79EF9BE
:102E100000BF641C032CEADBF8BD0000200000208A
:102E20000349086000BF024909680029FBD17047C7
:102E30001800002001460D4A12884A434FF0E02353
:102E40005A6100229A6101221A6100BF4FF0E0220C
:102E5000106900F001021AB100F48032002AF5D0A6
:102E600000224FF0E0231A619A617047B6070020F4
:102E700001460D4A12784A434FF0E0235A6100227E
:102E80009A6101221A6100BF4FF0E022106900F040
:102E900001021AB100F48032002AF5D000224FF06E
:102EA000E0231A619A617047B407002010B5044608
:102EB0000748844204D101210846FFF78BFA06E057
:102EC0000448844203D101210220FFF783FA10BD98
:102ED0000000024000040240014800687047000002
:102EE0001400002038B504460D4603208DF802007A
:102EF0008DF80350A088ADF8000069462068FFF700
:102F000025F938BD38B504460D4603208DF802007A
:102F10008DF80350A088ADF8000069462068FFF7DF
:102F200015F938BD38B504460D4603208DF802006A
:102F30008DF80350A088ADF8000069462068FFF7BF
:102F400005F938BD38B504460D4603208DF802005A
:102F50008DF80350A088ADF8000069462068FFF79F
:102F6000F5F838BD10B504461348844204D1012158
:102F70000420FFF75FFA1EE01048844204D10121CB
:102F80000820FFF757FA16E00D48844204D10121CA
:102F90001020FFF74FFA0EE00A48844204D10121C5
:102FA0002020FFF747FA06E00748844203D10121B9
:102FB0004020FFF73FFA10BD00080140000C01401F
:102FC00000100140001401400018014010B50446F3
:102FD000A1882068FFF797F910BD10B50446A188B5
:102FE0002068FFF792F910BD10B5044600BFA18814
:102FF0002068FFF788F900BF10BD10B5044600BF78
:10300000A1882068FFF781F900BF10BD10B510211D
:103010000348FFF767FF10210248FFF763FF10BD69
:10302000B0450008B845000810B548210348FFF72F
:1030300089FF48210248FFF785FF10BDE0460008E0
:10304000D846000808B500F07BF82F48FFF78AFF44
:1030500000F01CFEFFF7DAFFFFF7C6FE2B48FFF774
:10306000D1FDFFF729FEFFF7DFFF1F204FF6FF73AB
:10307000C2024AF655510090032000F041FB00F0D7
:103080006BFAFEF759FEFFF727FF04462546002698
:1030900039E000BFFFF720FFA042FBD0FFF71CFF85
:1030A0000446601BB0F5FA7F06D1FFF76BFA0746BE
:1030B00001F09EF906462546601BB0F5FA7F00DD5B
:1030C00025460020FFF7D6F90746334610A2002117
:1030D0000090084600F08AFB00F0F6FC002E03DDAD
:1030E0001548FFF78AFF02E01348FFF77DFF002035
:1030F000FFF7C0F9012803D11048FFF77EFF02E077
:103100000E48FFF771FFC4E7000801405407002094
:10311000736F6E617220706F736974696F6E2025B2
:10312000640A204C696E65547261636B657220732A
:103130007461746520256400F0460008E8460008C4
:1031400010B5FFF739FE01210420FFF773F90121C3
:103150000820FFF76FF901211020FFF76BF901211B
:103160002020FFF767F901214020FFF763F910BD28
:103170002DE9F04186B004460F4615461E46DDF89F
:103180003080206800F04AF918216068FFF7BAFE25
:1031900005F4004048B1B6F5827F01D1A16800E096
:1031A000E16808461821FFF7ADFE05F4404048B13C
:1031B000B6F5827F01D1E16800E0A16808461821D8
:1031C000FFF7A0FE206901287ED020690228FBD0ED
:1031D00020690428F8D020690828F5D06A492069B8
:1031E0008842F1D06849203120698842ECD0674993
:1031F00020698842E8D0654980312069884263D0DF
:103200006349206988425FD06249206988425BD067
:1032100061492069884257D060492069884253D06B
:103220005F49206988424FD02069B0F5805F4BD05C
:103230002069B0F5EA1F7CD02069B0F5EB1F78D08B
:103240002069B0F5004F74D056492069884270D08B
:10325000491C206988426CD0891C2069884268D04A
:10326000091D2069884264D04E490F312069884287
:103270005FD02069B0F1201F5BD04FEAF1312069A7
:10328000884256D048492069884252D0474920692F
:1032900088424ED04649206988424AD04549206933
:1032A000884246D044492069884242D02069B0F51E
:1032B000011F3ED04149206988423AD0491C20690B
:1032C000884236D0891C00E033E02069884230D043
:1032D000091D206988422CD038490F312069884265
:1032E00027D036491F312069884222D033493F31E7
:1032F000206988421DD031497F312069884218D029
:103300002E49FF312069884213D02D492069884217
:103310000FD02C49206988420BD02B492069884264
:1033200007D02A492069884203D029492069884268
:1033300003D101212069FEF795FFADF80450ADF8E7
:103340000660ADF808800220ADF80A000120ADF853
:103350000C004002ADF80E00ADF810700020ADF882
:10336000120001A92068FFF7E3F801212068FFF7A8
:10337000A1F800212068FFF791F800212068FFF7ED
:10338000F5F806B0BDE8F08110001400400016000A
:1033900000011800000218000003180000081A00BD
:1033A000000C1A0001002000000130000002300073
:1033B00000043000001120000020200001000080E7
:1033C00000020080000400800008008000100080DF
:1033D0000020008070B5044660212068FFF789F85E
:1033E00068B12068FFF79FF80546606910B1E8B240
:1033F0006169884760212068FFF768F80DE0712156
:103400002068FFF776F840B1A06910B1A169206883
:10341000884771212068FFF759F870BD10B5044640
:103420000B48844204D101218014FFF703F80EE019
:103430000848844204D101210014FEF7DBFF06E0B6
:103440000548844203D10121C013FEF7D3FF10BD0C
:103450000030014000380040003C004070B5044698
:103460000D4600BF02212068FFF73AF80028F9D086
:1034700029462068FFF75AF870BD000010B50246D3
:103480003048007800EBC00303EB00102E4B03EB39
:10349000C00002EB820300EB4300405C2B4B1B7827
:1034A00003EBC30404EB0313274C04EBC30302EB4D
:1034B000820403EB44035B5C98423FD121480078CF
:1034C00000EBC00303EB0010214B03EB001002EBF9
:1034D000820300EB830030F811001C4B1B7803EBD8
:1034E000C30404EB03131A4C04EB031302EB820432
:1034F00003EB840333F8113098421FD11148007850
:1035000000EBC00303EB0010124B03EB001002EBC7
:10351000820300EB830030F811000C4B1B7803EBA7
:10352000C30404EB03130B4C04EB031302EB820400
:1035300003EB840333F81130984201D0012010BD11
:103540000020FCE7AE060020B8070020AF060020F0
:1035500048090020680C002010B5002006490880AA
:10356000002404E0204600F00BF8601CC4B20348BD
:1035700000788442F6DB10BDA8060020AD060020CE
:1035800010B50146002032E020221B4B1B7803EBD4
:10359000C30404EB0313194C04EBC30300EB8004D6
:1035A00003EB44035A54164A1288134B1B7803EB5F
:1035B000C30404EB0313134C04EB031300EB80046C
:1035C00003EB840323F811200F4A12880A4B1B785F
:1035D00003EBC30404EB03130C4C04EB031300EBE9
:1035E000800403EB840323F81120421CD0B2084A64
:1035F00012789042C8DB10BDAE060020B80700204C
:10360000A0060020480900209C060020680C00202D
:10361000AC06002010B5002423E01549085D00F039
:1036200019FB1348005D362805D11249124A127859
:10363000885C00F01DFB0EE00D48005DFF2806D100
:10364000611C0C460A4A505CFFF7EAFB03E008499C
:10365000085D00F00DFB601C04460549085C43282A
:10366000EAD1601C04460249085C4228D5D110BD4D
:103670002046000891460008A606002001200149C6
:1036800008707047A706002070B505460F490878F6
:1036900000EBD0714910A0EB410131B18023A02291
:1036A0000021084600F098F905E0A02380220021BF
:1036B000084600F091F9002403E0284600F0C0FA23
:1036C000641CB4F5A04FF8D370BD0000A60600201E
:1036D00008480088401C07490880002006490880E7
:1036E0000448008805490978884202DB0020014926
:1036F00008807047A8060020AA060020AD0600201A
:103700002DE9F04104460D4616461F46DDF81880A7
:1037100000202E4908802E49087001202D4908708C
:103720002D4804700146087800EBD0714910A0EBD9
:10373000410109B1012100E00221284A1170264906
:10374000087800EBD0714910A0EB410109B10221CA
:1037500000E00121224A117000F09CF900F06CF8A1
:10376000FFF758FF284600F077F8304600F08CF954
:10377000384600F083F9404600F028F92846FFF764
:1037800083FF204604EBD0714910A4EB410109B13D
:10379000142100E01021134A1170204604EBD0716F
:1037A0004910A4EB410109B1082100E00A210E4AA9
:1037B0001170FFF763FFFFF7CFFE00F085F9FFF709
:1037C000CBFE00F081F9BDE8F0810000A8060020E2
:1037D000AE060020AF060020A6060020A4060020AA
:1037E000A5060020AC060020AD0600200FB430B5C1
:1037F000C1B004460D460E480078844203DA0D48F5
:103800000078854203DB41B030BC5DF814FB47A86B
:10381000009001A8009A4699FCF74CFD002000900A
:1038200001AA2946204600F01DF800BFEBE7000082
:10383000AC060020AD06002010B50648FFF7C6FB19
:103840006420FFF7EDFA0348FFF7C7FB6420FFF79A
:10385000E7FA10BD104600080149088070470000D3
:103860009C0600202DE9F05F0746884614463E4638
:1038700045464FF0000AD346D14685E020785D28C2
:1038800016D006DC0A280CD00D2809D05B2828D1D8
:103890000DE07B2814D07C281BD07D2821D110E09E
:1038A00000BF681CC5B20026FFF712FF6AE000BF28
:1038B00020785B2801D1012000E00020824661E0F1
:1038C00000BF20787B2801D1012000E00020834642
:1038D00058E0B9F1000F01D1012000E0002081463D
:1038E00050E02078B9F1000F01D0802100E00021E4
:1038F00008432B49097801EBC10202EB0111294A67
:1039000002EBC10106EB860201EB42014855BAF118
:10391000000F02D02448008801E024480088204994
:10392000097801EBC10202EB0111214A02EB0111FE
:1039300006EB860201EB820121F81500BBF1000FB6
:1039400002D01C48028801E01B4802881448007815
:1039500000EBC00101EB0010184901EB00133046E9
:10396000711CCEB200EB800003EB800020F8152024
:1039700013480078864204D1681CC5B20026FFF7C0
:10398000A7FE00BF00BF641C207820B10D4800785E
:103990008542FFF673AF0C480680BDE8F09F00003B
:1039A000AE060020B8070020A2060020A0060020D6
:1039B000480900209E0600209C060020680C00207C
:1039C000AC060020AD060020AA06002001490880B0
:1039D000704700009E0600202DE9F05F04460D466A
:1039E00092469B4626462F4604EB0A001FFA80F8B3
:1039F00005EB0B001FFA80F91D480078304486B2B1
:103A00001C480078384487B21948007840441FFAAF
:103A100080F81848007848441FFA80F92A2000F0FE
:103A200019F9300A00F024F9F0B200F021F94FEA58
:103A3000182000F01DF908F0FF0000F019F92B2004
:103A400000F008F9380A00F013F9F8B200F010F9A4
:103A50004FEA192000F00CF909F0FF0000F008F916
:103A60002C2000F0F7F80448FFF7B7FABDE8F09F04
:103A7000A4060020A5060020184600080149088079
:103A800070470000A206002001490880704700002E
:103A9000A006002008B500204FF482734FF4404286
:103AA000014600900548FFF763FB10210448FFF72B
:103AB00039FA10210348FFF735FA08BD80000020CD
:103AC00010460008184600082DE9F05F0025002781
:103AD000A8465248007808B9BDE8F09F002686E065
:103AE00000247DE031462046FFF7C8FC002875D051
:103AF000012501E0681C05B260194949097888422E
:103B000006DA6119C8B23146FFF7B8FC0028F1D1D6
:103B10000123C3EBC5039AB23101E0000F23FFF785
:103B20005BFF4FF0000853E03E48007800EBC00117
:103B300001EB00103C4901EBC000E11901EB8101F0
:103B400000EB4100805D2038384901EB001A4FF04E
:103B5000080930E01AF80800A9F10101084100F055
:103B6000010080B12F48007800EBC00101EB00108C
:103B70002F4901EB0010E11901EB810100EB8100FD
:103B800030F816000FE02748007800EBC00101EB89
:103B90000010284901EB0010E11901EB810100EB55
:103BA000810030F816008346584600F049F8A9F124
:103BB000010000F0FF09B9F1000FCBDC781CC0B2A6
:103BC0000746A84204D1002708F1010000F0FF08D1
:103BD000B8F1100FA8DB681E2044C4B2601CC4B248
:103BE0000F4800788442FFF67DAF701CC6B21248C1
:103BF00000788642FFF674AF0A48007808B90120C1
:103C000000E00020074908700C48007808B901203E
:103C100000E000200949087000BF5DE7A70600200A
:103C2000AC060020AE060020B80700209C00002053
:103C300048090020680C0020AD060020AF060020D7
:103C400010B50446201200F013F8E0B200F010F8AE
:103C500010BD000010B504460348FFF7B7F9214630
:103C60000248FFF7FBFB10BD18460008800000204B
:103C700010B504460348FFF7B0F921460248FFF7A4
:103C8000EDFB10BD184600088000002038B500206C
:103C90008DF801008DF8020001208DF80300FF204F
:103CA0008DF800006846FEF747FB164800684FF4A1
:103CB0007A72B0FBF2F1B1F1807F00D31DE021F008
:103CC0007F40401E4FF0E022506150170F22002825
:103CD00007DA13071D0E0C4B00F00F04241F1D55AF
:103CE00003E013071C0E094B1C5400BF00204FF0CB
:103CF000E02290610720106100BF002004490860A5
:103D000038BD00000000002018ED00E000E400E0F5
:103D10001400002070B5044640F225512068FEF7DB
:103D2000F8FE70B12068FEF71EFF0546E06810B18E
:103D3000E8B2E168884740F225512068FEF7DAFED4
:103D40000EE040F227712068FEF7E3FE40B12069E3
:103D500008B12069804740F227712068FEF7CAFE4B
:103D600070BD000010B500290AD00878002807D0DF
:103D700005487844FDF7D0FA002801D0002010BD96
:103D80000248784410BD0000A20A00009A0A000010
:103D900010B500290AD00878002807D005487844D3
:103DA000FDF7BAFA002801D0002010BD024878447F
:103DB00010BD0000920A00008A0A000021F00042B3
:103DC000A2F16052B2F5801F01F0004328BFD2F18A
:103DD0007F6C0BD95FEA001C43EAC20242EB5070D1
:103DE00018BF704728BF20F001007047B2F5801F50
:103DF000BCBF184670474FEA410C1CF5001F02D2A9
:103E0000084600F056BB70B500F079F90000008953
:103E1000FFF7F6BF4FF00040A0F5800070470000AC
:103E20002DE9C04130B4DFF8A0C23CEA111418BF3C
:103E30003CEA131400F0EC8081EA03051CEA11143B
:103E400044EAD57418BF1CEA131500F0C780A4EB30
:103E500005044FF0004545EAC12145EAC32341EA84
:103E6000505143EA525304F17F74994204F50034EF
:103E70004FEAC0204FEAC22208BF904200F09C8067
:103E80004FEA13650FF24016765D4FEA134506FBC5
:103E900005F7C7F1807706FB07F74FEAD737A7FB8F
:103EA00003687642C8F58038A7FB06CE38BFA8F174
:103EB000010807FB08E64FF0000EA6FB028CE6FBAC
:103EC00003CEDCF1000CCEF1004E38BFAEF1010E96
:103ED000A6FB0C584FF000074FF00005E6FB0E87DD
:103EE000A1FB08C6A0FB07CE16EB0E0645F10005A8
:103EF000E1FB076515F1E04E7EBFA4F580345FEA73
:103F000046066D4116F1800745F100054FEA172777
:103F10004FEA066647EA0567A6F1DE46B6F1805F1E
:103F20004FEA15251FD9384624F0010C05EBC47162
:103F3000BCF1FE6F01EB0C1102D8F0BCBDE80081B2
:103F400024425CBF01F5801E9EEAC47F02D4F0BC0F
:103F5000BDE80081244238D4F0BCA1F1C041BDE8E5
:103F6000004100F01AB94FEAD22242EA43524FEA26
:103F7000D323A7FB02864FEAD02040EA415007FB3B
:103F800003661EEA0E0F4FEAD12105FB026658BFF9
:103F9000A6EB0056B6EB00564FEA520E4EEAC37E31
:103FA00018EB0E0E56EB530EBDD518EB02085E4112
:103FB0007F1C55F10005B6E74FF480154FF0000760
:103FC0004FF000064FF00008ADE7F0BC4FF00000E6
:103FD00001F1C04101F00041BDE8008111EA0C1F70
:103FE0000CEA131500D00CE013EA0C1F00F025803A
:103FF0004FF00000F0BC81EA030101F00041BDE890
:104000000081F0BCBDE8004181EA030100F0C5B8C1
:10401000F0BCBDE8004170B500F071F8097EFC3ECF
:1040200000F007B881EA03014FF0000001F0004101
:10403000704781EA030100F0B0B8F0BCBDE8004170
:104040004FF0000021497047FFFDFBF9F7F5F4F24E
:10405000F0EEEDEBE9E8E6E4E3E1E0DEDDDBDAD823
:10406000D7D5D4D3D1D0CFCDCCCBCAC8C7C6C5C481
:10407000C2C1C0BFBEBDBCBBBAB9B8B7B6B5B4B398
:10408000B2B1B0AFAEADACABAAA9A8A8A7A6A5A483
:10409000A3A3A2A1A09F9F9E9D9C9C9B9A99999847
:1040A0009797969595949393929191908F8F8E8EEA
:1040B0008D8C8C8B8B8A8989888887878685858477
:1040C00084838382828181800000FF070000F87F63
:1040D00010F0004248BF4042B0FA80F310FA03F1FA
:1040E0000AD0C3F11D0303F580634FEA415002EB90
:1040F000035202EBD12170474FF0000070470EF1E0
:10410000020E2EF0030E5EF8046B364205D4012A2F
:1041100043EB030515F5001F12D8012841EB010CF4
:104120001CF5001F0CD80ED14FEAD17C15F5001FED
:104130000CEB4C0C0CF1020C08BF4CEBD37C04E0F4
:104140004FF0080C01E04FEAD37C0CEB4C0526FA4B
:1041500005F606F00706B6F1040C06D20EEB860C47
:10416000BDE870404CF0010C6047DFE80CF0090B33
:1041700002024FF000414FF00000A1F5002170BD98
:1041800019461046012851EB010418BFD4F500145C
:1041900084BF002001F0004170BD0808A0F50011A7
:1041A0004FEA31017047000090EA010F48BF81F0EB
:1041B000004100F18A81421A3CBF801A89184FEAF7
:1041C000D0524FF07F4C1CEA410FA2EBD15318BFE5
:1041D0009CEA026F00F03B804FF0004C4CEA00205C
:1041E0004CEA012121FA03FC10EB0C0C1ED202F167
:1041F000FF325FEA1C2040EBC25038BF70471CF012
:104200007F0F4FEA400C18BFBCF17F4F38BF70479B
:10421000C3F12003994008BF20F00100BCF17F4F9B
:1042200038BF7047A0F1C04000F043B94FEA3C00EE
:10423000000A40EBC25028BF1CF0FF0F4FEA400CB1
:10424000E6D018BFBCF17F4F38BF7047EAE79CEA61
:10425000026F05D010EA5C0F08BF00F00040704705
:1042600010B500F0E0F800BF64FBBE3E4FF47F0CD9
:104270001CEAD0121EBF1CEAD11392EA0C0F93EA7B
:104280000C0F00F0858090EA010F48BF42F4807265
:1042900040F4000C41F400002CF07F4120F07F40FE
:1042A00000B58142A2EB03020FF2081CACEB504EAA
:1042B000C0F100009EF800E04FEA4E0E00FB0EFC3D
:1042C00038BF49004FEA2C1C02F5FA020CFB0EF332
:1042D0004FEACE1E4FEA112C4FEAC1210EEB635E6E
:1042E00042EB22420EFB0CFC4FEA1C5300FB031175
:1042F0004FEA112C4FEA01310EFB0CFC4FEADC4C6B
:1043000000FB0C11C14228BF09184CEB03335DF8C8
:1043100004EB10EB410143EBC250B2F57C0F38BF08
:10432000704729D512F0F00F1CBF00F1C04000F01B
:1043300000407047008182838485868788898B8CC2
:104340008D8E8F919293959697999A9C9D9FA0A2FE
:10435000A3A5A7A8AAACAEB0B2B3B5B7B9BCBEC04E
:10436000C2C5C7C9CCCED1D4D7D9DCDFE2E6E9ECEF
:10437000F0F3F7FAFE0000004FEA400C0CF1807CED
:10438000BCF17E4F28BF7047B0F1C04000F091B83B
:1043900090EA010F0CEAD11348BF42F480726245E3
:1043A00038BF634507D213F47F0F16D080EA0100AF
:1043B00000F00040704710B500F035F8097EFC3E73
:1043C00000F005B880EA010000F00040704780EA84
:1043D000010000F0004000F06CB812F47F0F04BF41
:1043E0000248704780EA010000F063B80000C07F17
:1043F00041000B0ED3F19E0208D950F400034FEA9E
:10440000032323FA02F048BF4042704710B500F082
:104410000AF800BF49922480002070476FF00042E4
:1044200082EA200070470EF1020E2EF0030E5EF8B5
:10443000044B244204D44FEA4102B2F17F4F11D819
:104440004FEA4003B3F17F4F0CD80ED14FEAD07C36
:10445000B2F17F4F0CEB4C0C0CF1020C08BF4CEB93
:10446000D17C04E04FF0080C01E04FEAD17C0CEB6A
:104470004C0324FA03F404F00704B4F1040C06D24C
:104480000EEB840CBDE810404CF0010C6047DFE8F7
:104490000CF0070802024FF00040A0F5800010BDAC
:1044A0000846420018BFD2F1807288BF00F0004079
:1044B00010BDFF2141EAD050C005704790EA010FBE
:1044C00048BF81F000413FF576AE421A04D882F031
:1044D0000042A0EB020011444FEAD0524FF07F4C53
:1044E0001CEA410FA2EBD15318BF9CEA026F4AD0DD
:1044F0004FF0004C4CEA00204CEA012121FA03FC69
:10450000B0EB0C0C0FD412F0FE0F36D05FEA4C006B
:104510001DD5001240EBC25038BF70471CF03F0F52
:1045200018BF70470BE0A2F101025FEA1C2040EBCC
:10453000C25038BF70471CF07F0F18BF7047C3F1DF
:104540002003994014BF401E20F0010070478008EE
:104550004FEA122308BF7047B0FA80FCA2EB0C02AE
:10456000CCF1280C60FA0CF093EA122F04BF00EB98
:10457000C25070474FEAC3707047130A5FEADC10FD
:1045800008BF7047F6E79CEA026F04D010EA5C0FA0
:1045900008BF0020704710B5FFF745FF40DFF63E2B
:1045A00081F000407047FCF7C4BAFCF7F9BB00008B
:1045B0000010014002000000001001400400000053
:1045C00000100140002000000010014000400000E9
:1045D00000100140008000000008014000020000BF
:1045E0000008014000040000001001400004000029
:1045F0000010014000080000000C014000200000F5
:10460000000C014000400000000C01400080000050
:10461000000C014000100000000C014000400000B0
:104620000011FF0A43B1012C2D43B2012C2D43B3DD
:10463000012C2D012C2D43B40743C0A2028443C199
:10464000C543C20A0043C38A2A43C48AEE43C50E47
:10465000433643E00F1A0F182F2820221F1B233741
:104660000007021043E10F1B0F17332C292E3030A7
:10467000393F00070310432A0000007F432B00004E
:10468000009F43F00143F600433A054329432C437E
:1046900042C0A000600000000008014001000000CE
:1046A0000008014002000000000801400400000072
:1046B0000008014008000000000801401000000050
:1046C00000080140200000000008014040000000F8
:1046D0000008014080000000000801404000000088
:1046E00000080140800000000010014002000000AE
:1046F0000010014004000000000000000000000065
:104700003031323334353637383941424344454607
:104710004030580030313233343536373839616201
:104720006364656640307800040000080000000003
:104730000000000200010000103031323334353601
:1047400037383961626364656678700030313233BE
:1047500034353637383941424344454658500000D5
:1047600002400000000000A0000000000540000022
:10477000000000C8000000000C4000000000409C49
:1047800000000000194000000020BCBE0000000036
:1047900034400000BFC91B8E00000004B54000007B
:1047A000504BCFD06607E2CF010000006C41000003
:1047B0003E8251AADFEEA73401000000D94200007A
:1047C000DCB5A0E23A301F97FFFFFFFFB4450000C1
:1047D000FD25A0C8E9A3C14FFFFFFFFFFF3F000079
:1047E0000000008000000000FF3F0000000000808B
:1047F000000000004049000800000020B807000049
:1048000028010008084D0008B8070020900E00009D
:10481000840100081C00000043000000F8FFFFFFB7
:104820000C0000000E0000000F0000002E00000031
:104830001001000043000000F8FFFFFF004040406F
:104840004040404040404141414141404040404063
:10485000404040404040404040404040400502020F
:1048600002020202020202020202020202202020CE
:10487000202020202020200202020202020290902A
:104880009090909010101010101010101010101028
:10489000101010101010101002020202020288887C
:1048A0008888888808080808080808080808080888
:1048B0000808080808080808020202024000000070
:1048C00000000000000000000000000000000000E8
:1048D00000000000000000000000000000000000D8
:1048E00000000000000000000000000000000000C8
:1048F00000000000000000000000000000000000B8
:1049000000000000000000000000000000000000A7
:104910000000000000000000000000000000000097
:104920000000000000000000000000000000000087
:104930000000000000000000000000000000000077
:104940001184A24A04C009010203040607080913DE
:10495000C045C208DAC810DAD010111D380140D89D
:1049600014EAE01812481B40E8149AF01812101AC2
:104970001430112B40F81412461B080804011E10B5
:1049800008183C3C3C181818190341E56666662473
:104990003D6C6CFE6C04392E580B187CC6C2C07C72
:1049A0000686C67C31215809C2C60C183060C686FE
:1049B000AD500A6C6C3876DCCCCCCC76D53030304F
:1049C00060192C390163180C19093901931830AE9C
:1049D000663CFF3C66A37B187E6D89149931110AF1
:1049E00011FED879322B0206A063C080580B7CC61A
:1049F000C6CED6D6E6C6C67C281B38784C19016AC6
:104A00007E20492F5AC65419106E063C0606063001
:104A10001F0C1C3C6CCCFEB15A1E7B8EC0C0C0FC6F
:104A20000E201B3860101AC60159101AFE4049F4B6
:104A300079802AC6046920290C1A7E60BB0C78BADA
:104A400099F1591069EF399FA530180C0619AB5927
:104A5000AE31391C292479601A0CDE895119115E96
:104A6000DEDEDEDCC0802F10386CC6C6FE91611E13
:104A7000FC6666667C046366FC1C3C66C2E265C03C
:104A8000C2663C2BF86C1D5D66666CF87C58096646
:104A9000626878686062668259109C6060F0406667
:104AA000DEC6C6663A296A396F59701A3C9D3901CB
:104AB00059602B1E0C0165CCCCCC781FE6666C6C63
:104AC00078787562E61AF05B190179709EC6EEFE81
:104AD000FED6508FC6E6F6FEDECE1029DF29019BFA
:104AE0006C38E0294259A04A7C1F7ED6DE7C0C0E31
:104AF0002029E459701920600860380C06C6C67C6D
:104B0000BC7E7E5AB0493F19015920590E9C6C3821
:104B100010106ED6D6FE6C6C101E6C6C38386C960D
:104B200061196A9B663C50580AFEC6860C183060B4
:104B3000C2C6E05B3C3001592011580A80C0E070C9
:104B4000381C0E0602205A0C0139201A10EF0119E8
:104B500022FF04123030186008780C7CCCCCCC7664
:104B60002EE06060786C9592DC6E7CC6C0C0C0E0C0
:104B70001A1C6A1A6C2F693039208AFE201F386C83
:104B80006460F0600192F02A762F4ECC7C0CCC78D9
:104B9000602B6C766062E61318181A38FE5B1818E2
:104BA000E01306063B0E06012B66661319301C66E1
:104BB0006C78935930492D8930312CECFED6019117
:104BC0002ADC5F9B6666A0290159A079207A7CA324
:104BD00069A05B0C1E20BB7662C06E7CC660380C80
:104BE000401E103030FC300193361C393F93CC7698
:104BF000395F933C18197D8DD6D6FE6C10AF6C389A
:104C000038386CC6201901657E060CF86008FECCA9
:104C1000183060C6FE1A0EEB2A70F0620E290B39AE
:104C2000055960291C29245B1870CDC2DCCAFF011C
:104C300001161211101E124617201814192F1A1ED1
:104C4000320429142C1E2A04427F4D0963E064FFBC
:104C50006520661267101413F00D810FC514212210
:104C6000FF23012434253C26A12B101E6BAA13FF21
:104C7000695D900A910192019301945F9553961199
:104C8000971A983D995A9A1E9B10329C25A765A8A1
:104C9000659E81A6067E0C7F16802A814E826183E6
:104CA0006F847B8586868E879788A489AF8AC58B1B
:104CB000D78CE88D20A980AA80ACFF3316229923D7
:104CC000034A100E491347084B144C1746050CD0E5
:104CD0000E824D13984633080F2AA00822012AA8F5
:104CE0000822022AB00822032AB80822042AC0088F
:104CF00022052AC80822062AD00872077A10F05125
:084D00001AE01C1AD80481001E
:04000005080000ED02
:00000001FF
