:020000040800F2
:1000000090160020750200087D0200087F0200089B
:100010008102000883020008850200080000000039
:10002000000000000000000000000000870200083F
:1000300089020008000000008B02000879260008F1
:100040008F0200088F0200088F0200088F0200084C
:100050008F0200088F0200088F0200088F0200083C
:100060008F0200088F0200088F020008011C0008A0
:100070008F0200088F0200088F0200088F0200081C
:100080008F0200088F020008391B00088F02000849
:100090008F0200088F0200088F020008411D00082F
:1000A0008F0200088F0200088F0200088F020008EC
:1000B0008F0200088F0200088F0200088F020008DC
:1000C0008F0200088F0200088F0200088F020008CC
:1000D00099240008C12A00088F020008D12A0008CC
:1000E000CD1C00088F0200088F02000800F002F803
:1000F00000F0B0F80AA090E8000C82448344AAF112
:100100000107DA4501D100F0A5F8AFF2090EBAE80F
:100110000F0013F0010F18BFFB1A43F0010318473B
:10012000A0420000C04200000A444FF0000C10F84A
:10013000013B13F0070408BF10F8014B1D1108BF65
:1001400010F8015B641E05D010F8016B641E01F805
:10015000016BF9D113F0080F1EBF10F8014BAD1C55
:100160000C1B09D16D1E58BF01F801CBFAD505E073
:1001700014F8016B01F8016B6D1EF9D59142D6D3CD
:10018000704700000023002400250026103A28BFF5
:1001900078C1FBD8520728BF30C148BF0B607047F9
:1001A0006E2900F03B81702900F07D82662903F002
:1001B0004387652903F04087672903F03D8761295C
:1001C00003F03C8703681B0A28BF41F080016929BE
:1001D00000F0E880642900F0E580752900F0E280F5
:1001E0006F2900F00A82782900F04982E92900F09D
:1001F000A581E42900F0A281F52900F09F81EF2973
:1002000000F00782F82900F048820368DB0928BF64
:1002100041F08001632900F04B87732900F050877B
:10022000E32900F05B87F32900F060870020704726
:100230001FB500F0ADFF04000020002103F0E6FE32
:10024000401C60600020002103F0CAFEE0601FBD7A
:1002500010B510BD00F06EFF1146FFF7E9FF02F088
:1002600065FE01F04BF803B4FFF7F2FF03BC01F0A9
:1002700093F800000948804709480047FEE7FEE779
:10028000FEE7FEE7FEE7FEE7FEE7FEE7FEE7FEE746
:1002900004480549054A064B70470000A12600089E
:1002A000ED00000890100020901600209012002011
:1002B000901200201CB50C46064B7B44694600900A
:1002C000204600F0C4F804460020694600F0D2F849
:1002D00020461CBDB701000070477047704770B5DD
:1002E000044685690068C10601D5302600E0202655
:1002F000C00707D070BDD4E9012130469047206A7D
:10030000401C20626D1EF6D570BD70B5044685692F
:100310000078C00707D170BDD4E9012120209047A3
:10032000206A401C20626D1EF6D570BD09684A0522
:1003300001D540B27047C905FCD500B270470968C5
:100340004A0501D5C0B27047C905FCD580B27047D7
:1003500070B50C460546012A05D02878800600D5E0
:10036000EA69002302E0012305E05B1C934202D20C
:10037000E05C0028F9D1A869E618C01AA861286ACB
:10038000184428622846FFF7AAFF04E0D5E90121B6
:1003900014F8010B9047B442F8D32846FFF7B5FF95
:1003A00070BD00002DE9F041064600241068752953
:1003B000314616A510D0FFF7B9FF002802DA4042F7
:1003C00013A507E031688A0701D512A502E04907A5
:1003D00004D511A5012401E0FFF7B1FF00210A2295
:1003E00006F1240709E0B0FBF2FCB0FBF2F302FBDC
:1003F0001C00303078541846491C0028F3D123469D
:100400002A463046BDE8F04100F061BA0000000025
:100410002D0000002B000000200000001168026881
:10042000006A530501D508700AE0D30501D508809C
:1004300006E0130603D5C217C1E9000200E0086018
:100440000120704701694A1C02610878704700B5B5
:100450008FB0CDE901310021059105497944CDE9FD
:1004600003101146684600F029F90FB000BD0000E6
:10047000E5FFFFFF0A6802F8010B0A607047000001
:100480002DE9FF5F15468A460446DFF8AC80F84444
:100490000027D8E900103E46CDE9001010E03AF8F8
:1004A00016106A4602A800F025FE411C07D02178EC
:1004B000890603D5E269391891420DD80744761CA4
:1004C0002078800602D5E069B84205DDAE42E6DB61
:1004D0003AF816000028E2D1A069C01BA0612046AE
:1004E000FFF7FDFED8E90010CDE90010002017E06D
:1004F0003AF818106A4602A800F0FCFDB0F1FF3F80
:1005000081460BD000250DF1080B05E0D4E901214F
:100510001BF8050090476D1C4D45F7D308F101000D
:10052000B0428046E4DB206A384420622046FFF770
:10053000ECFEBDE8FF9F0000323E00002DE9F041D7
:100540008046D21D22F007020025D2E90002F529DB
:1005500015A614D0011E72F1000106DA0023D0EBBB
:10056000030063EB020211A608E0D8F800108B0725
:1005700001D50FA602E0490701D50EA601251146B7
:10058000002408F1240704E000F05CF930323A5509
:10059000641C50EA0102F7D12B4632462146404600
:1005A000BDE8F04100F093B9000000002D0000000C
:1005B0002B0000002000000030B4002100F12404D2
:1005C00008E002F00705D208303542EA4372DB0842
:1005D0006554491C52EA0305F3D10468002310A2B4
:1005E000250707D5A40600D421B1C46901230DA2B3
:1005F000641EC46130BC00F06AB910B504462146DF
:100600001068FFF79CFE02462046BDE8104000231C
:10061000D2E7D21D22F00701D1E90023CCE7000088
:100620000000000030000000F0B40D46018809050C
:1006300002D5214C7C4402E01F4C7C440E34002146
:1006400000F1240608E002F00F071209E75D42EA14
:1006500003721B097754491C52EA0307F3D102784D
:100660000023120704D5702D06D009B102231134DE
:100670002246F0BC00F02BB901231034F8E770B526
:1006800004460D4621461068FFF759FE02462946EA
:100690002046BDE870400023C6E7D21D22F00703C4
:1006A000D3E90023C0E70368126843F02003036026
:1006B0000823C3610023B7E7943C00002DE9F05FF5
:1006C000894604464FF0000ADFF874B1FB44C0F8D5
:1006D00020A02046E1688847002874D0252806D04D
:1006E000D4E901219047206A401C2062F1E70026EE
:1006F0005F462046E16888472028054607DB312D04
:1007000005D2781910F8200C08B10643F1E7B007BC
:1007100001D526F00406C4F81CA00027C4F818A0D0
:100720002A2D09D0284602F00BFB38B304EB8708CA
:10073000303DC8F8185019E059F8041B204604EB66
:1007400087029161E1688847012F054618D1E06969
:10075000002820DA26F020061DE0D8F8180000EB6B
:10076000800005EB40003038C8F818002046E168EA
:100770008847054602F0E4FA0028EED1012F0AD09E
:100780002E2D08D12046E16888477F1C0546022FA0
:1007900046F02006C4DBA069002803DA404246F098
:1007A0000106A061F00701D026F010066C2D0BD0D9
:1007B000682D09D04C2D39D06A2D35D0742D35D007
:1007C0007A2D33D016E038E0E1682F46204688477E
:1007D000B842054609D16C2F26D04FF48060E168FD
:1007E000064320468847054604E06C2F1AD04FF494
:1007F000807006430DB3A5F14100192802D82035B9
:1008000046F400664A462946204626604E46FFF7D3
:10081000C7FC80B101280BD0F61D26F0070000F1BF
:10082000080956E74020E4E78020D8E70020D6E713
:1008300006F104094DE7284652E7206ABDE8F09F1B
:10084000243C000030B5B0F10A024FEA900E71F17D
:1008500000034EEA817EB0EB0E0061EB91014FEA9E
:10086000101E4EEA017E10EB0E0041EB11114FEA13
:10087000102E4EEA016E10EB0E0041EB11214FEAF3
:10088000104E4EEA014E10EB0E0041EB11414018A4
:1008900041F100014FEAD00040EA41704FEAD10136
:1008A00010EB80054FEA810444EA907444EB0104A4
:1008B0006D1944EB0404521BA3414FF0000348BFE1
:1008C0000A3200D530BD401C41F1000130BD2DE998
:1008D000F0470D4699469246044600F12408016807
:1008E000880604D5E06921F01001216000E00120B4
:1008F000A84201DD471B00E00027A1697A1902EB3D
:100900000900081AA0612078C00602D42046FFF72B
:10091000E6FC002608E0D4E901211AF80600904719
:10092000206A401C761C20624E45F4DB2078C0060D
:100930000AD52046FFF7D3FC06E0D4E90121302098
:100940009047206A401C2062381EA7F10107F4DCA2
:1009500007E0D4E9012118F805009047206A401CFF
:100960002062281EA5F10105F3DC2046FFF7CDFC2F
:100970002078000602D50220BDE8F0870120FBE7C1
:1009800070472DE9FF4F0C461E464FF0FF378BB0E6
:10099000D2E90001DDF860800A908A46C1F30A5569
:1009A00005B93D46002108464FF00000BAF1000F9E
:1009B00000F4400005DA00EB80004FF4400101EA4A
:1009C00050004FEA9059B9F1010F00DDB9460A987D
:1009D00050EA4A000ED044F61050A5F2FF354543C8
:1009E0002F14B8F1000F1ED07542291E1EDDC9F16B
:1009F00000021CE0B8F1010F4FF0000001D03021DF
:100A000003E0F24305E02154401CB042FBDB3046DA
:100A10000022002121540B99C1F80880C1E900206F
:100A20000FB0BDE8F08FBD1B6D1CDEE74A4600DA53
:100A3000694206A800F0F0FB06AB93E8070003ABA1
:100A400083E8070050460A9900F0ADFC8DE80700E6
:100A5000A0F500501F3800900398002D0ADD42F2E7
:100A60001F014A460844002303A90390684600F08A
:100A700016FF09E0A0F500504A461F38002303A9DD
:100A80000390684600F020FF8DE807000004000C8A
:100A900003D04FF0FF30410800E01046B8F1000FDE
:100AA00003D00022009215461EE0751E05D4FFF704
:100AB000C9FE303262556D1EF9D5B3460122084396
:100AC00002D000227F1C04E02078302801D10022CF
:100AD0007F1E002A099784D01DE0112D07DAFFF749
:100AE000B1FE303262556D1C50EA0102F5D1084367
:100AF00002D00098C8B10EE00021681E05E0235C1A
:100B0000625C63542254401E491C8142F7DBAB46B1
:100B1000A81B401E0990002004F80B000B98099AAE
:100B2000C0F80880C0E9002B7AE711264FF00008D2
:100B300057E72DE9F04F88460446D21D22F0070101
:100B400091B0D1E90001CDE90A0102F0B6F8024600
:100B50000B98C00F01D02D2007E02068810701D538
:100B60002B2002E0202101EAC000032A099001D0D5
:100B7000072A05DB03464146204600F00DFB0BE14A
:100B80002078800601D5E06900E00620B8F1650F05
:100B9000814606D0B8F1660F18D0B8F1670F70D152
:100BA00031E00020B9F1110F009001DB112301E0C9
:100BB00009F101030AAA01A90CA8FFF7E2FEDDE989
:100BC0000C70002609F10105834647E001204B46E1
:100BD00000904FF000470AAA01A90CA8FFF7D1FE28
:100BE000DDE90DB00C995D46002610B909F1010050
:100BF0000D18B9EB050003D4C0F1FF3609F101056A
:100C0000A5EB09002BE0B9F1010F01DA4FF0010962
:100C10000020B9F1110F0090484601DD112300E0DA
:100C200003460AAA01A90CA8FFF7ABFEDDE90C7088
:100C30004D4600268346207800070AD4AB4500DAEB
:100C40005D4601A8012D04DD411911F8011C302970
:100C500007D04F4502DA17F1040F04DA012082466B
:100C60000FE06D1EEEE7002F02DCED1B3E4403E0BB
:100C7000781CA84200DD7D1CB81B00F1010A4FF072
:100C800000472078000703D4AA4501DB4FF0FF3A64
:100C90000021B7F1004F0DF143088DF8431024D027
:100CA00002202B23002F01DA7F422D230A21021E6E
:100CB000A0F1010000DC5FB197FBF1FC97FBF1F2C2
:100CC00001FB1C7C17460CF1300C08F801CDEEE757
:100CD000A8F1010003702188090501D5452100E034
:100CE0006521A0F1010800F8011C09980FA9A1EBEA
:100CF0000807FF1D00B10120411901EBEA70A1694D
:100D00003844081A401EA0612078C00602D420464C
:100D1000FFF7E5FA099828B1D4E901219047206A44
:100D2000401C20622078C00622D52046FFF7D7FA63
:100D30001EE0002E04DBB34502DD01A8805D00E06B
:100D40003020D4E901219047206A401C2062761CA3
:100D5000AAF101005FEA000A0AD100F019FAC0689E
:100D60000168405CD4E901219047206A401C206260
:100D7000281EA5F10105DCDC07E0D4E9012118F803
:100D8000010B9047206A401C2062381EA7F1010722
:100D9000F3DC2046FFF7B9FA032011B041E600006A
:100DA0002DE9F04F04460D46D21D22F0070089B010
:100DB000D0E900974846394601F07FFF0246F80F18
:100DC00001D02D2307E02068810701D52B2302E005
:100DD000202101EAC0038DF820300BB1012000E092
:100DE0000020032A824601D0072A04DB2946204638
:100DF00000F0D2F93FE12078800601D40D2500E013
:100E0000E569C7F30A560D2D49DA00214FEA175B51
:100E100008464FF00000002F00F4400007DA00EB16
:100E200080004FF4400100EBD07001EA60008115B2
:100E3000012901DD4FF0FF3100224FEA850CBCF1A2
:100E4000180F06D31346ACF118004FF08052C24081
:100E500003E04FF4801323FA0CF30CF10C0CBCF1FB
:100E6000200F04D3ACF1200C09FA0CF001E007FAD2
:100E70000CF000294FF0004801DD18B90FE00ED149
:100E800040450CD319EB02095F4121B9404502D11D
:100E90009F4329EA0209BBEB175F00D0761C20882C
:100EA000000502D57B48784402E07A487844193836
:100EB00008AA302302F80A30037C0AF10101002E4F
:100EC0000AF1020A53546A4602DC4FF0300101E095
:100ED0004FF031014FF001088DF8001002D0A6F25A
:100EE000FF3603E059EA470100D06B4E002D02DCCB
:100EF0002178090704D54FF002082E218DF8011042
:100F0000C44600210BE0C7F303433F01C35C491C07
:100F10006D1E02F80830052908F1010801DA002DDC
:100F2000F1DC00210CE000EB1973491C1B786D1EED
:100F3000082902F808304FEA091908F1010801DA16
:100F4000002DF0DC21688B0602D516E0A8F101081F
:100F5000E04505DD02EB080313F8013C302BF5D02A
:100F6000B8F1000F09DD02EB080313F8013C2E2B4A
:100F700003D1090701D4A8F10108002D05DD3E21A8
:100F800002F808106D1E08F10108407C002E02F8DE
:100F9000080008F1010804DA2D20764202F8080062
:100FA00002E02B2002F808000A214FF47A708642F2
:100FB00008F101080BDB96FBF0F3303302F8083040
:100FC00096FBF0F308F1010800FB136601E0642EC4
:100FD0000CDB642096FBF0F3303302F8083096FB0C
:100FE000F0F308F1010800FB136601E00A2E06DBAE
:100FF00096FBF1F0303002F8080008F1010896FB8A
:10100000F1F001FB1060303002F80800A16908F12E
:10101000010808EB050202EB0A00081AA06120781B
:10102000C00602D42046FFF75AF9216A08AE01EB48
:101030000A00206204E0D4E9012116F8010B904770
:10104000BAF1010AF7D22078C00602D52046FFF790
:1010500046F96E4609E016F8010B3E280FD0D4E998
:1010600001219047206A401C2062B8F10108F2D2A9
:101070002046FFF74AF909B00320BDE8F08F206A47
:101080002844206203E0D4E90121302090476D1EFE
:10109000EBD3F8E76E34000002FCFFFF10B54369A4
:1010A00013B1AFF3008001E0FFF752F9012010BD4A
:1010B000127800F124010A7000224A700122EDE743
:1010C00011684FF0FF32E9E710B5436913B1AFF390
:1010D000008001E0FFF7D4F9012010BD128800F173
:1010E000240182840022C2840122EDE711684FF0BE
:1010F000FF32E9E770B516460C46054600F040F8A9
:10110000036893F80101012806D0FF2C0FD8185D61
:1011100068B101202C7070BDD3F80701324621461A
:1011200003F2071303442846BDE8704018474FF008
:10113000FF3070BD754600F0EBF8AE46050069461D
:10114000534620F00700854618B020B5FFF7A0F8F9
:10115000BDE820404FF000064FF000074FF00008B8
:101160004FF0000B21F00701AC46ACE8C009ACE839
:10117000C009ACE8C009ACE8C0098D467047000062
:1011800010B500F005F8001D10BD00BF812E000055
:10119000004870474C1000202DE9F0411F460446DE
:1011A00003260168072A01F4006004DB08B116A5D4
:1011B00005E016A503E008B115A500E015A521F08E
:1011C00010002060A069C01EA0610FB1401EA06188
:1011D0002046FFF784F84FB1D4E901213846904703
:1011E000206A401C2062C01C206206E0206AFAE7E8
:1011F000D4E9012115F8010B9047761EF8D220465C
:10120000FFF783F8BDE8F0814E414E006E616E003D
:10121000494E4600696E66002DE9F0478146164644
:101220008AB0354878440DC88DE80D0032487844BE
:10123000801C03AC0DC884E80D0041F69B300844C7
:10124000372190FBF1F290FBF1F5A5F1800501FB50
:1012500012041B3C02D56442012000E00020DFF8AC
:1012600098A080460027FA44AAF1BE0A0EE0E007E3
:101270000AD03246684607EB470101230AEB810199
:1012800000F022FB8DE8070064107F1C002CEED1DB
:10129000194F7F44AE3F19E0E80715D007EB041063
:1012A0000DF1180A90E80E008AE80E00C068F042BE
:1012B00001D1981908903246012306A903A800F02D
:1012C00003FB03AB83E807006D10641C002DE3D122
:1012D0004FF0010332466946B8F1000F03A802D06F
:1012E00000F0DDFA01E000F0EFFAC9E90001C9F809
:1012F00008200AB0BDE8F0878031000010B5044630
:10130000AFF300802046BDE81040FEF7ACBF000000
:10131000004870472C1000204FF0013C50F8042B7F
:1013200051F8043B9A4221D1A2EB0C03934313EAF8
:10133000CC1317D150F8042B51F8043B9A4215D125
:10134000A2EB0C03934313EACC130BD150F8042BFC
:1013500051F8043B9A4209D1A2EB0C03934313EAE0
:10136000CC13DBD04FF00000704700BFD01A01BA99
:10137000B1FA81F101F0180122FA01F0CB40C1F17C
:101380002001DBB2C0B2C01A2CFA01F3D11A91438A
:1013900011EAC311E6D1704701491820ABBEFEE740
:1013A0002600020070475FEA400C08BF91F0000F72
:1013B0004FEA8C234FEAC12243EA51514FEA1C50B5
:1013C00018BF00F5F0404FEA300018BF41F000416F
:1013D0005FEA6C5C00F02980BCF1FF3F08BF40F081
:1013E00080407047130C06BF12044FF0100C4FF0F2
:1013F000000C130E04BF12020CF1080C130F04BFF3
:1014000012010CF1040C930F04BF92000CF1020CBA
:10141000D30F04BF52000CF1010C11464FF0000233
:10142000A0F11F00A0EB0C00704711F0004F08BFA7
:10143000704731F000413FF4D5AF0B0C06BF0904F3
:101440004FF0100C4FF0000C0B0E04BF09020CF112
:10145000080C0B0F04BF09010CF1040C8B0F04BF27
:1014600089000CF1020CCB0F04BF49000CF1010CF8
:10147000CCF12003A0EB0C0022FA03F302FA0CF2E9
:1014800041EA030100F10100704720F07F4C80EA3F
:10149000030023F07F47ACEB070303F57C5300F018
:1014A000004003F1FF032DE980494FEA154B09B4D1
:1014B0004FEA144325EA0B4E24EA03480FF20426B0
:1014C00006EB132749083E785FEA320203FB066702
:1014D000C7F5000707FB06F64FEA54374FEAD64632
:1014E00006F1020607FB066CCCF1005C4FEA1C47D4
:1014F0002CEA074C07FB06F40CFB06F504EB15463B
:101500004FEA961634BF00204FF000404FEAD13723
:1015100006FB07FC4FEA1C4C0CFB0BF7D21B03FB32
:101520000CF761EB07010CFB0EF7B0EB074072EB19
:1015300017420CFB08F734BFA2EB0742B2EB07429D
:1015400061EB17414FEA0C444FEA910706FB07FC99
:101550004FEA1C4C0CFB0BF7B0EBC74072EB573259
:1015600003FB0CF734BFA2EBC742B2EBC74261EBFF
:1015700057310CFB0EF7B0EBC70072EB57720CFB48
:1015800008F734BFA2EBC702B2EBC70261EB577199
:10159000039F4FEA816141EA921104EBCC044FEAC8
:1015A000D1374FEA826206FB07FC42EA90124FEA0B
:1015B00080604FEA1C4C0CFB0BF7D21B03FB0CF7B3
:1015C00061EB07010CFB0EF7B0EB074072EB174223
:1015D0000CFB08F734BFA2EB0742B2EB074261EB0A
:1015E00017414FEA8C554FEA910704EB9C2406FB08
:1015F00007FC4FEA1C4C0CFB0BF7B0EBC74072EB3F
:10160000573203FB0CF734BFA2EBC742B2EBC74221
:1016100061EB57310CFB0EF7B0EBC70072EB577262
:101620000CFB08F734BFA2EBC702B2EBC70261EBB9
:10163000577115EB4C254FEA816141EA92114FEA4F
:1016400082624FEAD13742EA901206FB07FC44F16E
:1016500000044FEA80604FEA1C4C0CFB0BF7D21BD6
:1016600003FB0CF761EB07010CFB0EF7B0EB074037
:1016700072EB17420CFB08F734BFA2EB0742B2EB48
:10168000074261EB174115EB1C154FEA813141EA26
:1016900092414FEA823242EA90424FEA80304FEA6A
:1016A0000C7644F1000448EA03434EEA0B484FF03D
:1016B000000EB2EB080C71EB030724BF62463946FB
:1016C0004EEB0E0E4FF0000B0018524149414BEB10
:1016D0000B0BB2EB080C71EB03077BF1000B24BF83
:1016E000624639464EEB0E0E4FF0000B0018524189
:1016F00049414BEB0B0BB2EB080C71EB03077BF191
:10170000000B24BF624639464EEB0E0E51EA02072B
:1017100018BF46F0010616EB0E7655F1000254F1A3
:10172000000103D5BDE88901BDE80088BDE8890155
:10173000BDE80048B619524141EB0101A3F1010394
:10174000704780807F7E7D7C7B7A7978777676752E
:101750007473727171706F6E6E6D6C6C6B6A6A69A6
:101760006868676666656464636362616160605F40
:101770005F5E5E5D5D5C5C5B5B5A5A5959585857B9
:101780005756565555555454535352525251515021
:1017900050504F4F4F4E4E4D4D4D4C4C4C4B4B4B74
:1017A0004A4A4A49494948484847474747464646BA
:1017B00045454544444444434343434242424241F5
:1017C0004141002B9C4630D477002BD01CB54FEA0A
:1017D000370703B44FF010004FF01001BAF1000FBB
:1017E00006D0BCF1000FDCBF40F0080040F008015B
:1017F0004FF000000FBCBDE810400BF1010BBBF136
:10180000010F08BF5FEA170722BF12F1010211F1B1
:1018100001014FF0004143F1000300F0004043EAB2
:1018200000007047F9D35708D0E746EA064613F19F
:10183000400F4FEA16461FDD13F1200FDFBF16439E
:101840000A46002120335B42BED0C3F1200746EA9E
:10185000064602FA07F74FEA164646EA0706C3F1BC
:10186000200722FA03F201FA07F721FA03F14FF0F9
:10187000000342EA0702A7E746EA020646EA0646EE
:101880004FEA164646EA0106BCBF46EA0646360C53
:101890004FF000034FF000024FF0000194E72DE9F4
:1018A000804C9A46934670B491E8380007C831EAF4
:1018B000400C48BF34EA430C03D5FFF7E6FDFFF7C1
:1018C00080FFF0BCBDE8008C2DE9804C9A46934621
:1018D00070B491E8380007C810F0804F08BF13F0CB
:1018E000804F03D100F005F8FFF76BFFF0BCBDE8B7
:1018F000008C20F07F4780EA030023F07F4C07EB49
:101900000C03A3F57C5300F00040A3F1FE0392F01A
:10191000000F00F0B38095F0000F00F077802DE904
:1019200001494FEA11404FEA144621EA004800FB02
:1019300006FC24EA064708FB06F607FB08F800FB4E
:1019400007F718EB06484CEB164C4FEA124B18EB16
:1019500007484FEA15464CEB174022EA0B4E0BFBAB
:1019600006FC25EA06470EFB06F607FB0EFE0BFB00
:1019700007F71EEB064E4CEB164C4FF000061EEB25
:10198000074E4CEB174B18EB0B0840F1000018EB1F
:101990000E0B58EB000840F100008F1A4FF00001C9
:1019A0003CBFC943661B14BFB5EB040C00213CBF10
:1019B000C943F61B4FEA17444EEA8E0E27EA044548
:1019C0004FEA1C4704FB07622CEA074C05FB07F7AC
:1019D0000CFB05F604FB0CFC16EB074642EB17422A
:1019E00016EB0C4642EB1C421BEB060658EB0202C0
:1019F000414146EA9E0601D5BDE80189B61952412A
:101A000041EB0101A3F10103BDE801894FEA14454F
:101A10004FEA114724EA054621EA074C05FB07F483
:101A200006FB07F70CFB06F105FB0CFC11EB07416D
:101A300044EB17444FEA124711EB0C4144EB1C44B2
:101A400022EA074C05FB07F206FB07F70CFB06F63C
:101A500005FB0CFC16EB074642EB174216EB0C4657
:101A600042EB1C456A1854F1000148BF7047B61993
:101A7000524141EB0101A3F10103704795F0000FC2
:101A800037D04FEA11424FEA144721EA024624EACE
:101A9000074C02FB07F106FB07F70CFB06F402FB01
:101AA0000CFC14EB074441EB17414FEA154714EBCC
:101AB0000C4441EB1C4125EA074C02FB07F506FBF1
:101AC00007F70CFB06F602FB0CFC16EB074645EB92
:101AD000174516EB0C4645EB1C42121951F100015B
:101AE00048BF7047B619524141EB0101A3F1010310
:101AF00070474FEA14454FEA114724EA054621EAA8
:101B0000074C05FB07F106FB07F70CFB06F24FF04D
:101B1000000605FB0CFC12EB074241EB174112EBF0
:101B20000C4251EB1C4148BF7047921841EB010138
:101B3000A3F101037047000010B54FF408710B4882
:101B400000F023F888B1094800F01BF80849094A59
:101B5000127821F8120007480078401C05490870E7
:101B60004FF40871014800F007F810BD002401404F
:101B7000CC0F0020B807002000220A12D3430360D4
:101B800070470146C86C80B2704770B502460020AD
:101B9000002300240B125568CEB205EA060415682E
:101BA0001D4015B10CB1012000E0002070BD000007
:101BB00010B101281ED10EE00F49096801F59661A8
:101BC00041F27072914205DC0B49096801F596619A
:101BD000094A11600EE00949096801F5966141F270
:101BE0007072914205DC0549096801F59661034A66
:101BF000116000BF00BF7047C0070020C40700206D
:101C000010B5022000F01AF838B104480078401CE2
:101C100002490870022000F003F810BDB807002048
:101C200000F0805111B10349086001E002494860A9
:101C300070470000040402400000024001460020FA
:101C4000002201F0805313B1054B1A6801E0054BE7
:101C50001A6802EA01030BB1012000E0002070477E
:101C60000004024000000240704770470F480078AF
:101C700088B904200E49086080020E4908600120DE
:101C80000A49087000030B49091F0860042008492D
:101C9000091F086009E005480078012805D1000304
:101CA000044908600220014908707047610700205C
:101CB000141401401408014010B5002001F012F87E
:101CC00010BD10B5012001F00DF810BD10B516487B
:101CD000006800F4805028B1FFF7C8FF4FF480502F
:101CE00000F07EF81048006800F4005028B1FFF7BB
:101CF000E3FF4FF4005000F073F80B48006800F465
:101D0000804028B1FFF7DDFF4FF4804000F068F815
:101D10000548006800F4004028B100F007F84FF4CF
:101D2000004000F05DF810BD1404014010B5022021
:101D300000F0D8FF10BD7047704770477047000033
:101D400010B52548006800F0200020B1FFF7F3FF30
:101D5000202000F045F82048006800F0400020B145
:101D6000FFF7EAFF402000F03BF81B48006800F056
:101D7000800020B1FFF7E1FF802000F031F8164825
:101D8000006800F4807028B1FFF7D8FF4FF480702E
:101D900000F026F81048006800F4007028B100F048
:101DA0001DF84FF4007000F01BF80B48006800F4B9
:101DB000806028B1FFF758FF4FF4806000F010F802
:101DC0000548006800F4006028B1FFF74EFF4FF4AB
:101DD000006000F005F810BD1404014070470000D9
:101DE0000149086070470000140401402DE9F041EA
:101DF000024600250026002000230024002791F839
:101E000003C00CF00F0591F803C00CF0100CBCF1EE
:101E1000000F03D091F802C04CEA050591F800C00C
:101E2000BCF1000F31D0146800202BE04FF0010C02
:101E30000CFA00F3B1F800C00CEA03069E4220D170
:101E400083004FF00F0C0CFA03F7BC4305FA03FCB8
:101E50004CEA040491F803C0BCF1280F06D14FF0FE
:101E6000010C0CFA00FCC2F814C00AE091F803C09F
:101E7000BCF1480F05D14FF0010C0CFA00FCC2F880
:101E800010C0401C0828D1D31460B1F800C0BCF1C8
:101E9000FF0F34DD546800202EE000F1080C4FF0F5
:101EA000010808FA0CF3B1F800C00CEA03069E42E0
:101EB00021D183004FF00F0C0CFA03F7BC4305FA55
:101EC00003FC4CEA040491F803C0BCF1280F05D1CF
:101ED00000F1080C08FA0CF8C2F8148091F803C05D
:101EE000BCF1480F07D100F1080C4FF0010808FAC7
:101EF0000CF8C2F81080401C0828CED35460BDE80E
:101F0000F0810000F0B50A460023002400210025DE
:101F100000F00046B6F1004F02D11D4EF16901E01C
:101F20001B4E7168C0F3034583B200F44016B6F54A
:101F3000401F08D121F07061154E766826F070665A
:101F4000134F7E6012E000F48016B6F5801F06D1B4
:101F5000032606FA05F4A14341F0706106E0460D40
:101F6000360103FA06F6B14341F0706122B1460D25
:101F7000360103FA06F6314300F00046B6F1004F91
:101F800002D1034EF16101E0014E7160F0BD00002D
:101F9000000001400246002093680B400BB1012075
:101FA00000E0002070474161704701617047000008
:101FB00000F00CFF04469BE000BF00F007FFA042CA
:101FC000FBD000F003FF04464A480078732832D063
:101FD00008DC61281ED064283BD06C2847D07228CA
:101FE0007AD15EE0772804D078284DD0792873D153
:101FF00064E0414800F075FF012000F0FDF800208A
:102000003C4908703D4843683DA10268454801F0DD
:10201000C7FF6CE0384800F05BFF022000F0ECF8EE
:102020003648436840A102683E4801F0B9FF0020ED
:10203000304908705BE0002000F0DEF82F4843686C
:1020400041A10268374801F0ABFF00202949087020
:102050004DE0032000F0D0F82848436842A1026810
:10206000304801F09DFF0020224908703FE0002029
:10207000FFF79EFD444845A102682A4801F090FF01
:1020800000201C49087032E0002000F01FF93E4893
:1020900043A10268234801F083FF0020154908701E
:1020A00025E00120FFF784FD424843A102681D4856
:1020B00001F076FF00200F49087018E0012000F0C1
:1020C00005F93C4842A10268164801F069FF00206A
:1020D000084908700BE0FFE70648007830B142A1DC
:1020E000104801F05DFF00200249087000BF00BFEA
:1020F00062E70000BC070020AC420008EC070020AB
:10210000666F727761726420636F6F7264696E616B
:10211000746520783D20256420793D202564200ABF
:10212000000000007C000020206C65667420636F56
:102130006F7264696E61746520783D202564207932
:102140003D202564200A00006261636B20636F6F8D
:102150007264696E61746520783D20256420793D44
:10216000202564200A000000726967687420636F8C
:102170006F7264696E61746520783D2025642079F2
:102180003D202564200A0000C0070020616464200F
:102190006C65667420706F7765723D2025640A0057
:1021A000737562206C65667420706F7765723D2070
:1021B00025640A00C40700206164642072696768AE
:1021C0007420706F776572203D2025640A0000003E
:1021D00073756220726967687420706F776572200A
:1021E0003D2025640A000000696E76616C696420F8
:1021F000616374696F6E0A0070B5044600F0E6FD15
:1022000005462E469CB1012C04D0022C1CD0032C78
:1022100038D128E022464FF49661284800F0D0FEDD
:1022200022464FF49661264800F0CAFE2BE0224673
:102230004FF49661214800F0C3FE22464FF49661A8
:102240001F4800F0BDFE1EE000221E48008881B23B
:102250001A4800F0B5FE1C48008881B22246184892
:1022600000F0AEFE0FE01748008881B22246134806
:1022700000F0A6FE00221448008881B2104800F049
:102280009FFE00E000BF00BF16E000BF00F09EFD13
:10229000A842FBD000F09AFD0546A81BB0F5FA6FE6
:1022A0000ADB01221146054800F08AFE0122114690
:1022B000034800F085FE70BDE7E70000DC40000841
:1022C000EC400008C0070020C407002010B101281E
:1022D0001AD10CE00D490968A1F59661012905DBC9
:1022E0000A490968A1F59661084A11600CE008499D
:1022F0000968A1F59661012905DB05490968A1F581
:102300009661034A116000BF00BF7047C0070020FC
:10231000C407002070B5002100230F22C47804B345
:10232000154C246804F4E064C4F5E064210AC1F1AA
:102330000403CA40447804FA03F18478144021432A
:1023400009010E4C0678A155047804F01F050124FC
:10235000AC4005786D11AD0005F1E025C5F80041F0
:1023600009E0047804F01F050124AC40044D067810
:10237000761145F8264070BD0CED00E000E400E069
:1023800080E100E029B1064AD2690243044BDA61D8
:1023900004E0034AD2698243014BDA6170470000CE
:1023A0000010024029B1064A92690243044B9A6127
:1023B00004E0034A92698243014B9A61704700002E
:1023C0000010024030B500210022002400232D4DD2
:1023D0006D6805F00C0121B1042905D0082923D12D
:1023E00005E0294D056022E0274D05601FE0254DE1
:1023F0006D6805F47012234D6D6805F48034022574
:1024000005EB92421CB9214D554305600BE01D4D73
:102410006D6805F400351DB11C4D5543056002E0A3
:10242000194D5543056002E0174D056000BF00BF20
:10243000144D6D6805F0F0010909154D6B5C0568D8
:10244000DD4045600F4D6D6805F4E061090A104DEF
:102450006B5C4568DD4085600A4D6D6805F4605130
:10246000C90A0B4D6B5C4568DD40C560054D6D6864
:1024700005F44041890B074D6B5CC568B5FBF3F56E
:10248000056130BD0010024000127A0000093D00D5
:10249000000000201000002010B5024800F082FF6C
:1024A00010BD00009400002021B1028842F40052C7
:1024B000028004E002884DF6FF731A4002807047E4
:1024C00021B1028842F04002028004E002884FF607
:1024D000BF731A400280704710B5002201F00F044C
:1024E0000123A3409AB2D343038110BD02460020CA
:1024F00013890B400BB1012000E000207047F0B5BC
:102500000246002000240023002501F00F070126C9
:10251000BE40B4B20B1101269E40B3B2968806EAC3
:1025200003051689264016B10DB1012000E00020F8
:10253000F0BD0146888970478181704710B500223F
:10254000028802F441520B884C8823438C88234331
:10255000CC8823430C8923434C8923438C89234310
:10256000CC8923431A430280838B4FF2FF742340AC
:1025700083830B8A038210BD21B1828842F004025A
:10258000828004E082884FF6FB731A408280704795
:1025900010B500F001F810BD0CB5002001900090BE
:1025A0003348006840F480303149086000BF30484B
:1025B000006800F4003000900198401C01900098E1
:1025C00018B90198B0F5A06FF1D12948006800F45E
:1025D000003010B10120009001E000200090009830
:1025E000012843D12348006840F0100021490860C9
:1025F0000846006820F0030008600846006840F0C4
:10260000020008601A484068194948600846406856
:1026100048600846406840F480604860084640686A
:1026200020F47C1048600846406840F4E810486098
:102630000846006840F08070086000BF0C480068E1
:1026400000F000700028F9D00948406820F003002D
:10265000074948600846406840F00200486000BFF3
:102660000348406800F00C000828F9D10CBD0000B8
:10267000001002400020024006480068401C054946
:10268000086005480068401E0349086000200349AF
:1026900008707047280000202C0000203000002027
:1026A00010B51348006840F0010011490860084661
:1026B0004068104908400E494860084600680E49C5
:1026C00008400B4908600846006820F48020086034
:1026D0000846406820F4FE0048604FF41F00886000
:1026E000FFF756FF4FF000600449086010BD00007E
:1026F000001002400000FFF8FFFFF6FE08ED00E0CA
:1027000021B1028842F08002028004E002884FF684
:102710007F731A400280704721B1028842F00102A3
:10272000028004E002884FF6FE731A400280704770
:1027300031B1B0F8442042F40042A0F8442005E052
:10274000B0F84420C2F30E02A0F844207047000005
:1027500070B5002400220023058C4FF6FE7635402C
:102760000584028C8388048B4FF68F752C40B51E30
:102770002C400D882C43751E2A400D892A434D8814
:102780002A43144DA8420BD0134DA84208D0134D34
:10279000A84205D0124DA84202D0124DA84213D132
:1027A0004FF6F7752A404D892A434FF6FB752A40AC
:1027B0008D882A434FF6FF652B404FF6FF552B407F
:1027C0008D892B43CD892B4383800483CD888586D7
:1027D000028470BD002C01400034014000400140E3
:1027E00000440140004801400A460021018B4FF699
:1027F000F7731940114301837047000070B500243E
:1028000000220023058C4FF6EF7635400584028CBC
:102810008388048B48F6FF752C404FF6FF452C400B
:102820000D884FF6FF7606EA05252C434FF6DF7537
:102830002A400D8906EA05152A434D8806EA051542
:102840002A43154DA84202D0144DA8421DD14FF67F
:102850007F752A404D894FF6FF7606EA05152A4313
:102860004FF6BF752A408D8806EA05152A434FF6B4
:10287000FF352B404FF2FF752B408D8906EA850509
:102880002B43CD8906EA85052B4383800483CD88BD
:102890000587028470BD0000002C01400034014017
:1028A0000A460021018B4FF2FF7319404FF6FF7368
:1028B00003EA0223194301837047000070B5002426
:1028C00000220023058C4FF6FF6635400584028CFC
:1028D0008388848B4FF68F752C404FF6FC752C4007
:1028E0000D882C434FF6FF552A400D894FF6FF7691
:1028F00006EA05252A434D8806EA05252A43154D93
:10290000A84202D0144DA8421DD14FF2FF752A40B3
:102910004D894FF6FF7606EA05252A434FF6FF3527
:102920002A408D8806EA05252A434EF6FF752B407E
:102930004DF6FF752B408D8906EA05152B43CD8991
:1029400006EA05152B4383808483CD88858702841E
:1029500070BD0000002C0140003401400A460021F7
:10296000818B4FF6F7731940114381837047000044
:1029700070B5002200230024058C4EF6FF7635400A
:102980000584038C8488828B48F6FF752A404FF6B5
:10299000FF452A400D884FF6FF7606EA05252A43B3
:1029A0004DF6FF752B400D8906EA05352B434D8802
:1029B00006EA05352B430B4DA84202D00A4DA8422A
:1029C00008D14BF6FF752C408D894FF6FF7606EA4D
:1029D00085152C4384808283CD88A0F840500384E1
:1029E00070BD0000002C0140003401400A46002167
:1029F000818B4FF2FF7319404FF6FF7303EA0223F6
:102A00001943818370478184704700000022028847
:102A10001D4B98420ED01D4B98420BD0B0F1804F09
:102A200008D01B4B984205D01A4B984202D01A4B43
:102A3000984204D14FF68F731A404B881A43174BB4
:102A4000984207D0164B984204D04FF6FF431A40E5
:102A5000CB881A4302808B8883850B8803850A4BB9
:102A600098420BD0094B984208D00E4B984205D0A3
:102A70000D4B984202D00D4B984201D10B7A038640
:102A80000123838270470000002C01400034014084
:102A90000004004000080040000C0040001000400E
:102AA0000014004000400140004401400048014043
:102AB0000249097809B9014908707047BC0700202C
:102AC00010B5024801F0E0F910BD000064000020DC
:102AD00010B5024801F0D8F910BD00007C000020BC
:102AE00010B50022002340F66A14A14200D100BFB5
:102AF0000A1201249440A3B2DC43048010BD21B12A
:102B0000828942F40052828104E082894DF6FF738B
:102B10001A408281704702460020B1F5007F00D143
:102B200000BF13880B400BB1012000E0002070476C
:102B300070B50246002400230025002040F66A16E6
:102B4000B14200D100BFC1F3421501F01F030126BD
:102B500006FA03F3012D02D19689334006E0022DD7
:102B600002D1168A334001E0968A33400C120126C6
:102B700006FA04F41688344013B10CB1012000E0C9
:102B8000002070BDF0B5034600240026002500207B
:102B900040F66A17B94200D100BF1846C1F342148B
:102BA00001F01F06012707FA06F5012C01D10C30B0
:102BB00004E0022C01D1103000E014301AB1076893
:102BC0002F43076002E00768AF430760F0BD0000D5
:102BD0002DE9F04786B005460E460024A24600BF08
:102BE000A1460027B08900B100BF2F462C8A4CF6C1
:102BF000FF700440F08804432C82AC894EF6F31039
:102C00000440B08831890843718908430443AC818A
:102C1000AC8A4FF6FF400440B0890443AC8201A85F
:102C2000FFF7D0FB1F48874202D1DDF810A001E07A
:102C3000DDF80CA0A88900F4004040B10AEBCA00FE
:102C400000EB0A1031684900B0FBF1F807E00AEB2D
:102C5000CA0000EB0A1031688900B0FBF1F864206B
:102C6000B8FBF0F004012009642101FB1089A88958
:102C700000F4004040B1322000EBC900B0FBF1F09D
:102C800000F00700044308E0322000EB0910642143
:102C9000B0FBF1F000F00F0004432C8106B0BDE85A
:102CA000F08700000038014001468888C0F3080022
:102CB0007047C1F3080282807047490050EAC12082
:102CC00018BF04204A0D18BF40F0010040F2FF7207
:102CD000B2EB515F08BF40F00200012808BF052099
:102CE0007047000070B50446204600F037F80546EE
:102CF000124800EB0410806850B14DB10F4800EB52
:102D00000410007920B90D4901EB0411886880474F
:102D10000A4800EB0410C06850B14DB9074800EBF9
:102D20000410007920B1054901EB0411C8688047FF
:102D3000024800EB0410057170BD00003400002053
:102D400030380A2801D2012070470020704710B5A2
:102D500001210846FFF726FB10BD000070B50546AF
:102D6000064800EB05100468A1882068FFF712F9F7
:102D700008B9012070BD0020FCE7000034000020ED
:102D8000F8B5002412E00B4800EB04104826056853
:102D900003208DF802008DF80360A888ADF80000CC
:102DA00069462868FFF722F800BF641C032CEADBA1
:102DB000F8BD0000340000200349086000BF02494C
:102DC00009680029FBD170472C00002001480068E9
:102DD000704700002800002038B504460D46032047
:102DE0008DF802008DF80350A088ADF80000694608
:102DF0002068FEF7FBFF38BD38B504460D460320BA
:102E00008DF802008DF80350A088ADF800006946E7
:102E10002068FEF7EBFF38BD38B504460D460320A9
:102E20008DF802008DF80350A088ADF800006946C7
:102E30002068FEF7DBFF38BD38B504460D46032099
:102E40008DF802008DF80350A088ADF800006946A7
:102E50002068FEF7CBFF38BD38B504460D46032089
:102E60008DF802008DF80350A088ADF80000694687
:102E70002068FEF7BBFF38BD38B504460D46032079
:102E80008DF802008DF80350A088ADF80000694667
:102E90002068FEF7ABFF38BD10B50446A188206856
:102EA000FFF781F810BD10B50446A1882068FFF730
:102EB0007CF810BD70B504460D4625B1A188206888
:102EC000FFF773F803E0A1882068FFF76CF870BD86
:102ED00010B5044600BFA1882068FFF764F800BF62
:102EE00010BD10B5044600BFA1882068FFF75DF84B
:102EF00000BF10BD10B510210348FFF77DFF102162
:102F00000248FFF779FF10BD6C41000874410008CA
:102F100010B548210348FFF7AFFF48210248FFF7EB
:102F2000ABFF10BD9C4200089442000808B500F0B9
:102F3000EFF800F0A1FDFFF7DDFFFFF721FF4FF6EF
:102F4000E0704FF478434FF6FF72002100900120AB
:102F500000F0A6FB4FF41651144800F08FFE144900
:102F6000124800F0EDFF0120034641F27072272164
:102F70000090104800F032F80120034641F27072D0
:102F8000272100900C4800F029F8FFF71FFFFFF7FA
:102F9000BFFF07E00020FFF7E1FE18B10748FFF789
:102FA000A0FF00E0F6E700BFFFF702F87C0000207A
:102FB000B12A0008DC400008EC400008A4420008E8
:102FC00070B504460E4615462946E068FFF772FFC5
:102FD0003146204600F024F870BD00002DE9F8438A
:102FE00004460D4616461F46DDF8208033462A4625
:102FF00021460948009700F016F81021E068FFF715
:10300000EBFE4146E068FFF755FF01210348FEF75C
:1030100079FFBDE8F883000000340140000C1A007D
:103020008268118070472DE9F04188B007460C4650
:1030300015461E46DDF83880384600F061FD002058
:10304000ADF81600ADF81A008DF81C00ADF814505C
:10305000ADF8186005A93846FFF7D8FC0020ADF898
:103060000C00ADF80E006020ADF804000020ADF8B3
:103070001000ADF812000120ADF806000420ADF8F4
:103080000800ADF80A80207830B101280DD0022860
:1030900014D0032824D11AE001A93846FFF758FBC1
:1030A00001213846FFF7A0FB1AE001A93846FFF7D7
:1030B000A5FB01213846FFF7F3FB11E001A93846D3
:1030C000FFF7FCFB01213846FFF748FC08E001A9A7
:1030D0003846FFF74DFC01213846FFF787FC00BF5B
:1030E00000BF18216068FFF777FE01213846FFF71F
:1030F00007FB01213846FFF70FFB00213846FFF799
:1031000082FC01213846FFF713FB08B0BDE8F081CF
:1031100010B5FFF71CFE01210420FFF743F9012140
:103120000820FFF73FF901211020FFF73BF90121AB
:103130002020FFF737F901214020FFF733F910BDB8
:103140002DE9F04186B004460F4615461E46DDF8CF
:103150003080206800F04AF918216068FFF76CFEA3
:1031600005F4004048B1B6F5827F01D1A16800E0C6
:10317000E16808461821FFF75FFE05F4404048B1BA
:10318000B6F5827F01D1E16800E0A1680846182108
:10319000FFF752FE206901287ED020690228FBD06B
:1031A00020690428F8D020690828F5D06A492069E8
:1031B0008842F1D06849203120698842ECD06749C3
:1031C00020698842E8D0654980312069884263D00F
:1031D0006349206988425FD06249206988425BD098
:1031E00061492069884257D060492069884253D09C
:1031F0005F49206988424FD02069B0F5805F4BD08D
:103200002069B0F5EA1F7CD02069B0F5EB1F78D0BB
:103210002069B0F5004F74D056492069884270D0BB
:10322000491C206988426CD0891C2069884268D07A
:10323000091D2069884264D04E490F3120698842B7
:103240005FD02069B0F1201F5BD04FEAF1312069D7
:10325000884256D048492069884252D0474920695F
:1032600088424ED04649206988424AD04549206963
:10327000884246D044492069884242D02069B0F54E
:10328000011F3ED04149206988423AD0491C20693B
:10329000884236D0891C00E033E02069884230D073
:1032A000091D206988422CD038490F312069884295
:1032B00027D036491F312069884222D033493F3117
:1032C000206988421DD031497F312069884218D059
:1032D0002E49FF312069884213D02D492069884248
:1032E0000FD02C49206988420BD02B492069884295
:1032F00007D02A492069884203D029492069884299
:1033000003D101212069FEF7FDFDADF80450ADF8B1
:103310000660ADF808800220ADF80A000120ADF883
:103320000C004002ADF80E00ADF810700020ADF8B2
:10333000120001A92068FFF701F901212068FFF7B9
:10334000BFF800212068FFF7AFF800212068FFF7E1
:1033500013F906B0BDE8F08110001400400016001B
:1033600000011800000218000003180000081A00ED
:10337000000C1A00010020000001300000023000A3
:103380000004300000112000002020000100008017
:10339000000200800004008000080080001000800F
:1033A0000020008070B5044660212068FFF7A7F870
:1033B00068B12068FFF7BDF80546606910B1E8B252
:1033C0006169884760212068FFF786F80DE0712168
:1033D0002068FFF794F840B1A06910B1A169206896
:1033E000884771212068FFF777F870BD10B5044653
:1033F0000B48844204D101218014FEF7D3FF0EE074
:103400000848844204D101210014FEF7BBFF06E006
:103410000548844203D10121C013FEF7B3FF10BD5C
:103420000030014000380040003C004070B50446C8
:103430000D4600BF02212068FFF758F80028F9D098
:1034400029462068FFF778F870BD000010B50246E5
:103450003048007800EBC00303EB00102E4B03EB69
:10346000C00002EB820300EB4300405C2B4B1B7857
:1034700003EBC30404EB0313274C04EBC30302EB7D
:10348000820403EB44035B5C98423FD121480078FF
:1034900000EBC00303EB0010214B03EB001002EB29
:1034A000820300EB830030F811001C4B1B7803EB08
:1034B000C30404EB03131A4C04EB031302EB820462
:1034C00003EB840333F8113098421FD11148007880
:1034D00000EBC00303EB0010124B03EB001002EBF8
:1034E000820300EB830030F811000C4B1B7803EBD8
:1034F000C30404EB03130B4C04EB031302EB820431
:1035000003EB840333F81130984201D0012010BD41
:103510000020FCE7C2060020FC070020C3060020B4
:103520008C090020AC0C002010B500200649088052
:10353000002404E0204600F00BF8601CC4B20348ED
:1035400000788442F6DB10BDBC060020C1060020D6
:1035500010B50146002032E020221B4B1B7803EB04
:10356000C30404EB0313194C04EBC30300EB800406
:1035700003EB44035A54164A1288134B1B7803EB8F
:10358000C30404EB0313134C04EB031300EB80049C
:1035900003EB840323F811200F4A12880A4B1B788F
:1035A00003EBC30404EB03130C4C04EB031300EB19
:1035B000800403EB840323F81120421CD0B2084A94
:1035C00012789042C8DB10BDC2060020FC07002024
:1035D000B40600208C090020B0060020AC0C0020AE
:1035E000C006002010B5002423E01549085D00F056
:1035F00027FA1348005D362805D11249124A12787D
:10360000885C00F02BFA0EE00D48005DFF2806D123
:10361000611C0C460A4A505CFFF7CEFB03E00849E8
:10362000085D00F01BFA601C04460549085C43284D
:10363000EAD1601C04460249085C4228D5D110BD7D
:10364000DC4100084D420008BA0600200120014973
:1036500008707047BB06002070B505460F49087812
:1036600000EBD0714910A0EB410131B18023A022C1
:103670000021084600F0A6F805E0A02380220021E2
:10368000084600F09FF8002403E0284600F0CEF939
:10369000641CB4F5A04FF8D370BD0000BA0600203A
:1036A0002DE9F04104460D4616461F46DDF8188008
:1036B00000202E4908802E49087001202D490870ED
:1036C0002D4804700146087800EBD0714910A0EB3A
:1036D000410109B1012100E00221284A1170264967
:1036E000087800EBD0714910A0EB410109B102212B
:1036F00000E00121224A117000F0C2F800F046F803
:10370000FFF770FF284600F051F8304600F0B2F89D
:10371000384600F0A9F8404600F04EF82846FFF77A
:103720009BFF204604EBD0714910A4EB410109B185
:10373000142100E01021134A1170204604EBD071CF
:103740004910A4EB410109B1082100E00A210E4A09
:103750001170FFF77BFFFFF7E7FE00F0ABF8FFF714
:10376000E3FE00F0A7F8BDE8F0810000BC060020F1
:10377000C2060020C3060020BA060020B8060020BA
:10378000B9060020C0060020C106002010B506487A
:10379000FFF782FB6420FFF70FFB0348FFF783FB73
:1037A0006420FFF709FB10BDCC41000801490880E7
:1037B00070470000B00600200149088070470000F3
:1037C000B20600202DE9F05F04460D4692469B4666
:1037D00026462F4604EB0A001FFA80F805EB0B0083
:1037E0001FFA80F91D480078304486B21C480078E2
:1037F000384487B21948007840441FFA80F81848C6
:10380000007848441FFA80F92A2000F019F9300A9C
:1038100000F024F9F0B200F021F94FEA182000F08E
:103820001DF908F0FF0000F019F92B2000F008F94D
:10383000380A00F013F9F8B200F010F94FEA192035
:1038400000F00CF909F0FF0000F008F92C2000F05E
:10385000F7F80448FFF727FBBDE8F09FB806002003
:10386000B9060020D44100080149088070470000D3
:10387000B60600200149088070470000B406002009
:1038800008B500204FF482734FF440420146009087
:103890000548FFF755FC10210448FFF7DDFA102119
:1038A0000348FFF7D9FA08BD94000020CC41000876
:1038B000D44100082DE9F05F00250027A8465248B2
:1038C000007808B9BDE8F09F002686E000247DE07E
:1038D00031462046FFF7BAFD002875D0012501E0EA
:1038E000681C05B2601949490978884206DA6119ED
:1038F000C8B23146FFF7AAFD0028F1D10123C3EB7E
:10390000C5039AB23101E0000F23FFF75BFF4FF0D0
:10391000000853E03E48007800EBC00101EB0010C6
:103920003C4901EBC000E11901EB810100EB4100D2
:10393000805D2038384901EB001A4FF0080930E06B
:103940001AF80800A9F10101084100F0010080B156
:103950002F48007800EBC00101EB00102F4901EB6C
:103960000010E11901EB810100EB810030F8160035
:103970000FE02748007800EBC00101EB0010284958
:1039800001EB0010E11901EB810100EB810030F83F
:1039900016008346584600F049F8A9F1010000F0EE
:1039A000FF09B9F1000FCBDC781CC0B20746A84272
:1039B00004D1002708F1010000F0FF08B8F1100F52
:1039C000A8DB681E2044C4B2601CC4B20F48007853
:1039D0008442FFF67DAF701CC6B212480078864262
:1039E000FFF674AF0A48007808B9012000E0002013
:1039F000074908700C48007808B9012000E0002051
:103A00000949087000BF5DE7BB060020C006002022
:103A1000C2060020FC070020B00000208C09002016
:103A2000AC0C0020C1060020C306002010B50446DF
:103A3000201200F013F8E0B200F010F810BD000002
:103A400010B504460348FFF727FA21460248FFF75E
:103A5000EDFC10BDD44100089400002010B50446D0
:103A60000348FFF720FA21460248FFF7DFFC10BDAC
:103A7000D44100089400002038B500208DF80100E2
:103A80008DF8020001208DF80300FF208DF8000062
:103A90006846FEF73FFC164800684FF47A72B0FBA8
:103AA000F2F1B1F1807F00D31DE021F07F40401E94
:103AB0004FF0E022506150170F22002807DA130759
:103AC0001D0E0C4B00F00F04241F1D5503E01307BF
:103AD0001C0E094B1C5400BF00204FF0E0229061E7
:103AE0000720106100BF00200449086038BD0000B5
:103AF0001400002018ED00E000E400E028000020A1
:103B000010B504464348844204D10121C014FEF795
:103B100049FC7EE04048844204D101214014FEF774
:103B200041FC76E03D48844204D101210804FEF7BF
:103B300039FC6EE03A48844204D101214804FEF782
:103B400031FC66E03748844204D101218804FEF745
:103B500029FC5EE03448844204D10121C804FEF708
:103B600021FC56E03148844204D101210805FEF7CA
:103B700019FC4EE02E48844204D101214805FEF78D
:103B800011FC46E0B4F1804F04D101210846FEF754
:103B9000F9FB3EE02748844204D101210220FEF7D0
:103BA000F1FB36E02448844204D101210420FEF7D1
:103BB000E9FB2EE02148844204D101210820FEF7D0
:103BC000E1FB26E01E48844204D101211020FEF7CB
:103BD000D9FB1EE01B48844204D101212020FEF7BE
:103BE000D1FB16E01848844204D101214020FEF7A1
:103BF000C9FB0EE01548844204D101218020FEF764
:103C0000C1FB06E01248844203D101218015FEF772
:103C1000B9FB10BD002C01400034014000400140C0
:103C20000044014000480140004C01400050014068
:103C3000005401400004004000080040000C004017
:103C4000001000400014004000180040001C00401C
:103C50000020004001460848084440B1B0F5806F9C
:103C600007D0B0F5744F00D000BF25207047262044
:103C7000FCE72720FAE7000000BCFFBF7FB5044641
:103C80000D46206800F028F918216068FFF7C4F895
:103C90000421A068FFF7C0F8606901287ED0606940
:103CA0000228FBD060690428F8D060690828F5D0A4
:103CB000624960698842F1D0604920316069884278
:103CC000ECD05F4960698842E8D05D498031606925
:103CD0008842E3D05B49606988425FD05A49606995
:103CE00088425BD059496069884257D05849606919
:103CF000884253D05749606988424FD06069B0F517
:103D0000805F4BD06069B0F5EA1F7CD06069B0F588
:103D1000EB1F78D06069B0F5004F74D04E496069F0
:103D2000884270D0491C606988426CD0891C6069E7
:103D3000884268D0091D6069884264D046490F31C5
:103D4000606988425FD06069B0F1201F5BD04FEAA4
:103D5000F1316069884256D040496069884252D04A
:103D60003F49606988424ED03E49606988424AD0E6
:103D70003D496069884246D03C496069884242D0EA
:103D80006069B0F5011F3ED03949606988423AD078
:103D9000491C6069884236D0891C00E033E06069C4
:103DA000884230D0091D606988422CD030490F31DB
:103DB0006069884227D02E491F316069884222D02D
:103DC0002B493F31606988421DD029497F316069A4
:103DD000884218D02649FF316069884213D02549AE
:103DE000606988420FD02449606988420BD023491A
:103DF0006069884207D022496069884203D021491E
:103E00006069884203D101216069FEF77BF8009563
:103E10000020ADF80400ADF80600ADF80800ADF8DC
:103E20000C000C20ADF80A0069462068FEF7D0FEB1
:103E300001212068FEF763FE7FBD00001000140022
:103E400040001600000118000002180000031800CE
:103E500000081A00000C1A000100200000013000C8
:103E6000000230000004300000112000002020007B
:103E70000100008000020080000400800008008033
:103E8000001000800020008070B5044640F22551EB
:103E90002068FEF74DFE70B12068FEF705FF05466D
:103EA000E06810B1E8B2E168884740F22551206827
:103EB000FEF716FE0EE040F227712068FEF738FE8E
:103EC00040B1206908B12069804740F2277120681D
:103ED000FEF706FE70BD000010B50446134884428C
:103EE00004D101218803FEF75DFA1EE010488442E8
:103EF00004D101214804FEF745FA16E00D4884423A
:103F000004D101218804FEF73DFA0EE00A488442FC
:103F100004D10121C804FEF735FA06E007488442BF
:103F200003D101210805FEF72DFA10BD003801402C
:103F30000044004000480040004C00400050004059
:103F400038B504460D462068FFF784FEC0B28DF8F0
:103F5000000001208DF801008DF802008DF80300AB
:103F60006846FEF7D7F9012240F225512068FEF796
:103F700009FE00BFE56000BF38BD70B504460D46C0
:103F8000206900B170BD00BF40212068FEF7C3FD6D
:103F90000028F9D029462068FEF78BFE00BFF1E724
:103FA0000FB430B5C1B00546286918B141B030BC76
:103FB0005DF814FB46A840906846409A4599FCF786
:103FC00079F9002040906C4604E014F8011B284663
:103FD000FFF7D3FF20780028F7D100BFE6E7000005
:103FE00010B500290AD00878002807D00548784481
:103FF000FDF792F9002801D0002010BD0248784456
:1040000010BD0000F2030000EA03000010B5002913
:104010000AD00878002807D005487844FDF77CF9D5
:10402000002801D0002010BD0248784410BD0000D7
:10403000E2030000DA030000FCF77BBDFCF7B0BE32
:1040400000080140010000000008014002000000DB
:1040500000080140040000000008014008000000C2
:1040600000080140400000000008014080000000FE
:10407000000801400001000000080140008000002D
:10408000000C014000040000000C0140000800008A
:104090000010014008000000001001404000000036
:1040A00000100140800000000010014000010000ED
:1040B00000100140000200000000000078400008ED
:1040C0003400004003000000884000084000004029
:1040D00002000000804000083C000040000000009A
:1040E000984000083434014090400008010000006E
:1040F000A040000838340140704000080200000071
:10410000A84000083C340140B04000080000000016
:1041100040400008340C0040000C0040010000004A
:1041200048400008380C0040000C0040020000002D
:10413000504000083C0C0040000C00400300000010
:1041400058400008400C0040000C004000000000F7
:1041500060400008340400400004004001000000FA
:10416000684000083804004000040040001001408E
:104170000200000000100140040000000010014097
:10418000002000000010014000400000001001402D
:10419000008000000008014000020000000801400B
:1041A0000004000000100140000400000010014065
:1041B00000080000000C014000200000000C01403D
:1041C00000400000000C014000800000000C014095
:1041D00000100000000C0140004000000011FF0A28
:1041E00043B1012C2D43B2012C2D43B3012C2D01E1
:1041F0002C2D43B40743C0A2028443C1C543C20A65
:104200000043C38A2A43C48AEE43C50E433643E0C3
:104210000F1A0F182F2820221F1B23370007021008
:1042200043E10F1B0F17332C292E3030393F000785
:104230000310432A0000007F432B0000009F43F03F
:104240000143F600433A054329432C4342C0A000F2
:10425000600000000008014001000000000801406B
:1042600002000000000801400400000000080140B6
:104270000800000000080140100000000008014094
:10428000200000000008014040000000000801403C
:1042900080000000000801404000000000080140CC
:1042A00080000000001001400200000000100140EA
:1042B0000400000070170000E8030000D0070000B1
:1042C000B004000000000000000000003031323374
:1042D000343536373839414243444546403058003A
:1042E000303132333435363738396162636465666C
:1042F00040307800040000080000000000000002C8
:10430000000100001030313233343536373839612E
:104310006263646566787000303132333435363725
:10432000383941424344454658500000024000009D
:10433000000000A00000000005400000000000C8D0
:10434000000000000C4000000000409C0000000045
:10435000194000000020BCBE0000000034400000F6
:10436000BFC91B8E00000004B5400000504BCFD0E9
:104370006607E2CF010000006C4100003E8251AAB6
:10438000DFEEA73401000000D9420000DCB5A0E256
:104390003A301F97FFFFFFFFB4450000FD25A0C87E
:1043A000E9A3C14FFFFFFFFFFF3F000000000080B7
:1043B00000000000FF3F000000000080000000003F
:1043C0000C45000800000020FC0700002801000840
:1043D000EC480008FC070020940E0000840100084F
:1043E0001C00000043000000F8FFFFFF0C0000006D
:1043F0000E0000000F0000002E0000001001000061
:1044000043000000F8FFFFFF0040404040404040B4
:104410004040414141414140404040404040404097
:10442000404040404040404040050202020202023B
:10443000020202020202020202202020202020208A
:10444000202020020202020202029090909090909E
:10445000101010101010101010101010101010105C
:1044600010101010020202020202888888888888D0
:1044700008080808080808080808080808080808BC
:1044800008080808020202024000000000000000C4
:10449000000000000000000000000000000000001C
:1044A000000000000000000000000000000000000C
:1044B00000000000000000000000000000000000FC
:1044C00000000000000000000000000000000000EC
:1044D00000000000000000000000000000000000DC
:1044E00000000000000000000000000000000000CC
:1044F00000000000000000000000000000000000BC
:10450000000000000000000000000000412D01023A
:104510000304041009060708090204060884A24AD5
:10452000046918C1137C41C208DA8410DA8C1011B6
:104530001D3801409414EA9C1812481B40A4149A98
:10454000AC1812101A1430111B40B4141ABC04EA2F
:10455000C43401111008183C3C3C181818190341C8
:10456000E5666666243D6C6CFE6C04392E580B18AB
:104570007CC6C2C07C0686C67C31215809C2C60CE6
:10458000183060C686AD500A6C6C3876DCCCCCCC6A
:1045900076D530303060192C390163180C1909397F
:1045A00001931830AE663CFF3C66A37B187E6D8994
:1045B000149931110A11FED879322B0206A063C07A
:1045C00080580B7CC6C6CED6D6E6C6C67C281B381D
:1045D000784C19016A7E20492F5AC65419106E066C
:1045E0003C060606301F0C1C3C6CCCFEB15A1E7BF0
:1045F0008EC0C0C0FC0E201B3860101AC6015910B6
:104600001AFE4049F479802AC6046920290C1A7ED2
:1046100060BB0C78BA99F1591069EF399FA5301831
:104620000C0619AB59AE31391C292479601A0CDEFD
:10463000895119115EDEDEDEDCC0802F10386CC6B9
:10464000C6FE91611EFC6666667C046366FC1C3CCB
:1046500066C2E265C0C2663C2BF86C1D5D66666C86
:10466000F87C580966626878686062668259109CB6
:104670006060F04066DEC6C6663A296A396F5970D6
:104680001A3C9D390159602B1E0C0165CCCCCC78AD
:104690001FE6666C6C78787562E61AF05B19017932
:1046A000709EC6EEFEFED6508FC6E6F6FEDECE103B
:1046B00029DF29019B6C38E0294259A04A7C1F7EE2
:1046C000D6DE7C0C0E2029E4597019206008603871
:1046D0000C06C6C67CBC7E7E5AB0493F19015920E3
:1046E000590E9C6C3810106ED6D6FE6C6C101E6C79
:1046F0006C38386C9661196A9B663C50580AFEC645
:10470000860C183060C2C6E05B3C3001592011585D
:104710000A80C0E070381C0E0602205A0C013920B5
:104720001A10EF011922FF04123030186008780CBB
:104730007CCCCCCC762EE06060786C9592DC6E7C84
:10474000C6C0C0C0E01A1C6A1A6C2F693039208AB2
:10475000FE201F386C6460F0600192F02A762F4EC4
:10476000CC7C0CCC78602B6C766062E61318181A3F
:1047700038FE5B1818E01306063B0E06012B666632
:104780001319301C666C78935930492D8930312CBF
:10479000ECFED601912ADC5F9B6666A0290159A038
:1047A00079207A7CA369A05B0C1E20BB7662C06E68
:1047B0007CC660380C401E103030FC300193361C33
:1047C000393F93CC76395F933C18197D8DD6D6FE50
:1047D0006C10AF6C3838386CC6201901657E060C39
:1047E000F86008FECC183060C6FE1A0EEB2A70F096
:1047F000620E290B39055960291C29245B1870CDDC
:10480000C2DCCAFF0101161211101E124617201831
:1048100014192F1A1E320429142C1E2A04427F4D0B
:104820000963E064FF6520661267101413F00D81C0
:104830000FC5142122FF23012434253C26A12B106F
:104840001E6BAA13FF695D900A9101920193019476
:104850005F95539611971A983D995A9A1E9B10325C
:104860009C25A765A8659E81A6067E0C7F16802ADA
:10487000814E8261836F847B8586868E879788A42C
:1048800089AF8AC58BD78CE88D20A980AA80ACFF20
:104890003316229923034A100E491347084B144C30
:1048A0001746050CD00E824D13544233080F2A5C74
:1048B0000822012A640822022A6C0822032A7408AA
:1048C00022042A7C0822052A840822062A8C0872DF
:1048D000077A10F0911AB03429045AB40221140F47
:0C48E000015A6902296AC93BC1000000AE
:04000005080000ED02
:00000001FF
