:020000040800F2
:1000000050160020C9010008D1010008D3010008E2
:10001000D5010008D7010008D90100080000000040
:10002000000000000000000000000000DB010008EC
:10003000DD01000800000000DF010008B10D00082C
:10004000E3010008E3010008E3010008E301000800
:10005000E3010008E3010008E3010008E3010008F0
:1000600081040008E3010008E301000849030008D7
:10007000E3010008E3010008E3010008E3010008D0
:10008000E3010008E3010008D1020008E3010008D1
:10009000E3010008E3010008E3010008CD040008C3
:1000A000E3010008E3010008E3010008E3010008A0
:1000B000E3010008E3010008390E0008E30100082D
:1000C000E3010008E3010008E3010008E301000880
:1000D000710B0008750F0008E3010008850F000888
:1000E00015040008E3010008E301000800F002F82D
:1000F00000F05AF80AA090E8000C82448344AAF168
:100100000107DA4501D100F04FF8AFF2090EBAE865
:100110000F0013F0010F18BFFB1A43F0010318473B
:10012000501F0000701F00000A444FF0000C10F830
:10013000013B13F0070408BF10F8014B1D1108BF65
:1001400010F8015B641E05D010F8016B641E01F805
:10015000016BF9D113F0080F1EBF10F8014BAD1C55
:100160000C1B09D16D1E58BF01F801CBFAD505E073
:1001700014F8016B01F8016B6D1EF9D59142D6D3CD
:10018000704700000023002400250026103A28BFF5
:1001900078C1FBD8520728BF30C148BF0B607047F9
:1001A0001FB51FBD10B510BD00F058F81146FFF780
:1001B000F7FF01F05BF800F076F803B4FFF7F2FF09
:1001C00003BC00F07DF8000009488047094800475B
:1001D000FEE7FEE7FEE7FEE7FEE7FEE7FEE7FEE7F7
:1001E000FEE7FEE704480549054A064B7047000054
:1001F000D90D0008ED000008501000205016002016
:1002000050120020501200204FF0000200B513469B
:1002100094469646203922BFA0E80C50A0E80C5026
:10022000B1F12001BFF4F7AF090728BFA0E80C50D7
:1002300048BF0CC05DF804EB890028BF40F8042BD0
:1002400008BF704748BF20F8022B11F0804F18BF3D
:1002500000F8012B7047704770477047754600F0F3
:100260002BF8AE4605006946534620F00700854648
:1002700018B020B5FFF7B6FFBDE820404FF00006EC
:100280004FF000074FF000084FF0000B21F007017E
:10029000AC46ACE8C009ACE8C009ACE8C009ACE8C1
:1002A000C0098D46704710B50446AFF30080204664
:1002B000BDE81040FFF781BF00487047F00F0020F5
:1002C00001491820ABBEFEE726000200704700007F
:1002D00010B54FF408710B4800F023F888B10948B5
:1002E00000F01BF80849094A127821F81200074863
:1002F0000078401C054908704FF40871014800F06F
:1003000007F810BD00240140900F0020B80700201E
:1003100000220A12D343036070470146C86C80B2C2
:10032000704770B502460020002300240B12556868
:10033000CEB205EA060415681D4015B10CB10120C6
:1003400000E0002070BD000010B5022000F01AF897
:1003500038B104480078401C02490870022000F0BF
:1003600003F810BDB807002000F0805111B1034917
:10037000086001E002494860704700000404024040
:100380000000024001460020002201F0805313B11A
:10039000054B1A6801E0054B1A6802EA01030BB12C
:1003A000012000E0002070470004024000000240ED
:1003B000704770470F48007888B904200E490860DC
:1003C00080020E49086001200A49087000030B49A9
:1003D000091F086004200849091F086009E0054852
:1003E0000078012805D10003044908600220014972
:1003F0000870704761070020141401401408014080
:1004000010B5002000F07EFE10BD10B5012000F0F8
:1004100079FE10BD10B51648006800F4805028B170
:10042000FFF7C8FF4FF4805000F0A0F810480068B4
:1004300000F4005028B1FFF7E3FF4FF4005000F044
:1004400095F80B48006800F4804028B1FFF7DDFF05
:100450004FF4804000F08AF80548006800F400403E
:1004600028B100F007F84FF4004000F07FF810BD0D
:100470001404014010B5022000F044FE10BD00003D
:1004800010B5042000F078F8A8B104210A4800F063
:10049000C5F918B10021094800F00EFD04210648F5
:1004A00000F0BCF920B9054800F0E9FC04490880D7
:1004B000042000F05BF810BD00080140000400407B
:1004C000BC070020704770477047704710B525483B
:1004D000006800F0200020B1FFF7F4FF202000F0BA
:1004E00045F82048006800F0400020B1FFF7EBFF1E
:1004F000402000F03BF81B48006800F0800020B16D
:10050000FFF7E2FF802000F031F81648006800F4A1
:10051000807028B1FFF7D9FF4FF4807000F026F803
:100520001048006800F4007028B100F01DF84FF486
:10053000007000F01BF80B48006800F4806028B1E0
:10054000FFF736FF4FF4806000F010F805480068B0
:1005500000F4006028B1FFF72CFF4FF4006000F0BA
:1005600005F810BD140401407047000001490860FF
:100570007047000014040140014600200022074B90
:100580001B6803EA0102054B14331B680B4013B1CF
:100590000AB1012000E00020704700000004014083
:1005A000002123498279002A3AD00A46126803685A
:1005B0009A430B461A600A1D126803689A430B1D82
:1005C0001A60027911440A6803681A430A60184ADB
:1005D0000832126803689A43154B08331A601A1DD3
:1005E000126803689A43124B0C331A604279102A3E
:1005F0000ED11A1F126803681A430D4B08331A6094
:100600001A1D126803681A43094B0C331A600DE077
:100610000749427911440A6803681A430A6005E0F1
:10062000027911440A6803689A430A60704700001F
:100630000004014030B500228B071C0F0F2303FA82
:1006400004F20B4B8C1053F824309343084C8D105C
:1006500044F8253023468C1053F824308C07240F9F
:1006600000FA04F42343024C8D1044F8253030BDC9
:10067000080001402DE9F041024600250026002037
:1006800000230024002791F803C00CF00F0591F817
:1006900003C00CF0100CBCF1000F03D091F802C0A5
:1006A0004CEA050591F800C0BCF1000F31D0146888
:1006B00000202BE04FF0010C0CFA00F3B1F800C061
:1006C0000CEA03069E4220D183004FF00F0C0CFA77
:1006D00003F7BC4305FA03FC4CEA040491F803C099
:1006E000BCF1280F06D14FF0010C0CFA00FCC2F847
:1006F00014C00AE091F803C0BCF1480F05D14FF0D7
:10070000010C0CFA00FCC2F810C0401C0828D1D320
:100710001460B1F800C0BCF1FF0F34DD5468002054
:100720002EE000F1080C4FF0010808FA0CF3B1F8C4
:1007300000C00CEA03069E4221D183004FF00F0C4B
:100740000CFA03F7BC4305FA03FC4CEA040491F8E5
:1007500003C0BCF1280F05D100F1080C08FA0CF811
:10076000C2F8148091F803C0BCF1480F07D100F122
:10077000080C4FF0010808FA0CF8C2F81080401C71
:100780000828CED35460BDE8F0810000F0B50A46D9
:10079000002300240021002500F00046B6F1004FA0
:1007A00002D11D4EF16901E01B4E7168C0F3034593
:1007B00083B200F44016B6F5401F08D121F07061F5
:1007C000154E766826F07066134F7E6012E000F4D6
:1007D0008016B6F5801F06D1032606FA05F4A1435C
:1007E00041F0706106E0460D360103FA06F6B143AA
:1007F00041F0706122B1460D360103FA06F631432D
:1008000000F00046B6F1004F02D1034EF16101E065
:10081000014E7160F0BD0000000001400246002062
:1008200093680B400BB1012000E00020704741614C
:100830007047016170474FF6FF710180022181709E
:100840000421C1707047000070B5002100230F2201
:10085000C47804B3154C246804F4E064C4F5E0647F
:10086000210AC1F10403CA40447804FA03F18478F0
:100870001440214309010E4C0678A155047804F078
:100880001F050124AC4005786D11AD0005F1E02590
:10089000C5F8004109E0047804F01F050124AC40CC
:1008A000044D0678761145F8264070BD0CED00E049
:1008B00000E400E080E100E029B1064AD269024389
:1008C000044BDA6104E0034AD2698243014BDA61E6
:1008D000704700000010024029B1064A92690243A5
:1008E000044B9A6104E0034A92698243014B9A6186
:1008F00070470000001002400F48006840F00100FF
:100900000D490860084640680C4908400A4948609B
:10091000084600680A490840074908600846006818
:1009200020F4802008600846406820F4FE004860FB
:100930004FF41F0088607047001002400000FFF86D
:10094000FFFFF6FE30B500210022002400232D4DCC
:100950006D6805F00C0121B1042905D0082923D1C7
:1009600005E0294D056022E0274D05601FE0254D7B
:100970006D6805F47012234D6D6805F4803402250E
:1009800005EB92421CB9214D554305600BE01D4D0E
:100990006D6805F400351DB11C4D5543056002E03E
:1009A000194D5543056002E0174D056000BF00BFBB
:1009B000144D6D6805F0F0010909154D6B5C056873
:1009C000DD4045600F4D6D6805F4E061090A104D8A
:1009D0006B5C4568DD4085600A4D6D6805F46051CB
:1009E000C90A0B4D6B5C4568DD40C560054D6D68FF
:1009F00005F44041890B074D6B5CC568B5FBF3F509
:100A0000056130BD0010024000127A0000093D006F
:100A1000000000201000002010B501460022002335
:100A200000204A11012A02D1094C236806E0022A5B
:100A300002D1074C236A01E0054C636A01F01F02F2
:100A4000012494401C400CB1012000E0002010BDA6
:100A5000001002400248406800F00C00704700009F
:100A60000010024001460020034A506820F0F000C8
:100A700008435060704700000010024011490968A7
:100A800021F480310F4A11601146096821F4802158
:100A90001160B0F5803F03D0B0F5802F0ED106E095
:100AA0000849096841F48031064A116007E00549A8
:100AB000096841F4A021034A116000E000BF00BFB3
:100AC000704700000010024001460020034A5068B1
:100AD00020F4E060084350607047000000100240BE
:100AE00001460020034A506820F4605040EAC100EB
:100AF00050607047001002400149086670470000CE
:100B00000000424202460020044B586820F47C104A
:100B100042EA01031843014B58607047001002403D
:100B200001460020034A506820F00300084350604B
:100B3000704700000010024038B5002000900024EB
:100B4000002500BF3120FFF767FF05460098401CD5
:100B500000900098B0F5A06F01D0002DF2D03120A8
:100B6000FFF75AFF08B1012400E00024204638BDF9
:100B700010B5024800F0CCFD10BD0000940000202C
:100B800021B1028842F40052028004E002884DF64E
:100B9000FF731A400280704721B1028842F0400280
:100BA000028004E002884FF6BF731A40028070474B
:100BB00010B5002201F00F040123A3409AB2D343E1
:100BC000038110BD0246002013890B400BB10120A8
:100BD00000E000207047F0B502460020002400230A
:100BE000002501F00F070126BE40B4B20B1101260B
:100BF0009E40B3B2968806EA03051689264016B1D0
:100C00000DB1012000E00020F0BD01468889704749
:100C10008181704710B50022028802F441520B888E
:100C20004C8823438C882343CC8823430C8923435B
:100C30004C8923438C892343CC8923431A43028064
:100C4000838B4FF2FF74234083830B8A038210BD92
:100C500021B1828842F00402828004E082884FF64B
:100C6000FB731A408280704710B500F001F810BD88
:100C70000CB50020019000903348006840F48030AB
:100C80003149086000BF3048006800F4003000902F
:100C90000198401C0190009818B90198B0F5A06F18
:100CA000F1D12948006800F4003010B10120009013
:100CB00001E0002000900098012843D123480068FB
:100CC00040F01000214908600846006820F0030049
:100CD00008600846006840F0020008601A48406852
:100CE000194948600846406848600846406840F432
:100CF000806048600846406820F47C1048600846E0
:100D0000406840F4E81048600846006840F0807091
:100D1000086000BF0C48006800F000700028F9D09F
:100D20000948406820F003000749486008464068C9
:100D300040F00200486000BF0348406800F00C002B
:100D40000828F9D10CBD000000100240002002402C
:100D500010B5FFF7D1FD4FF48030FFF78FFEFFF79E
:100D6000EBFE0446012C1FD10020FFF77BFE002084
:100D7000FFF7B6FEA002FFF7A7FE4FF4E011200434
:100D8000FFF7C0FE0120FFF7B7FE00BF3920FFF7D5
:100D900043FE0028FAD00220FFF7C2FE00BFFFF793
:100DA00059FE0828FBD101E000BFFEE710BD00009E
:100DB00006480068401C0549086005480068401E58
:100DC000034908600020034908707047280000208C
:100DD0002C0000203000002010B51348006840F0BF
:100DE00001001149086008464068104908400E4952
:100DF0004860084600680E4908400B4908600846EC
:100E0000006820F4802008600846406820F4FE0056
:100E100048604FF41F008860FFF726FF4FF0006026
:100E20000449086010BD0000001002400000FFF8F7
:100E3000FFFFF6FE08ED00E010B50121064800F0C6
:100E400021F840B100F020FB012004490870012185
:100E5000014800F005F810BD00080040BA07002066
:100E6000CA430282704721B1028842F00102028027
:100E700004E002884FF6FE731A4002807047014674
:100E8000888C704730B50246002000230024158A64
:100E900005EA0103958905EA010413B10CB10120AB
:100EA00000E0002030BD1AB183890B43838102E04A
:100EB00083898B4383817047818470470022028835
:100EC0001D4B98420ED01D4B98420BD0B0F1804F75
:100ED00008D01B4B984205D01A4B984202D01A4BAF
:100EE000984204D14FF68F731A404B881A43174B20
:100EF000984207D0164B984204D04FF6FF431A4051
:100F0000CB881A4302808B8883850B8803850A4B24
:100F100098420BD0094B984208D00E4B984205D00E
:100F20000D4B984202D00D4B984201D10B7A0386AB
:100F30000123838270470000002C014000340140EF
:100F40000004004000080040000C00400010004079
:100F500000140040004001400044014000480140AE
:100F60004FF6FF71818000210180C18041800172B4
:100F70007047000010B5024800F078FF10BD000077
:100F80006400002010B5024800F070FF10BD0000A2
:100F90007C00002010B50022002340F66A14A14214
:100FA00000D100BF0A1201249440A3B2DC430480A4
:100FB00010BD21B1828942F40052828104E082890D
:100FC0004DF6FF731A408281704770B502460024C7
:100FD00000230025002040F66A16B14200D100BF70
:100FE000C1F3421501F01F03012606FA03F3012D98
:100FF00002D19689334006E0022D02D1168A334091
:1010000001E0968A33400C12012606FA04F4168891
:10101000344013B10CB1012000E0002070BD00008D
:101020002DE9F04786B005460E460024A24600BFD3
:10103000A1460027B08900B100BF2F462C8A4CF68C
:10104000FF700440F08804432C82AC894EF6F31004
:101050000440B08831890843718908430443AC8156
:10106000AC8A4FF6FF400440B0890443AC8201A82B
:10107000FFF768FC1F48874202D1DDF810A001E0AD
:10108000DDF80CA0A88900F4004040B10AEBCA00CA
:1010900000EB0A1031684900B0FBF1F807E00AEBF9
:1010A000CA0000EB0A1031688900B0FBF1F8642037
:1010B000B8FBF0F004012009642101FB1089A88924
:1010C00000F4004040B1322000EBC900B0FBF1F069
:1010D00000F00700044308E0322000EB091064210F
:1010E000B0FBF1F000F00F0004432C8106B0BDE826
:1010F000F08700000038014001468888C0F30800EE
:101100007047000070B50446204600F02FF80546F1
:10111000124800EB0410806850B14DB10F4800EB4D
:101120000410007920B90D4901EB0411886880474B
:101130000A4800EB0410C06850B14DB9074800EBF5
:101140000410007920B1054901EB0411C8688047FB
:10115000024800EB0410057170BD0000340000204F
:1011600010B501210846FFF7B7FB10BD70B5054665
:10117000064800EB05100468A1882068FFF74EFBC5
:1011800008B9012070BD0020FCE7000034000020F9
:101190000349086000BF024909680029FBD1704774
:1011A0002C00002001480068704700002800002043
:1011B00038B504460D4603208DF802008DF8035023
:1011C000A088ADF8000069462068FFF753FA38BDE3
:1011D00038B504460D4603208DF802008DF8035003
:1011E000A088ADF8000069462068FFF743FA38BDD3
:1011F00038B504460D4603208DF802008DF80350E3
:10120000A088ADF8000069462068FFF733FA38BDC2
:1012100010B50446A1882068FFF709FB10BD10B582
:101220000446A1882068FFF704FB10BD10B50446F2
:1012300000BFA1882068FFF7FAFA00BF10BD10B503
:10124000044600BFA1882068FFF7F3FA00BF10BD75
:1012500010B510210348FFF7ABFF10210248FFF73C
:10126000A7FF10BD381F0008401F00089AB050218A
:1012700006A8FEF7C9FF00F083F800F0B3FDFFF702
:10128000E7FFFFF765FD1F204FF6FF73C2024AF626
:1012900055510090032000F0B9FB00F0FBFA01214A
:1012A0000420FFF709FB03A8FFF75AFE0020ADF862
:1012B0000E004FF4E150ADF80C0041F28830ADF86B
:1012C000100003A92A48FFF7F9FD0122114628481A
:1012D000FFF7E9FD01212648FFF7C5FD1E208DF827
:1012E000080000208DF809008DF80A0001208DF813
:1012F0000B0002A8FFF7A8FA00F0E0FD00F064F888
:1013000000F0C2F801201B490870FFF74BFF0546AB
:101310002CE000BFFFF746FFA842FBD0FFF742FFDB
:1013200005464FF4FA7095FBF0F100FB1150E8B957
:1013300010480078012819D100F03AF80446C82C6A
:1013400006DD0D48FFF77BFF0C48FFF76FFF09E054
:10135000002C07DDC82C05DA0848FFF770FF0648A7
:10136000FFF764FF00200349087000BFD1E70000C9
:1013700000080040BA07002060200008682000082C
:1013800010B5FFF7EDFE01210420FFF7A5FA0121BA
:101390000820FFF7A1FA01211020FFF79DFA012193
:1013A0002020FFF799FA01214020FFF795FA10BDA0
:1013B00004490988B12251434FF47A72B1FBF2F02B
:1013C00070470000BC07002000B589B008A8FFF7EF
:1013D00032FA01210220FFF76FFA05A8FFF7C0FDDE
:1013E0000020ADF816004820ADF8140005A92448E7
:1013F000FFF764FD01212248FFF735FD012104209C
:10140000FFF76AFA10208DF823000220ADF82000C3
:1014100008A91C48FFF72EF901210846FFF75CFADE
:101420000420ADF8100048208DF8130002208DF83C
:10143000120004A91348FFF71DF908208DF80400D5
:1014400000208DF805008DF8060001208DF80700BA
:1014500001A8FFF7F9F902210020FFF7EBF80420BB
:10146000029001208DF80E0000208DF80C00102055
:101470008DF80D0002A8FFF793F809B000BD000039
:10148000000400400008014010B502210648FFF7A3
:10149000D0F9002400E0641CB4F5E44FFBDB02212A
:1014A0000148FFF7C4F910BD000801402DE9F041E3
:1014B00086B004460F4615461E46DDF8308020688B
:1014C00000F04AF918216068FFF782FE05F4004039
:1014D00048B1B6F5827F01D1A16800E0E168084615
:1014E0001821FFF775FE05F4404048B1B6F5827F3C
:1014F00001D1E16800E0A16808461821FFF768FE05
:10150000206901287ED020690228FBD020690428A8
:10151000F8D020690828F5D06A4920698842F1D0BE
:101520006849203120698842ECD0674920698842A7
:10153000E8D0654980312069884263D063492069D9
:1015400088425FD06249206988425BD06149206946
:10155000884257D060492069884253D05F4920694A
:1015600088424FD02069B0F5805F4BD02069B0F53C
:10157000EA1F7CD02069B0F5EB1F78D02069B0F568
:10158000004F74D056492069884270D0491C2069A8
:1015900088426CD0891C2069884268D0091D206966
:1015A000884264D04E490F31206988425FD020695B
:1015B000B0F1201F5BD04FEAF1312069884256D04C
:1015C00048492069884252D04749206988424ED014
:1015D0004649206988424AD045492069884246D018
:1015E00044492069884242D02069B0F5011F3ED0AD
:1015F0004149206988423AD0491C2069884236D046
:10160000891C00E033E02069884230D0091D206940
:1016100088422CD038490F312069884227D036497A
:101620001F312069884222D033493F3120698842E6
:101630001DD031497F312069884218D02E49FF31B1
:101640002069884213D02D49206988420FD02C4947
:10165000206988420BD02B492069884207D02A494B
:101660002069884203D029492069884203D1012199
:101670002069FFF78BF8ADF80450ADF80660ADF8BF
:1016800008800220ADF80A000120ADF80C004002ED
:10169000ADF80E00ADF810700020ADF8120001A9F1
:1016A0002068FFF7B7FA01212068FFF775FA0021DB
:1016B0002068FFF765FA00212068FFF7C9FA06B035
:1016C000BDE8F08110001400400016000001180071
:1016D000000218000003180000081A00000C1A008D
:1016E0000100200000013000000230000004300042
:1016F0000011200000202000010000800002008076
:10170000000400800008008000100080002000809D
:1017100070B5044660212068FFF75DFA68B1206863
:10172000FFF773FA0546606910B1E8B2616988474E
:1017300060212068FFF73CFA0DE071212068FFF777
:101740004AFA40B1A06910B1A169206888477121A7
:101750002068FFF72DFA70BD10B504460B4884428F
:1017600004D101218014FFF7B7F80EE00848844245
:1017700004D101210014FFF79FF806E005488442D8
:1017800003D10121C013FFF797F810BD00300140CD
:1017900000380040003C004070B504460D4600BFD4
:1017A00002212068FFF70EFA0028F9D029462068A8
:1017B000FFF72EFA70BD000010B5024630480078E1
:1017C00000EBC00303EB00102E4B03EBC00002EB59
:1017D000820300EB4300405C2B4B1B7803EBC304FC
:1017E00004EB0313274C04EBC30302EB820403EB6B
:1017F00044035B5C98423FD12148007800EBC00372
:1018000003EB0010214B03EB001002EB820300EB13
:10181000830030F811001C4B1B7803EBC30404EB6E
:1018200003131A4C04EB031302EB820403EB84034F
:1018300033F8113098421FD11148007800EBC003F3
:1018400003EB0010124B03EB001002EB820300EBE2
:10185000830030F811000C4B1B7803EBC30404EB3E
:1018600003130B4C04EB031302EB820403EB84031E
:1018700033F81130984201D0012010BD0020FCE760
:10188000C2060020C0070020C30600205009002027
:10189000700C002010B5002006490880002404E0E8
:1018A000204600F00BF8601CC4B203480078844264
:1018B000F6DB10BDBC060020C106002010B50146B5
:1018C000002032E020221B4B1B7803EBC30404EB07
:1018D0000313194C04EBC30300EB800403EB440334
:1018E0005A54164A1288134B1B7803EBC30404EBBB
:1018F0000313134C04EB031300EB800403EB84038A
:1019000023F811200F4A12880A4B1B7803EBC304FB
:1019100004EB03130C4C04EB031300EB800403EB08
:10192000840323F81120421CD0B2084A1278904256
:10193000C8DB10BDC2060020C0070020B40600208E
:1019400050090020B0060020700C0020C0060020C6
:1019500010B5002423E01549085D00F027FA13486C
:10196000005D362805D11249124A1278885C00F0D1
:101970002BFA0EE00D48005DFF2806D1611C0C46D5
:101980000A4A505CFFF704FC03E00849085D00F0D8
:101990001BFA601C04460549085C4328EAD1601C18
:1019A00004460249085C4228D5D110BDA81F000892
:1019B00019200008BA06002001200149087070476C
:1019C000BB06002070B505460F49087800EBD071C2
:1019D0004910A0EB410131B18023A022002108462B
:1019E00000F0A6F805E0A02380220021084600F0C0
:1019F0009FF8002403E0284600F0CEF9641CB4F5FB
:101A0000A04FF8D370BD0000BA0600202DE9F041C8
:101A100004460D4616461F46DDF8188000202E4964
:101A200008802E49087001202D4908702D48047047
:101A30000146087800EBD0714910A0EB410109B1D3
:101A4000012100E00221284A11702649087800EBA4
:101A5000D0714910A0EB410109B1022100E0012140
:101A6000224A117000F0C2F800F046F8FFF770FF4C
:101A7000284600F051F8304600F0B2F8384600F041
:101A8000A9F8404600F04EF82846FFF79BFF204695
:101A900004EBD0714910A4EB410109B1142100E01D
:101AA0001021134A1170204604EBD0714910A4EBA9
:101AB000410109B1082100E00A210E4A1170FFF727
:101AC0007BFFFFF7E7FE00F0ABF8FFF7E3FE00F067
:101AD000A7F8BDE8F0810000BC060020C206002087
:101AE000C3060020BA060020B8060020B906002070
:101AF000C0060020C106002010B50648FFF788FB8D
:101B00006420FFF745FB0348FFF789FB6420FFF7DC
:101B10003FFB10BD981F0008014908807047000076
:101B2000B00600200149088070470000B20600207E
:101B30002DE9F05F04460D4692469B4626462F4609
:101B400004EB0A001FFA80F805EB0B001FFA80F97E
:101B50001D480078304486B21C480078384487B26B
:101B60001948007840441FFA80F818480078484423
:101B70001FFA80F92A2000F019F9300A00F024F940
:101B8000F0B200F021F94FEA182000F01DF908F03A
:101B9000FF0000F019F92B2000F008F9380A00F0D6
:101BA00013F9F8B200F010F94FEA192000F00CF91F
:101BB00009F0FF0000F008F92C2000F0F7F80448C5
:101BC000FFF72DFBBDE8F09FB8060020B906002006
:101BD000A01F00080149088070470000B6060020D9
:101BE0000149088070470000B406002008B50020B5
:101BF0004FF482734FF44042014600900548FFF7CE
:101C000055FC10210448FFF7F3FA10210348FFF7B1
:101C1000EFFA08BD94000020981F0008A01F0008DC
:101C20002DE9F05F00250027A8465248007808B942
:101C3000BDE8F09F002686E000247DE03146204686
:101C4000FFF7BAFD002875D0012501E0681C05B238
:101C5000601949490978884206DA6119C8B23146E3
:101C6000FFF7AAFD0028F1D10123C3EBC5039AB207
:101C70003101E0000F23FFF75BFF4FF0000853E056
:101C80003E48007800EBC00101EB00103C4901EB3D
:101C9000C000E11901EB810100EB4100805D2038BB
:101CA000384901EB001A4FF0080930E01AF8080033
:101CB000A9F10101084100F0010080B12F4800782E
:101CC00000EBC00101EB00102F4901EB0010E119FE
:101CD00001EB810100EB810030F816000FE027488E
:101CE000007800EBC00101EB0010284901EB001067
:101CF000E11901EB810100EB810030F81600834609
:101D0000584600F049F8A9F1010000F0FF09B9F1C7
:101D1000000FCBDC781CC0B20746A84204D10027D4
:101D200008F1010000F0FF08B8F1100FA8DB681EF1
:101D30002044C4B2601CC4B20F4800788442FFF64D
:101D40007DAF701CC6B2124800788642FFF674AFB1
:101D50000A48007808B9012000E00020074908700F
:101D60000C48007808B9012000E0002009490870FB
:101D700000BF5DE7BB060020C0060020C2060020B1
:101D8000C0070020B000002050090020700C002087
:101D9000C1060020C306002010B50446201200F042
:101DA00013F8E0B200F010F810BD000010B50446C2
:101DB0000348FFF72DFA21460248FFF7EDFC10BD5E
:101DC000A01F00089400002010B504460348FFF748
:101DD00026FA21460248FFF7DFFC10BDA01F0008CD
:101DE0009400002038B500208DF801008DF8020025
:101DF00001208DF80300FF208DF800006846FEF7F3
:101E000023FD164800684FF47A72B0FBF2F1B1F18D
:101E1000807F00D31DE021F07F40401E4FF0E02284
:101E2000506150170F22002807DA13071D0E0C4BC4
:101E300000F00F04241F1D5503E013071C0E094B6F
:101E40001C5400BF00204FF0E02290610720106179
:101E500000BF00200449086038BD000014000020C5
:101E600018ED00E000E400E02800002070B5044612
:101E700040F225512068FFF7A8F870B12068FFF7FD
:101E80003BF90546E06810B1E8B2E168884740F2E6
:101E900025512068FFF77EF80EE040F22771206898
:101EA000FFF793F840B1206908B12069804740F2FC
:101EB00027712068FFF76EF870BD000000B585B08F
:101EC000012144F20400FEF707FD4FF40070ADF865
:101ED000100018208DF8130003208DF8120004A9BB
:101EE0001348FEF7C7FB4FF48060ADF810000420E4
:101EF0008DF8130004A90E48FEF7BCFB4FF4E13047
:101F000000900020ADF80400ADF80600ADF8080020
:101F1000ADF80C000C20ADF80A0069460548FFF743
:101F20007FF801210348FFF744F805B000BD000029
:101F3000000801400038014000100140020000008C
:101F400000100140040000000010014000200000CB
:101F5000001001400040000000100140008000001F
:101F600000080140000200000008014000040000D9
:101F700000100140000400000010014000080000B3
:101F8000000C014000200000000C01400040000057
:101F9000000C014000800000000C01400010000017
:101FA000000C0140004000000011FF0A43B1012C69
:101FB0002D43B2012C2D43B3012C2D012C2D43B404
:101FC0000743C0A2028443C1C543C20A0043C38A77
:101FD0002A43C48AEE43C50E433643E00F1A0F1856
:101FE0002F2820221F1B23370007021043E10F1B5D
:101FF0000F17332C292E3030393F00070310432AA6
:102000000000007F432B0000009F43F00143F600D7
:10201000433A054329432C4342C0A000600000001E
:10202000000801400100000000080140020000001B
:102030000008014004000000000801400800000002
:1020400000080140100000000008014020000000CE
:10205000000801404000000000080140800000002E
:1020600000100140020000000010014004000000C8
:102070009020000800000020C00700002801000890
:102080005C240008C0070020900E000084010008B6
:10209000412D010203040410090607080902040681
:1020A0000884A24A046918C113481FC208DA5010F4
:1020B000DA5810111D3801406014EA681812481BE4
:1020C0004070149A781812101A1430111B408014A2
:1020D0001A8804EA903401111008183C3C3C181886
:1020E00018190341E5666666243D6C6CFE6C043984
:1020F0002E580B187CC6C2C07C0686C67C3121587F
:1021000009C2C60C183060C686AD500A6C6C3876B1
:10211000DCCCCCCC76D530303060192C390163184A
:102120000C19093901931830AE663CFF3C66A37B5D
:10213000187E6D89149931110A11FED879322B025B
:1021400006A063C080580B7CC6C6CED6D6E6C6C6EF
:102150007C281B38784C19016A7E20492F5AC654B6
:1021600019106E063C060606301F0C1C3C6CCCFE9B
:10217000B15A1E7B8EC0C0C0FC0E201B3860101AE6
:10218000C60159101AFE4049F479802AC604692014
:10219000290C1A7E60BB0C78BA99F1591069EF3995
:1021A0009FA530180C0619AB59AE31391C2924797A
:1021B000601A0CDE895119115EDEDEDEDCC0802F74
:1021C00010386CC6C6FE91611EFC6666667C0463B0
:1021D00066FC1C3C66C2E265C0C2663C2BF86C1D06
:1021E0005D66666CF87C580966626878686062664D
:1021F0008259109C6060F04066DEC6C6663A296A65
:10220000396F59701A3C9D390159602B1E0C0165BC
:10221000CCCCCC781FE6666C6C78787562E61AF0E8
:102220005B190179709EC6EEFEFED6508FC6E6F6AB
:10223000FEDECE1029DF29019B6C38E0294259A02F
:102240004A7C1F7ED6DE7C0C0E2029E459701920B2
:10225000600860380C06C6C67CBC7E7E5AB0493F1A
:1022600019015920590E9C6C3810106ED6D6FE6C90
:102270006C101E6C6C38386C9661196A9B663C5009
:10228000580AFEC6860C183060C2C6E05B3C3001BE
:10229000592011580A80C0E070381C0E0602205ADE
:1022A0000C0139201A10EF011922FF0412303018E6
:1022B0006008780C7CCCCCCC762EE06060786C9595
:1022C00092DC6E7CC6C0C0C0E01A1C6A1A6C2F6912
:1022D0003039208AFE201F386C6460F0600192F073
:1022E0002A762F4ECC7C0CCC78602B6C766062E624
:1022F0001318181A38FE5B1818E01306063B0E0672
:10230000012B66661319301C666C78935930492D81
:102310008930312CECFED601912ADC5F9B6666A0E9
:10232000290159A079207A7CA369A05B0C1E20BBEF
:102330007662C06E7CC660380C401E103030FC30B7
:102340000193361C393F93CC76395F933C18197D45
:102350008DD6D6FE6C10AF6C3838386CC62019019B
:10236000657E060CF86008FECC183060C6FE1A0EBA
:10237000EB2A70F0620E290B39055960291C2924BB
:102380005B1870CDC2DCCAFF0101161211101E12BB
:102390004617201814192F1A1E320429142C1E2A2D
:1023A00004427F4D0963E064FF65206612671014E4
:1023B00013F00D810FC5142122FF23012434253C85
:1023C00026A12B101E6BAA13FF695D900A91019242
:1023D000019301945F95539611971A983D995A9AD3
:1023E0001E9B10329C25A765A8659E81A6067E0CC3
:1023F0007F16802A814E8261836F847B8586868EDC
:10240000879788A489AF8AC58BD78CE88D20A9804F
:10241000AA80ACFF3316229923034A100E491347B2
:10242000084B144C1746050CD00E824D1320203358
:10243000080F2A280822012A300822022A380822F6
:10244000032A400822042A480822052A50082206A6
:0C2450002A580872077A10F09100000072
:04000005080000ED02
:00000001FF
