:020000040800F2
:1000000050160020750200087D0200087F020008DB
:100010008102000883020008850200080000000039
:10002000000000000000000000000000870200083F
:1000300089020008000000008B0200086526000805
:100040008F0200088F0200088F0200088F0200084C
:100050008F0200088F0200088F0200088F0200083C
:10006000351D00088F0200088F020008FD1B0008E4
:100070008F0200088F0200088F0200088F0200081C
:100080008F0200088F020008851B00088F020008FD
:100090008F0200088F0200088F020008811D0008EF
:1000A0008F0200088F0200088F0200088F020008EC
:1000B0008F0200088F020008ED2600088F0200085A
:1000C0008F0200088F0200088F0200088F020008CC
:1000D00025240008292800088F0200083928000874
:1000E000C91C00088F0200088F02000800F002F807
:1000F00000F0B0F80AA090E8000C82448344AAF112
:100100000107DA4501D100F0A5F8AFF2090EBAE80F
:100110000F0013F0010F18BFFB1A43F0010318473B
:10012000A03B0000C03B00000A444FF0000C10F858
:10013000013B13F0070408BF10F8014B1D1108BF65
:1001400010F8015B641E05D010F8016B641E01F805
:10015000016BF9D113F0080F1EBF10F8014BAD1C55
:100160000C1B09D16D1E58BF01F801CBFAD505E073
:1001700014F8016B01F8016B6D1EF9D59142D6D3CD
:10018000704700000023002400250026103A28BFF5
:1001900078C1FBD8520728BF30C148BF0B607047F9
:1001A0006E2900F06181702900F0A382662903F0B6
:1001B0006984652903F06684672903F063846129F3
:1001C00003F0628403681B0A28BF41F0800169299B
:1001D00000F00E81642900F00B81752900F0088180
:1001E0006F2900F03082782900F06F82E92900F051
:1001F000CB81E42900F0C881F52900F0C581EF2901
:1002000000F02D82F82900F06E820368DB0928BF18
:1002100041F08001632900F07187732900F076872F
:10022000E32900F08187F32900F0868700207047DA
:100230001FB500F0D3FF04000020002103F00CFCE8
:10024000401C60600020002103F0F0FBE0601FBD57
:1002500010B510BD00F094FF1146FFF7E9FF02F062
:100260007BFC01F071F803B4FFF7F2FF03BC01F06F
:10027000B9F800000948804709480047FEE7FEE753
:10028000FEE7FEE7FEE7FEE7FEE7FEE7FEE7FEE746
:1002900004480549054A064B704700008D260008B2
:1002A000ED000008501000205016002050120020D1
:1002B000501200201CB50C46064B7B44694600904A
:1002C000204600F0EAF804460020694600F0F8F8FD
:1002D00020461CBD030200004FF0000200B513468B
:1002E00094469646203922BFA0E80C50A0E80C5056
:1002F000B1F12001BFF4F7AF090728BFA0E80C5007
:1003000048BF0CC05DF804EB890028BF40F8042BFF
:1003100008BF704748BF20F8022B11F0804F18BF6C
:1003200000F8012B704770477047704770B504465E
:1003300085690068C10601D5302600E02026C00787
:1003400007D070BDD4E9012130469047206A401C97
:1003500020626D1EF6D570BD70B5044685690078C3
:10036000C00707D170BDD4E9012120209047206A41
:10037000401C20626D1EF6D570BD09684A0501D586
:1003800040B27047C905FCD500B2704709684A05FC
:1003900001D5C0B27047C905FCD580B2704770B5B1
:1003A0000C460546012A05D02878800600D5EA6962
:1003B000002302E0012305E05B1C934202D2E05CD3
:1003C0000028F9D1A869E618C01AA861286A18445B
:1003D00028622846FFF7AAFF04E0D5E9012114F8B6
:1003E000010B9047B442F8D32846FFF7B5FF70BD24
:1003F0002DE9F0410646002410687529314616A5FE
:1004000010D0FFF7BAFF002802DA404213A507E038
:1004100031688A0701D512A502E0490704D511A564
:10042000012401E0FFF7B2FF00210A2206F12407B0
:1004300009E0B0FBF2FCB0FBF2F302FB1C00303031
:1004400078541846491C0028F3D123462A463046E2
:10045000BDE8F04100F061BA000000002D0000008E
:100460002B0000002000000011680268006A53059C
:1004700001D508700AE0D30501D5088006E013060F
:1004800003D5C217C1E9000200E0086001207047EF
:1004900001694A1C02610878704700B58FB0CDE948
:1004A00001310021059105497944CDE90310114638
:1004B000684600F029F90FB000BD0000E5FFFFFF1E
:1004C0000A6802F8010B0A60704700002DE9FF5F1F
:1004D00015468A460446DFF8AC80F8440027D8E980
:1004E00000103E46CDE9001010E03AF816106A46BA
:1004F00002A800F025FE411C07D02178890603D50B
:10050000E269391891420DD80744761C207880069C
:1005100002D5E069B84205DDAE42E6DB3AF81600E6
:100520000028E2D1A069C01BA0612046FFF7FEFEB3
:10053000D8E90010CDE90010002017E03AF81810B3
:100540006A4602A800F0FCFDB0F1FF3F81460BD0E7
:1005500000250DF1080B05E0D4E901211BF8050089
:1005600090476D1C4D45F7D308F10100B04280461D
:10057000E4DB206A384420622046FFF7EDFEBDE848
:10058000FF9F0000E63600002DE9F0418046D21DB5
:1005900022F007020025D2E90002F52915A614D0A1
:1005A000011E72F1000106DA0023D0EB030063EBB9
:1005B000020211A608E0D8F800108B0701D50FA69B
:1005C00002E0490701D50EA601251146002408F1D5
:1005D000240704E000F05CF930323A55641C50EA1C
:1005E0000102F7D12B46324621464046BDE8F04194
:1005F00000F093B9000000002D0000002B00000067
:100600002000000030B4002100F1240408E002F0D2
:100610000705D208303542EA4372DB086554491CAD
:1006200052EA0305F3D10468002310A2250707D579
:10063000A40600D421B1C46901230DA2641EC461C3
:1006400030BC00F06AB910B5044621461068FFF7C7
:100650009DFE02462046BDE810400023D2E7D21D91
:1006600022F00701D1E90023CCE7000000000000E0
:1006700030000000F0B40D460188090502D5214C78
:100680007C4402E01F4C7C440E34002100F124061F
:1006900008E002F00F071209E75D42EA03721B0946
:1006A0007754491C52EA0307F3D10278002312075A
:1006B00004D5702D06D009B1022311342246F0BCB6
:1006C00000F02BB901231034F8E770B504460D464D
:1006D00021461068FFF75AFE024629462046BDE82B
:1006E00070400023C6E7D21D22F00703D3E90023A0
:1006F000C0E70368126843F0200303600823C36166
:100700000023B7E7483500002DE9F05F894604462D
:100710004FF0000ADFF874B1FB44C0F820A0204677
:10072000E1688847002874D0252806D0D4E9012143
:100730009047206A401C2062F1E700265F46204671
:10074000E16888472028054607DB312D05D2781956
:1007500010F8200C08B10643F1E7B00701D526F0E8
:100760000406C4F81CA00027C4F818A02A2D09D03C
:10077000284602F063F938B304EB8708303DC8F827
:10078000185019E059F8041B204604EB87029161C8
:10079000E1688847012F054618D1E069002820DA72
:1007A00026F020061DE0D8F8180000EB800005EBCD
:1007B00040003038C8F818002046E16888470546F0
:1007C00002F03CF90028EED1012F0AD02E2D08D1DD
:1007D0002046E16888477F1C0546022F46F0200628
:1007E000C4DBA069002803DA404246F00106A0619C
:1007F000F00701D026F010066C2D0BD0682D09D023
:100800004C2D39D06A2D35D0742D35D07A2D33D07A
:1008100016E038E0E1682F4620468847B842054692
:1008200009D16C2F26D04FF48060E1680643204642
:100830008847054604E06C2F1AD04FF480700643B9
:100840000DB3A5F14100192802D8203546F4006601
:100850004A462946204626604E46FFF7A1FC80B155
:1008600001280BD0F61D26F0070000F1080956E715
:100870004020E4E78020D8E70020D6E706F104090D
:100880004DE7284652E7206ABDE8F09FD8340000C3
:1008900030B5B0F10A024FEA900E71F100034EEA52
:1008A000817EB0EB0E0061EB91014FEA101E4EEA23
:1008B000017E10EB0E0041EB11114FEA102E4EEAB3
:1008C000016E10EB0E0041EB11214FEA104E4EEA83
:1008D000014E10EB0E0041EB1141401841F10001B7
:1008E0004FEAD00040EA41704FEAD10110EB800599
:1008F0004FEA810444EA907444EB01046D1944EB1F
:100900000404521BA3414FF0000348BF0A3200D534
:1009100030BD401C41F1000130BD2DE9F0470D46CE
:1009200099469246044600F124080168880604D5D9
:10093000E06921F01001216000E00120A84201DD02
:10094000471B00E00027A1697A1902EB0900081A89
:10095000A0612078C00602D42046FFF7E7FC0026FD
:1009600008E0D4E901211AF806009047206A401CEB
:10097000761C20624E45F4DB2078C0060AD520465E
:10098000FFF7D4FC06E0D4E9012130209047206A2B
:10099000401C2062381EA7F10107F4DC07E0D4E90F
:1009A000012118F805009047206A401C2062281E8B
:1009B000A5F10105F3DC2046FFF7CEFC2078000608
:1009C00002D50220BDE8F0870120FBE770472DE942
:1009D000FF4F0C461E464FF0FF378BB0D2E90001A7
:1009E000DDF860800A908A46C1F30A5505B93D4694
:1009F000002108464FF00000BAF1000F00F440005B
:100A000005DA00EB80004FF4400101EA50004FEAA4
:100A10009059B9F1010F00DDB9460A9850EA4A0031
:100A20000ED044F61050A5F2FF3545432F14B8F10F
:100A3000000F1ED07542291E1EDDC9F100021CE008
:100A4000B8F1010F4FF0000001D0302103E0F24374
:100A500005E02154401CB042FBDB3046002200215F
:100A600021540B99C1F80880C1E900200FB0BDE8FE
:100A7000F08FBD1B6D1CDEE74A4600DA694206A80E
:100A800000F0F0FB06AB93E8070003AB83E8070038
:100A900050460A9900F0ADFC8DE80700A0F5005023
:100AA0001F3800900398002D0ADD42F21F014A46CC
:100AB0000844002303A90390684600F016FF09E0EC
:100AC000A0F500504A461F38002303A9039068464A
:100AD00000F020FF8DE807000004000C03D04FF069
:100AE000FF30410800E01046B8F1000F03D00022AB
:100AF000009215461EE0751E05D4FFF7C9FE303280
:100B000062556D1EF9D5B3460122084302D000227A
:100B10007F1C04E02078302801D100227F1E002AAB
:100B2000099784D01DE0112D07DAFFF7B1FE3032AE
:100B300062556D1C50EA0102F5D1084302D00098BD
:100B4000C8B10EE00021681E05E0235C625C6354BE
:100B50002254401E491C8142F7DBAB46A81B401EB5
:100B60000990002004F80B000B98099AC0F808803F
:100B7000C0E9002B7AE711264FF0000857E72DE96E
:100B8000F04F88460446D21D22F0070191B0D1E90A
:100B90000001CDE90A0101F00EFF02460B98C00FDB
:100BA00001D02D2007E02068810701D52B2002E02D
:100BB000202101EAC000032A099001D0072A05DBA1
:100BC00003464146204600F00DFB0BE120788006ED
:100BD00001D5E06900E00620B8F1650F814606D036
:100BE000B8F1660F18D0B8F1670F70D131E000206E
:100BF000B9F1110F009001DB112301E009F10103AC
:100C00000AAA01A90CA8FFF7E2FEDDE90C70002694
:100C100009F10105834647E001204B4600904FF063
:100C200000470AAA01A90CA8FFF7D1FEDDE90DB023
:100C30000C995D46002610B909F101000D18B9EBB9
:100C4000050003D4C0F1FF3609F10105A5EB090049
:100C50002BE0B9F1010F01DA4FF001090020B9F1E1
:100C6000110F0090484601DD112300E003460AAA57
:100C700001A90CA8FFF7ABFEDDE90C704D4600267C
:100C80008346207800070AD4AB4500DA5D4601A808
:100C9000012D04DD411911F8011C302907D04F4501
:100CA00002DA17F1040F04DA012082460FE06D1E0C
:100CB000EEE7002F02DCED1B3E4403E0781CA84267
:100CC00000DD7D1CB81B00F1010A4FF000472078C1
:100CD000000703D4AA4501DB4FF0FF3A0021B7F12A
:100CE000004F0DF143088DF8431024D002202B2330
:100CF000002F01DA7F422D230A21021EA0F10100FC
:100D000000DC5FB197FBF1FC97FBF1F201FB1C7C6F
:100D100017460CF1300C08F801CDEEE7A8F1010000
:100D200003702188090501D5452100E06521A0F166
:100D3000010800F8011C09980FA9A1EB0807FF1D85
:100D400000B10120411901EBEA70A1693844081A89
:100D5000401EA0612078C00602D42046FFF7E6FAC4
:100D6000099828B1D4E901219047206A401C2062EB
:100D70002078C00622D52046FFF7D8FA1EE0002EC4
:100D800004DBB34502DD01A8805D00E03020D4E93A
:100D900001219047206A401C2062761CAAF10100C4
:100DA0005FEA000A0AD100F019FAC0680168405CE5
:100DB000D4E901219047206A401C2062281EA5F139
:100DC0000105DCDC07E0D4E9012118F8010B9047AC
:100DD000206A401C2062381EA7F10107F3DC204680
:100DE000FFF7BAFA032011B041E600002DE9F04FF9
:100DF00004460D46D21D22F0070089B0D0E90097C5
:100E00004846394601F0D7FD0246F80F01D02D23A0
:100E100007E02068810701D52B2302E0202101EAA9
:100E2000C0038DF820300BB1012000E00020032A20
:100E3000824601D0072A04DB2946204600F0D2F979
:100E40003FE12078800601D40D2500E0E569C7F375
:100E50000A560D2D49DA00214FEA175B08464FF07C
:100E60000000002F00F4400007DA00EB80004FF490
:100E7000400100EBD07001EA60008115012901DD1D
:100E80004FF0FF3100224FEA850CBCF1180F06D35A
:100E90001346ACF118004FF08052C24003E04FF40B
:100EA000801323FA0CF30CF10C0CBCF1200F04D3CB
:100EB000ACF1200C09FA0CF001E007FA0CF0002963
:100EC0004FF0004801DD18B90FE00ED140450CD3BA
:100ED00019EB02095F4121B9404502D19F4329EA3C
:100EE0000209BBEB175F00D0761C2088000502D5F5
:100EF0007B48784402E07A487844193808AA3023BD
:100F000002F80A30037C0AF10101002E0AF1020AFC
:100F100053546A4602DC4FF0300101E04FF03101DA
:100F20004FF001088DF8001002D0A6F2FF3603E062
:100F300059EA470100D06B4E002D02DC21780907E9
:100F400004D54FF002082E218DF80110C44600216F
:100F50000BE0C7F303433F01C35C491C6D1E02F85D
:100F60000830052908F1010801DA002DF1DC002123
:100F70000CE000EB1973491C1B786D1E082902F860
:100F800008304FEA091908F1010801DA002DF0DCF8
:100F900021688B0602D516E0A8F10108E04505DDC1
:100FA00002EB080313F8013C302BF5D0B8F1000F29
:100FB00009DD02EB080313F8013C2E2B03D10907CE
:100FC00001D4A8F10108002D05DD3E2102F808102A
:100FD0006D1E08F10108407C002E02F8080008F19F
:100FE000010804DA2D20764202F8080002E02B20E6
:100FF00002F808000A214FF47A70864208F10108CD
:101000000BDB96FBF0F3303302F8083096FBF0F37D
:1010100008F1010800FB136601E0642E0CDB64207C
:1010200096FBF0F3303302F8083096FBF0F308F14A
:10103000010800FB136601E00A2E06DB96FBF1F0C7
:10104000303002F8080008F1010896FBF1F001FBCE
:101050001060303002F80800A16908F1010808EBBF
:10106000050202EB0A00081AA0612078C00602D42B
:101070002046FFF75BF9216A08AE01EB0A00206207
:1010800004E0D4E9012116F8010B9047BAF1010AF6
:10109000F7D22078C00602D52046FFF747F96E4602
:1010A00009E016F8010B3E280FD0D4E90121904742
:1010B000206A401C2062B8F10108F2D22046FFF7F6
:1010C0004BF909B00320BDE8F08F206A2844206264
:1010D00003E0D4E90121302090476D1EEBD3F8E7FF
:1010E000222D000002FCFFFF10B5436913B1AFF3DE
:1010F000008001E0FFF753F9012010BD127800F1E4
:1011000024010A7000224A700122EDE711684FF0B5
:10111000FF32E9E710B5436913B1AFF3008001E096
:10112000FFF7D4F9012010BD128800F12401828458
:101130000022C2840122EDE711684FF0FF32E9E797
:1011400070B516460C46054600F040F8036893F863
:101150000101012806D0FF2C0FD8185D68B10120CD
:101160002C7070BDD3F807013246214603F20713F5
:1011700003442846BDE8704018474FF0FF3070BD6B
:10118000754600F0EBF8AE4605006946534620F080
:101190000700854618B020B5FFF77AF8BDE8204073
:1011A0004FF000064FF000074FF000084FF0000B23
:1011B00021F00701AC46ACE8C009ACE8C009ACE8D6
:1011C000C009ACE8C0098D467047000010B500F0BA
:1011D00005F8001D10BD00BF8128000000487047C1
:1011E000101000202DE9F0411F4604460326016837
:1011F000072A01F4006004DB08B116A505E016A576
:1012000003E008B115A500E015A521F0100020604D
:10121000A069C01EA0610FB1401EA0612046FFF76B
:1012200085F84FB1D4E9012138469047206A401C27
:101230002062C01C206206E0206AFAE7D4E901219E
:1012400015F8010B9047761EF8D22046FFF784F878
:10125000BDE8F0814E414E006E616E00494E460081
:10126000696E66002DE9F047814616468AB035481A
:1012700078440DC88DE80D0032487844801C03ACDA
:101280000DC884E80D0041F69B300844372190FBDF
:10129000F1F290FBF1F5A5F1800501FB12041B3C76
:1012A00002D56442012000E00020DFF898A08046CB
:1012B0000027FA44AAF1BE0A0EE0E0070AD032463F
:1012C000684607EB470101230AEB810100F022FB8E
:1012D0008DE8070064107F1C002CEED1194F7F446D
:1012E000AE3F19E0E80715D007EB04100DF1180A1E
:1012F00090E80E008AE80E00C068F04201D198190B
:1013000008903246012306A903A800F003FB03ABB3
:1013100083E807006D10641C002DE3D14FF001033A
:1013200032466946B8F1000F03A802D000F0DDFA9A
:1013300001E000F0EFFAC9E90001C9F808200AB09D
:10134000BDE8F087342A000010B50446AFF30080F2
:101350002046BDE81040FEF786BF000000487047F9
:10136000F00F00204FF0013C50F8042B51F8043BE3
:101370009A4221D1A2EB0C03934313EACC1317D169
:1013800050F8042B51F8043B9A4215D1A2EB0C0300
:10139000934313EACC130BD150F8042B51F8043BC0
:1013A0009A4209D1A2EB0C03934313EACC13DBD08E
:1013B0004FF00000704700BFD01A01BAB1FA81F1B6
:1013C00001F0180122FA01F0CB40C1F12001DBB29B
:1013D000C0B2C01A2CFA01F3D11A914311EAC31119
:1013E000E6D1704701491820ABBEFEE72600020097
:1013F00070475FEA400C08BF91F0000F4FEA8C2362
:101400004FEAC12243EA51514FEA1C5018BF00F580
:10141000F0404FEA300018BF41F000415FEA6C5CD9
:1014200000F02980BCF1FF3F08BF40F080407047CA
:10143000130C06BF12044FF0100C4FF0000C130EEB
:1014400004BF12020CF1080C130F04BF12010CF1BF
:10145000040C930F04BF92000CF1020CD30F04BFD5
:1014600052000CF1010C11464FF00002A0F11F00D8
:10147000A0EB0C00704711F0004F08BF704731F02F
:1014800000413FF4D5AF0B0C06BF09044FF0100C20
:101490004FF0000C0B0E04BF09020CF1080C0B0FEF
:1014A00004BF09010CF1040C8B0F04BF89000CF17F
:1014B000020CCB0F04BF49000CF1010CCCF120034E
:1014C000A0EB0C0022FA03F302FA0CF241EA03014A
:1014D00000F10100704720F07F4C80EA030023F008
:1014E0007F47ACEB070303F57C5300F0004003F1AA
:1014F000FF032DE980494FEA154B09B44FEA144325
:1015000025EA0B4E24EA03480FF2042606EB1327C4
:1015100049083E785FEA320203FB0667C7F5000719
:1015200007FB06F64FEA54374FEAD64606F10206A5
:1015300007FB066CCCF1005C4FEA1C472CEA074C19
:1015400007FB06F40CFB06F504EB15464FEA96166E
:1015500034BF00204FF000404FEAD13706FB07FCB4
:101560004FEA1C4C0CFB0BF7D21B03FB0CF761EB97
:1015700007010CFB0EF7B0EB074072EB17420CFBB8
:1015800008F734BFA2EB0742B2EB074261EB174109
:101590004FEA0C444FEA910706FB07FC4FEA1C4C4C
:1015A0000CFB0BF7B0EBC74072EB573203FB0CF7A9
:1015B00034BFA2EBC742B2EBC74261EB57310CFB21
:1015C0000EF7B0EBC70072EB57720CFB08F734BF95
:1015D000A2EBC702B2EBC70261EB5771039F4FEA60
:1015E000816141EA921104EBCC044FEAD1374FEA12
:1015F000826206FB07FC42EA90124FEA80604FEAE3
:101600001C4C0CFB0BF7D21B03FB0CF761EB070127
:101610000CFB0EF7B0EB074072EB17420CFB08F720
:1016200034BFA2EB0742B2EB074261EB17414FEA2E
:101630008C554FEA910704EB9C2406FB07FC4FEA0C
:101640001C4C0CFB0BF7B0EBC74072EB573203FBA3
:101650000CF734BFA2EBC742B2EBC74261EB573184
:101660000CFB0EF7B0EBC70072EB57720CFB08F7E0
:1016700034BFA2EBC702B2EBC70261EB577115EBA7
:101680004C254FEA816141EA92114FEA82624FEAAA
:10169000D13742EA901206FB07FC44F100044FEAFE
:1016A00080604FEA1C4C0CFB0BF7D21B03FB0CF7C2
:1016B00061EB07010CFB0EF7B0EB074072EB174232
:1016C0000CFB08F734BFA2EB0742B2EB074261EB19
:1016D000174115EB1C154FEA813141EA92414FEA5F
:1016E000823242EA90424FEA80304FEA0C7644F16F
:1016F000000448EA03434EEA0B484FF0000EB2EBF9
:10170000080C71EB030724BF624639464EEB0E0E00
:101710004FF0000B0018524149414BEB0B0BB2EB61
:10172000080C71EB03077BF1000B24BF62463946BE
:101730004EEB0E0E4FF0000B0018524149414BEB9F
:101740000B0BB2EB080C71EB03077BF1000B24BF12
:10175000624639464EEB0E0E51EA020718BF46F0BC
:10176000010616EB0E7655F1000254F1000103D587
:10177000BDE88901BDE80088BDE88901BDE80048F1
:10178000B619524141EB0101A3F10103704780807A
:101790007F7E7D7C7B7A79787776767574737271CB
:1017A00071706F6E6E6D6C6C6B6A6A696868676683
:1017B00066656464636362616160605F5F5E5E5D15
:1017C0005D5C5C5B5B5A5A59595858575756565589
:1017D00055555454535352525251515050504F4FEB
:1017E0004F4E4E4D4D4D4C4C4C4B4B4B4A4A4A493B
:1017F000494948484847474747464646454545447E
:101800004444444343434342424242414141002B0A
:101810009C4630D477002BD01CB54FEA370703B471
:101820004FF010004FF01001BAF1000F06D0BCF1DC
:10183000000FDCBF40F0080040F008014FF000004E
:101840000FBCBDE810400BF1010BBBF1010F08BF4D
:101850005FEA170722BF12F1010211F101014FF0F7
:10186000004143F1000300F0004043EA00007047EC
:10187000F9D35708D0E746EA064613F1400F4FEA7E
:1018800016461FDD13F1200FDFBF16430A46002165
:1018900020335B42BED0C3F1200746EA064602FA77
:1018A00007F74FEA164646EA0706C3F1200722FA71
:1018B00003F201FA07F721FA03F14FF0000342EABD
:1018C0000702A7E746EA020646EA06464FEA164638
:1018D00046EA0106BCBF46EA0646360C4FF0000356
:1018E0004FF000024FF0000194E72DE9804C9A463A
:1018F000934670B491E8380007C831EA400C48BFFD
:1019000034EA430C03D5FFF7E6FDFFF780FFF0BC98
:10191000BDE8008C2DE9804C9A46934670B491E85E
:10192000380007C810F0804F08BF13F0804F03D174
:1019300000F005F8FFF76BFFF0BCBDE8008C20F06D
:101940007F4780EA030023F07F4C07EB0C03A3F5ED
:101950007C5300F00040A3F1FE0392F0000F00F072
:10196000B38095F0000F00F077802DE901494FEA30
:1019700011404FEA144621EA004800FB06FC24EA25
:10198000064708FB06F607FB08F800FB07F718EB0D
:1019900006484CEB164C4FEA124B18EB07484FEA3F
:1019A00015464CEB174022EA0B4E0BFB06FC25EAD2
:1019B00006470EFB06F607FB0EFE0BFB07F71EEBBA
:1019C000064E4CEB164C4FF000061EEB074E4CEB50
:1019D000174B18EB0B0840F1000018EB0E0B58EBFF
:1019E000000840F100008F1A4FF000013CBFC943CE
:1019F000661B14BFB5EB040C00213CBFC943F61BAA
:101A00004FEA17444EEA8E0E27EA04454FEA1C4778
:101A100004FB07622CEA074C05FB07F70CFB05F6F5
:101A200004FB0CFC16EB074642EB174216EB0C4688
:101A300042EB1C421BEB060658EB0202414146EA10
:101A40009E0601D5BDE80189B619524141EB01015D
:101A5000A3F10103BDE801894FEA14454FEA11479C
:101A600024EA054621EA074C05FB07F406FB07F7C5
:101A70000CFB06F105FB0CFC11EB074144EB174492
:101A80004FEA124711EB0C4144EB1C4422EA074C8D
:101A900005FB07F206FB07F70CFB06F605FB0CFC43
:101AA00016EB074642EB174216EB0C4642EB1C4581
:101AB0006A1854F1000148BF7047B619524141EB12
:101AC0000101A3F10103704795F0000F37D04FEAF1
:101AD00011424FEA144721EA024624EA074C02FB6E
:101AE00007F106FB07F70CFB06F402FB0CFC14EBFA
:101AF000074441EB17414FEA154714EB0C4441EB07
:101B00001C4125EA074C02FB07F506FB07F70CFB17
:101B100006F602FB0CFC16EB074645EB174516EBE9
:101B20000C4645EB1C42121951F1000148BF7047A9
:101B3000B619524141EB0101A3F1010370474FEA8D
:101B400014454FEA114724EA054621EA074C05FBF4
:101B500007F106FB07F70CFB06F24FF0000605FB4A
:101B60000CFC12EB074241EB174112EB0C4251EB1C
:101B70001C4148BF7047921841EB0101A3F10103DA
:101B80007047000010B54FF408710B4800F023F8BF
:101B900088B1094800F01BF80849094A127821F871
:101BA000120007480078401C054908704FF408717E
:101BB000014800F007F810BD00240140900F0020FC
:101BC000B807002000220A12D34303607047014681
:101BD000C86C80B2704770B5024600200023002414
:101BE0000B125568CEB205EA060415681D4015B102
:101BF0000CB1012000E0002070BD000010B50220F3
:101C000000F01AF838B104480078401C0249087006
:101C1000022000F003F810BDB807002000F080514A
:101C200011B10349086001E00249486070470000B3
:101C3000040402400000024001460020002201F09E
:101C4000805313B1054B1A6801E0054B1A6802EA8C
:101C500001030BB1012000E00020704700040240A6
:101C600000000240704770470F48007888B9042090
:101C70000E49086080020E49086001200A49087078
:101C800000030B49091F086004200849091F086068
:101C900009E005480078012805D1000304490860DF
:101CA00002200149087070476107002014140140A8
:101CB0001408014010B5002000F092FE10BD10B5D0
:101CC000012000F08DFE10BD10B51648006800F42C
:101CD000805028B1FFF7C8FF4FF4805000F0A0F803
:101CE0001048006800F4005028B1FFF7E3FF4FF4FC
:101CF000005000F095F80B48006800F4804028B1CF
:101D0000FFF7DDFF4FF4804000F08AF805480068D7
:101D100000F4004028B100F007F84FF4004000F054
:101D20007FF810BD1404014010B5022000F058FEE9
:101D300010BD000010B5042000F078F8A8B104210F
:101D40000A4800F0C5F918B10021094800F00EFD5D
:101D50000421064800F0BCF920B9054800F0E9FC70
:101D600004490880042000F05BF810BD0008014021
:101D700000040040BC070020704770477047704760
:101D800010B52548006800F0200020B1FFF7F4FFEF
:101D9000202000F045F82048006800F0400020B105
:101DA000FFF7EBFF402000F03BF81B48006800F015
:101DB000800020B1FFF7E2FF802000F031F81648E4
:101DC000006800F4807028B1FFF7D9FF4FF48070ED
:101DD00000F026F81048006800F4007028B100F008
:101DE0001DF84FF4007000F01BF80B48006800F479
:101DF000806028B1FFF736FF4FF4806000F010F8E4
:101E00000548006800F4006028B1FFF72CFF4FF48C
:101E1000006000F005F810BD140401407047000098
:101E20000149086070470000140401400146002089
:101E30000022074B1B6803EA0102054B14331B68A1
:101E40000B4013B10AB1012000E0002070470000F0
:101E500000040140002123498279002A3AD00A4631
:101E6000126803689A430B461A600A1D12680368D9
:101E70009A430B1D1A60027911440A6803681A43D9
:101E80000A60184A0832126803689A43154B0833EF
:101E90001A601A1D126803689A43124B0C331A60B9
:101EA0004279102A0ED11A1F126803681A430D4B8B
:101EB00008331A601A1D126803681A43094B0C3361
:101EC0001A600DE00749427911440A6803681A4311
:101ED0000A6005E0027911440A6803689A430A60BF
:101EE000704700000004014030B500228B071C0F32
:101EF0000F2303FA04F20B4B8C1053F82430934356
:101F0000084C8D1044F8253023468C1053F82430AB
:101F10008C07240F00FA04F42343024C8D1044F87C
:101F2000253030BD080001402DE9F0410246002572
:101F30000026002000230024002791F803C00CF0A5
:101F40000F0591F803C00CF0100CBCF1000F03D08A
:101F500091F802C04CEA050591F800C0BCF1000FF1
:101F600031D0146800202BE04FF0010C0CFA00F384
:101F7000B1F800C00CEA03069E4220D183004FF066
:101F80000F0C0CFA03F7BC4305FA03FC4CEA0404FB
:101F900091F803C0BCF1280F06D14FF0010C0CFAE8
:101FA00000FCC2F814C00AE091F803C0BCF1480F6D
:101FB00005D14FF0010C0CFA00FCC2F810C0401C17
:101FC0000828D1D31460B1F800C0BCF1FF0F34DD94
:101FD000546800202EE000F1080C4FF0010808FAC8
:101FE0000CF3B1F800C00CEA03069E4221D1830035
:101FF0004FF00F0C0CFA03F7BC4305FA03FC4CEA54
:10200000040491F803C0BCF1280F05D100F1080CBD
:1020100008FA0CF8C2F8148091F803C0BCF1480F1C
:1020200007D100F1080C4FF0010808FA0CF8C2F8CB
:102030001080401C0828CED35460BDE8F081000019
:10204000F0B50A46002300240021002500F00046D8
:10205000B6F1004F02D11D4EF16901E01B4E7168CF
:10206000C0F3034583B200F44016B6F5401F08D113
:1020700021F07061154E766826F07066134F7E6011
:1020800012E000F48016B6F5801F06D1032606FA8A
:1020900005F4A14341F0706106E0460D360103FAF4
:1020A00006F6B14341F0706122B1460D360103FAE4
:1020B00006F6314300F00046B6F1004F02D1034E60
:1020C000F16101E0014E7160F0BD000000000140CF
:1020D0000246002093680B400BB1012000E0002075
:1020E000704741617047016170474FF6FF71018091
:1020F000022181700421C1707047000070B5002179
:1021000000230F22C47804B3154C246804F4E0645F
:10211000C4F5E064210AC1F10403CA40447804FA1A
:1021200003F184781440214309010E4C0678A1552F
:10213000047804F01F050124AC4005786D11AD0052
:1021400005F1E025C5F8004109E0047804F01F0519
:102150000124AC40044D0678761145F8264070BD48
:102160000CED00E000E400E080E100E029B1064A67
:10217000D2690243044BDA6104E0034AD269824324
:10218000014BDA61704700000010024029B1064A95
:1021900092690243044B9A6104E0034A92698243C4
:1021A000014B9A6170470000001002400F48006820
:1021B00040F001000D490860084640680C4908409D
:1021C0000A494860084600680A490840074908600B
:1021D0000846006820F4802008600846406820F423
:1021E000FE0048604FF41F008860704700100240F6
:1021F0000000FFF8FFFFF6FE30B5002100220024AA
:1022000000232D4D6D6805F00C0121B1042905D086
:10221000082923D105E0294D056022E0274D0560FE
:102220001FE0254D6D6805F47012234D6D6805F4AF
:102230008034022505EB92421CB9214D55430560BF
:102240000BE01D4D6D6805F400351DB11C4D554367
:10225000056002E0194D5543056002E0174D056029
:1022600000BF00BF144D6D6805F0F0010909154D60
:102270006B5C0568DD4045600F4D6D6805F4E061FD
:10228000090A104D6B5C4568DD4085600A4D6D683C
:1022900005F46051C90A0B4D6B5C4568DD40C560B3
:1022A000054D6D6805F44041890B074D6B5CC568B1
:1022B000B5FBF3F5056130BD0010024000127A0055
:1022C00000093D00000000201000002010B501466C
:1022D0000022002300204A11012A02D1094C236860
:1022E00006E0022A02D1074C236A01E0054C636A2A
:1022F00001F01F02012494401C400CB1012000E0B9
:10230000002010BD001002400248406800F00C00A0
:10231000704700000010024001460020034A506848
:1023200020F0F000084350607047000000100240A9
:102330001149096821F480310F4A1160114609687A
:1023400021F480211160B0F5803F03D0B0F5802FDB
:102350000ED106E00849096841F48031064A11604F
:1023600007E00549096841F4A021034A116000E033
:1023700000BF00BF7047000000100240014600206F
:10238000034A506820F4E060084350607047000042
:102390000010024001460020034A506820F46050BB
:1023A00040EAC100506070470010024001490866D1
:1023B000704700000000424202460020044B58686B
:1023C00020F47C1042EA01031843014B5860704727
:1023D0000010024001460020034A506820F003002C
:1023E00008435060704700000010024038B50020DC
:1023F00000900024002500BF3120FFF767FF05464D
:102400000098401C00900098B0F5A06F01D0002DFE
:10241000F2D03120FFF75AFF08B1012400E0002478
:10242000204638BD10B5024800F0FAFD10BD00008E
:102430009400002021B1028842F40052028004E09E
:1024400002884DF6FF731A400280704721B102885E
:1024500042F04002028004E002884FF6BF731A4047
:102460000280704710B5002201F00F040123A34041
:102470009AB2D343038110BD0246002013890B405A
:102480000BB1012000E000207047F0B502460020AB
:1024900000240023002501F00F070126BE40B4B23E
:1024A0000B1101269E40B3B2968806EA03051689F1
:1024B000264016B10DB1012000E00020F0BD01461C
:1024C000888970478181704710B50022028802F424
:1024D00041520B884C8823438C882343CC88234368
:1024E0000C8923434C8923438C892343CC89234380
:1024F0001A430280838B4FF2FF74234083830B8A3D
:10250000038210BD21B1828842F00402828004E07F
:1025100082884FF6FB731A408280704710B500F036
:1025200001F810BD0CB50020019000903348006800
:1025300040F480303149086000BF3048006800F442
:10254000003000900198401C0190009818B9019843
:10255000B0F5A06FF1D12948006800F4003010B147
:102560000120009001E0002000900098012843D154
:102570002348006840F010002149086008460068C0
:1025800020F0030008600846006840F00200086080
:102590001A4840681949486008464068486008463B
:1025A000406840F4806048600846406820F47C1031
:1025B00048600846406840F4E810486008460068F3
:1025C00040F08070086000BF0C48006800F00070A8
:1025D0000028F9D00948406820F003000749486006
:1025E0000846406840F00200486000BF0348406869
:1025F00000F00C000828F9D10CBD000000100240CA
:102600000020024010B5FFF7D1FD4FF48030FFF7F6
:102610008FFEFFF7EBFE0446012C1FD10020FFF7D1
:102620007BFE0020FFF7B6FEA002FFF7A7FE4FF4E7
:10263000E0112004FFF7C0FE0120FFF7B7FE00BF46
:102640003920FFF743FE0028FAD00220FFF7C2FE30
:1026500000BFFFF759FE0828FBD101E000BFFEE7ED
:1026600010BD000006480068401C05490860054888
:102670000068401E03490860002003490870704745
:10268000280000202C0000203000002010B5134846
:10269000006840F001001149086008464068104990
:1026A00008400E494860084600680E4908400B493A
:1026B00008600846006820F48020086008464068EA
:1026C00020F4FE0048604FF41F008860FFF726FFEB
:1026D0004FF000600449086010BD00000010024087
:1026E0000000FFF8FFFFF6FE08ED00E010B5012145
:1026F000064800F021F840B100F04EFB01200449EB
:1027000008700121014800F005F810BD00080040E4
:10271000BA070020CA430282704721B1028842F002
:102720000102028004E002884FF6FE731A40028024
:1027300070470146888C704730B502460020002360
:102740000024158A05EA0103958905EA010413B1FD
:102750000CB1012000E0002030BD1AB183890B4389
:10276000838102E083898B43838170478184704732
:10277000002202881D4B98420ED01D4B98420BD070
:10278000B0F1804F08D01B4B984205D01A4B9842AD
:1027900002D01A4B984204D14FF68F731A404B88DF
:1027A0001A43174B984207D0164B984204D04FF665
:1027B000FF431A40CB881A4302808B8883850B889D
:1027C00003850A4B98420BD0094B984208D00E4B18
:1027D000984205D00D4B984202D00D4B984201D142
:1027E0000B7A03860123838270470000002C01408E
:1027F000003401400004004000080040000C00408C
:10280000001000400014004000400140004401401E
:10281000004801404FF6FF71818000210180C18096
:10282000418001727047000010B5024801F098F82D
:1028300010BD00006400002010B5024801F090F8BF
:1028400010BD00007C00002010B50022002340F6DF
:102850006A14A14200D100BF0A1201249440A3B21D
:10286000DC43048010BD21B1828942F40052828190
:1028700004E082894DF6FF731A408281704770B57B
:102880000246002400230025002040F66A16B142CB
:1028900000D100BFC1F3421501F01F03012606FA63
:1028A00003F3012D02D19689334006E0022D02D1B7
:1028B000168A334001E0968A33400C12012606FA4C
:1028C00004F41688344013B10CB1012000E000205C
:1028D00070BD00002DE9F04786B005460E46002485
:1028E000A24600BFA1460027B08900B100BF2F4615
:1028F0002C8A4CF6FF700440F08804432C82AC898B
:102900004EF6F3100440B0883189084371890843BA
:102910000443AC81AC8A4FF6FF400440B0890443C5
:10292000AC8201A8FFF768FC1F48874202D1DDF89E
:1029300010A001E0DDF80CA0A88900F4004040B12F
:102940000AEBCA0000EB0A1031684900B0FBF1F84D
:1029500007E00AEBCA0000EB0A1031688900B0FBFF
:10296000F1F86420B8FBF0F004012009642101FBB8
:102970001089A88900F4004040B1322000EBC90062
:10298000B0FBF1F000F00700044308E0322000EB58
:1029900009106421B0FBF1F000F00F0004432C811A
:1029A00006B0BDE8F0870000003801400146888885
:1029B000C0F308007047490050EAC12018BF042046
:1029C0004A0D18BF40F0010040F2FF72B2EB515FB8
:1029D00008BF40F00200012808BF05207047000032
:1029E00070B50446204600F037F80546124800EB63
:1029F0000410806850B14DB10F4800EB041000790D
:102A000020B90D4901EB0411886880470A4800EBA2
:102A10000410C06850B14DB9074800EB04100079AC
:102A200020B1054901EB0411C8688047024800EB5A
:102A30000410057170BD00003400002030380A28F1
:102A400001D2012070470020704710B501210846CF
:102A5000FFF79CFB10BD000070B50546064800EB73
:102A600005100468A1882068FFF732FB08B901202F
:102A700070BD0020FCE7000034000020034908601E
:102A800000BF024909680029FBD170472C000020D3
:102A900001480068704700002800002038B504464F
:102AA0000D4603208DF802008DF80350A088ADF884
:102AB000000069462068FFF737FA38BD38B504468C
:102AC0000D4603208DF802008DF80350A088ADF864
:102AD000000069462068FFF727FA38BD38B504467C
:102AE0000D4603208DF802008DF80350A088ADF844
:102AF000000069462068FFF717FA38BD10B5044694
:102B0000A1882068FFF7EDFA10BD10B50446A18832
:102B10002068FFF7E8FA10BD10B5044600BFA18891
:102B20002068FFF7DEFA00BF10BD10B5044600BFF5
:102B3000A1882068FFF7D7FA00BF10BD10B510219B
:102B40000348FFF7ABFF10210248FFF7A7FF10BDB6
:102B50008C3A0008943A00089AB0502106A8FDF774
:102B6000BBFB00F095F800F0B7FEFFF7E7FFFFF7BB
:102B700049FD1F204FF6FF73C2024AF655510090DF
:102B8000032000F0E3FB00F00DFB01210420FFF720
:102B9000EDFA03A8FFF73EFE0020ADF80E004FF45B
:102BA000E150ADF80C0041F28830ADF8100003A9F7
:102BB0002E48FFF7DDFD012211462C48FFF7CDFD21
:102BC00001212A48FFF7A9FD1E208DF808000020EA
:102BD0008DF809008DF80A0001208DF80B0002A87D
:102BE000FFF78CFA00F0E4FE00F076F800F0D4F87D
:102BF00001201F490870FFF74BFF054635E000BF75
:102C0000FFF746FFA842FBD0FFF742FF05466420CE
:102C100095FBF0F100FB115038BB154800780128F6
:102C200023D100F04DF8044600F0BCFA234611A26F
:102C30000021084600F000FC00F06CFDC82C06DD09
:102C40001148FFF772FF1148FFF766FF09E0002CFB
:102C500007DDC82C05DA0D48FFF767FF0A48FFF7C4
:102C60005BFF00200249087000BFC8E70008004071
:102C7000BA070020736F6E617220706F7369746998
:102C80006F6E200A25640000B43B0008BC3B0008BE
:102C900010B5FFF7DAFE01210420FFF777FA0121D2
:102CA0000820FFF773FA01211020FFF76FFA0121C6
:102CB0002020FFF76BFA01214020FFF767FA10BDD3
:102CC00004490988B12251434FF47A72B1FBF2F002
:102CD00070470000BC07002000B589B008A8FFF7C6
:102CE00004FA01210220FFF741FA05A8FFF792FD3F
:102CF0000020ADF816004820ADF8140005A92448BE
:102D0000FFF736FD01212248FFF707FD01210420CE
:102D1000FFF73CFA10208DF823000220ADF82000C8
:102D200008A91C48FFF700F901210846FFF72EFA11
:102D30000420ADF8100048208DF8130002208DF813
:102D4000120004A91348FFF7EFF808208DF80400DB
:102D500000208DF805008DF8060001208DF8070091
:102D600001A8FFF7CBF902210020FFF7BDF80420EE
:102D7000029001208DF80E0000208DF80C0010202C
:102D80008DF80D0002A8FFF765F809B000BD00003E
:102D9000000400400008014010B502210648FFF77A
:102DA000A2F9002400E0641C722CFCDB0221024822
:102DB000FFF797F910BD0000000801402DE9F04130
:102DC00086B004460F4615461E46DDF83080206862
:102DD00000F04AF918216068FFF770FE05F4004022
:102DE00048B1B6F5827F01D1A16800E0E1680846EC
:102DF0001821FFF763FE05F4404048B1B6F5827F25
:102E000001D1E16800E0A16808461821FFF756FEED
:102E1000206901287ED020690228FBD0206904287F
:102E2000F8D020690828F5D06A4920698842F1D095
:102E30006849203120698842ECD06749206988427E
:102E4000E8D0654980312069884263D063492069B0
:102E500088425FD06249206988425BD0614920691D
:102E6000884257D060492069884253D05F49206921
:102E700088424FD02069B0F5805F4BD02069B0F513
:102E8000EA1F7CD02069B0F5EB1F78D02069B0F53F
:102E9000004F74D056492069884270D0491C20697F
:102EA00088426CD0891C2069884268D0091D20693D
:102EB000884264D04E490F31206988425FD0206932
:102EC000B0F1201F5BD04FEAF1312069884256D023
:102ED00048492069884252D04749206988424ED0EB
:102EE0004649206988424AD045492069884246D0EF
:102EF00044492069884242D02069B0F5011F3ED084
:102F00004149206988423AD0491C2069884236D01C
:102F1000891C00E033E02069884230D0091D206917
:102F200088422CD038490F312069884227D0364951
:102F30001F312069884222D033493F3120698842BD
:102F40001DD031497F312069884218D02E49FF3188
:102F50002069884213D02D49206988420FD02C491E
:102F6000206988420BD02B492069884207D02A4922
:102F70002069884203D029492069884203D1012170
:102F80002069FFF75DF8ADF80450ADF80660ADF8C4
:102F900008800220ADF80A000120ADF80C004002C4
:102FA000ADF80E00ADF810700020ADF8120001A9C8
:102FB0002068FFF789FA01212068FFF747FA00210E
:102FC0002068FFF737FA00212068FFF79BFA06B068
:102FD000BDE8F08110001400400016000001180048
:102FE000000218000003180000081A00000C1A0064
:102FF0000100200000013000000230000004300019
:10300000001120000020200001000080000200804C
:103010000004008000080080001000800020008074
:1030200070B5044660212068FFF72FFA68B1206868
:10303000FFF745FA0546606910B1E8B26169884753
:1030400060212068FFF70EFA0DE071212068FFF77C
:103050001CFA40B1A06910B1A169206888477121AC
:103060002068FFF7FFF970BD10B504460B48844295
:1030700004D101218014FFF789F80EE0084884424A
:1030800004D101210014FFF771F806E005488442DD
:1030900003D10121C013FFF769F810BD00300140D2
:1030A00000380040003C004070B504460D4600BFAB
:1030B00002212068FFF7E0F90028F9D029462068AE
:1030C000FFF700FA70BD000010B5024630480078E6
:1030D00000EBC00303EB00102E4B03EBC00002EB30
:1030E000820300EB4300405C2B4B1B7803EBC304D3
:1030F00004EB0313274C04EBC30302EB820403EB42
:1031000044035B5C98423FD12148007800EBC00348
:1031100003EB0010214B03EB001002EB820300EBEA
:10312000830030F811001C4B1B7803EBC30404EB45
:1031300003131A4C04EB031302EB820403EB840326
:1031400033F8113098421FD11148007800EBC003CA
:1031500003EB0010124B03EB001002EB820300EBB9
:10316000830030F811000C4B1B7803EBC30404EB15
:1031700003130B4C04EB031302EB820403EB8403F5
:1031800033F81130984201D0012010BD0020FCE737
:10319000C2060020C0070020C306002050090020FE
:1031A000700C002010B5002006490880002404E0BF
:1031B000204600F00BF8601CC4B20348007884423B
:1031C000F6DB10BDBC060020C106002010B501468C
:1031D000002032E020221B4B1B7803EBC30404EBDE
:1031E0000313194C04EBC30300EB800403EB44030B
:1031F0005A54164A1288134B1B7803EBC30404EB92
:103200000313134C04EB031300EB800403EB840360
:1032100023F811200F4A12880A4B1B7803EBC304D2
:1032200004EB03130C4C04EB031300EB800403EBDF
:10323000840323F81120421CD0B2084A127890422D
:10324000C8DB10BDC2060020C0070020B406002065
:1032500050090020B0060020700C0020C00600209D
:1032600010B5002423E01549085D00F019FB134850
:10327000005D362805D11249124A1278885C00F0A8
:103280001DFB0EE00D48005DFF2806D1611C0C46B9
:103290000A4A505CFFF7F2FB03E00849085D00F0C2
:1032A0000DFB601C04460549085C4328EAD1601CFC
:1032B00004460249085C4228D5D110BDFC3A0008FA
:1032C0006D3B0008BA0600200120014908707047D4
:1032D000BB06002070B505460F49087800EBD07199
:1032E0004910A0EB410131B18023A0220021084602
:1032F00000F098F905E0A02380220021084600F0A4
:1033000091F9002403E0284600F0C0FA641CB4F5EB
:10331000A04FF8D370BD0000BA060020084800880E
:10332000401C07490880002006490880044800889E
:1033300005490978884202DB00200149088070476E
:10334000BC060020BE060020C10600202DE9F04189
:1033500004460D4616461F46DDF8188000202E490B
:1033600008802E49087001202D4908702D480470EE
:103370000146087800EBD0714910A0EB410109B17A
:10338000012100E00221284A11702649087800EB4B
:10339000D0714910A0EB410109B1022100E00121E7
:1033A000224A117000F09CF900F06CF8FFF758FF0A
:1033B000284600F077F8304600F08CF9384600F0E7
:1033C00083F9404600F028F92846FFF783FF20469E
:1033D00004EBD0714910A4EB410109B1142100E0C4
:1033E0001021134A1170204604EBD0714910A4EB50
:1033F000410109B1082100E00A210E4A1170FFF7CE
:1034000063FFFFF7CFFE00F085F9FFF7CBFE00F07A
:1034100081F9BDE8F0810000BC060020C206002052
:10342000C3060020BA060020B8060020B906002016
:10343000C0060020C10600200FB430B5C1B004465C
:103440000D460E480078844203DA0D480078854224
:1034500003DB41B030BC5DF814FB47A8009001A825
:10346000009A4699FCF726FF0020009001AA294601
:10347000204600F01DF800BFEBE70000C00600206A
:10348000C106002010B50648FFF738FB6420FFF79F
:10349000F5FA0348FFF739FB6420FFF7EFFA10BD98
:1034A000EC3A00080149088070470000B00600208F
:1034B0002DE9F05F0746884614463E4645464FF0E4
:1034C000000AD346D14685E020785D2816D006DC78
:1034D0000A280CD00D2809D05B2828D10DE07B28C4
:1034E00014D07C281BD07D2821D110E000BF681C9F
:1034F000C5B20026FFF712FF6AE000BF20785B2804
:1035000001D1012000E00020824661E000BF207868
:103510007B2801D1012000E00020834658E0B9F16A
:10352000000F01D1012000E00020814650E020780A
:10353000B9F1000F01D0802100E0002108432B49A0
:10354000097801EBC10202EB0111294A02EBC1012A
:1035500006EB860201EB42014855BAF1000F02D09A
:103560002448008801E0244800882049097801EBBC
:10357000C10202EB0111214A02EB011106EB8602A6
:1035800001EB820121F81500BBF1000F02D01C48AD
:10359000028801E01B4802881448007800EBC00153
:1035A00001EB0010184901EB00133046711CCEB23C
:1035B00000EB800003EB800020F815201348007812
:1035C000864204D1681CC5B20026FFF7A7FE00BFE3
:1035D00000BF641C207820B10D4800788542FFF6BA
:1035E00073AF0C480680BDE8F09F0000C2060020C3
:1035F000C0070020B6060020B406002050090020B5
:10360000B2060020B0060020700C0020C00600208A
:10361000C1060020BE060020014908807047000056
:10362000B20600202DE9F05F04460D4692469B4607
:1036300026462F4604EB0A001FFA80F805EB0B0024
:103640001FFA80F91D480078304486B21C48007883
:10365000384487B21948007840441FFA80F8184867
:10366000007848441FFA80F92A2000F019F9300A3E
:1036700000F024F9F0B200F021F94FEA182000F030
:103680001DF908F0FF0000F019F92B2000F008F9EF
:10369000380A00F013F9F8B200F010F94FEA1920D7
:1036A00000F00CF909F0FF0000F008F92C2000F000
:1036B000F7F80448FFF729FABDE8F09FB8060020A4
:1036C000B9060020F43A000801490880704700005C
:1036D000B60600200149088070470000B4060020AB
:1036E00008B500204FF482734FF440420146009029
:1036F0000548FFF763FB10210448FFF7EFF910219D
:103700000348FFF7EBF908BD94000020EC3A0008ED
:10371000F43A00082DE9F05F00250027A84652483A
:10372000007808B9BDE8F09F002686E000247DE01F
:1037300031462046FFF7C8FC002875D0012501E07E
:10374000681C05B2601949490978884206DA61198E
:10375000C8B23146FFF7B8FC0028F1D10123C3EB12
:10376000C5039AB23101E0000F23FFF75BFF4FF072
:10377000000853E03E48007800EBC00101EB001068
:103780003C4901EBC000E11901EB810100EB410074
:10379000805D2038384901EB001A4FF0080930E00D
:1037A0001AF80800A9F10101084100F0010080B1F8
:1037B0002F48007800EBC00101EB00102F4901EB0E
:1037C0000010E11901EB810100EB810030F81600D7
:1037D0000FE02748007800EBC00101EB00102849FA
:1037E00001EB0010E11901EB810100EB810030F8E1
:1037F00016008346584600F049F8A9F1010000F090
:10380000FF09B9F1000FCBDC781CC0B20746A84213
:1038100004D1002708F1010000F0FF08B8F1100FF3
:10382000A8DB681E2044C4B2601CC4B20F480078F4
:103830008442FFF67DAF701CC6B212480078864203
:10384000FFF674AF0A48007808B9012000E00020B4
:10385000074908700C48007808B9012000E00020F2
:103860000949087000BF5DE7BB060020C0060020C4
:10387000C2060020C0070020B00000205009002030
:10388000700C0020C1060020C306002010B50446BD
:10389000201200F013F8E0B200F010F810BD0000A4
:1038A00010B504460348FFF729F921460248FFF7FF
:1038B000FBFB10BDF43A00089400002010B504464C
:1038C0000348FFF722F921460248FFF7EDFB10BD40
:1038D000F43A00089400002038B500208DF801006B
:1038E0008DF8020001208DF80300FF208DF8000004
:1038F0006846FEF703FC164800684FF47A72B0FB86
:10390000F2F1B1F1807F00D31DE021F07F40401E35
:103910004FF0E022506150170F22002807DA1307FA
:103920001D0E0C4B00F00F04241F1D5503E0130760
:103930001C0E094B1C5400BF00204FF0E022906188
:103940000720106100BF00200449086038BD000056
:103950001400002018ED00E000E400E02800002042
:1039600070B5044640F225512068FEF788FF70B11B
:103970002068FFF71BF80546E06810B1E8B2E1687F
:10398000884740F225512068FEF75EFF0EE040F2C6
:1039900027712068FEF773FF40B1206908B12069E4
:1039A000804740F227712068FEF74EFF70BD00008F
:1039B00000B585B0012144F20400FEF7E7FB4FF4A7
:1039C0000070ADF8100018208DF8130003208DF85A
:1039D000120004A91348FEF7A7FA4FF48060ADF86F
:1039E000100004208DF8130004A90E48FEF79CFA7D
:1039F0004FF4E13000900020ADF80400ADF806006F
:103A0000ADF80800ADF80C000C20ADF80A006946CE
:103A10000548FEF75FFF01210348FEF724FF05B0CC
:103A200000BD0000000801400038014010B5002929
:103A30000AD00878002807D005487844FDF792FCA2
:103A4000002801D0002010BD0248784410BD0000BD
:103A5000A60200009E02000010B500290AD00878D6
:103A6000002807D005487844FDF77CFC002801D0E9
:103A7000002010BD0248784410BD000096020000EE
:103A80008E020000FDF77BB8FDF7B0B900100140D1
:103A9000020000000010014004000000001001407E
:103AA0000020000000100140004000000010014014
:103AB00000800000000801400002000000080140F2
:103AC000000400000010014000040000001001404C
:103AD00000080000000C014000200000000C014024
:103AE00000400000000C014000800000000C01407C
:103AF00000100000000C0140004000000011FF0A0F
:103B000043B1012C2D43B2012C2D43B3012C2D01C7
:103B10002C2D43B40743C0A2028443C1C543C20A4B
:103B20000043C38A2A43C48AEE43C50E433643E0AA
:103B30000F1A0F182F2820221F1B233700070210EF
:103B400043E10F1B0F17332C292E3030393F00076C
:103B50000310432A0000007F432B0000009F43F026
:103B60000143F600433A054329432C4342C0A000D9
:103B70006000000000080140010000000008014052
:103B8000020000000008014004000000000801409D
:103B9000080000000008014010000000000801407B
:103BA0002000000000080140400000000008014023
:103BB00080000000001001400200000000100140E1
:103BC000040000000000000000000000303132332B
:103BD0003435363738394142434445464030580041
:103BE0003031323334353637383961626364656673
:103BF00040307800040000080000000000000002CF
:103C00000001000010303132333435363738396135
:103C1000626364656678700030313233343536372C
:103C200038394142434445465850000002400000A4
:103C3000000000A00000000005400000000000C8D7
:103C4000000000000C4000000000409C000000004C
:103C5000194000000020BCBE0000000034400000FD
:103C6000BFC91B8E00000004B5400000504BCFD0F0
:103C70006607E2CF010000006C4100003E8251AABD
:103C8000DFEEA73401000000D9420000DCB5A0E25D
:103C90003A301F97FFFFFFFFB4450000FD25A0C885
:103CA000E9A3C14FFFFFFFFFFF3F000000000080BE
:103CB00000000000FF3F0000000000800000000046
:103CC0000C3E000800000020C0070000280100088A
:103CD000D8410008C0070020900E000084010008B1
:103CE0001C00000043000000F8FFFFFF0C00000074
:103CF0000E0000000F0000002E0000001001000068
:103D000043000000F8FFFFFF0040404040404040BB
:103D1000404041414141414040404040404040409E
:103D20004040404040404040400502020202020242
:103D30000202020202020202022020202020202091
:103D400020202002020202020202909090909090A5
:103D50001010101010101010101010101010101063
:103D600010101010020202020202888888888888D7
:103D700008080808080808080808080808080808C3
:103D800008080808020202024000000000000000CB
:103D90000000000000000000000000000000000023
:103DA0000000000000000000000000000000000013
:103DB0000000000000000000000000000000000003
:103DC00000000000000000000000000000000000F3
:103DD00000000000000000000000000000000000E3
:103DE00000000000000000000000000000000000D3
:103DF00000000000000000000000000000000000C3
:103E0000000000000000000000000000412D010241
:103E10000304041009060708090204060884A24ADC
:103E2000046918C1139C3AC208DAA410DAAC101164
:103E30001D380140B414EABC1812481B40C4149A3F
:103E4000CC1812101A1430111B40D4141ADC04EAD6
:103E5000E43401111008183C3C3C181818190341AF
:103E6000E5666666243D6C6CFE6C04392E580B18B2
:103E70007CC6C2C07C0686C67C31215809C2C60CED
:103E8000183060C686AD500A6C6C3876DCCCCCCC71
:103E900076D530303060192C390163180C19093986
:103EA00001931830AE663CFF3C66A37B187E6D899B
:103EB000149931110A11FED879322B0206A063C081
:103EC00080580B7CC6C6CED6D6E6C6C67C281B3824
:103ED000784C19016A7E20492F5AC65419106E0673
:103EE0003C060606301F0C1C3C6CCCFEB15A1E7BF7
:103EF0008EC0C0C0FC0E201B3860101AC6015910BD
:103F00001AFE4049F479802AC6046920290C1A7ED9
:103F100060BB0C78BA99F1591069EF399FA5301838
:103F20000C0619AB59AE31391C292479601A0CDE04
:103F3000895119115EDEDEDEDCC0802F10386CC6C0
:103F4000C6FE91611EFC6666667C046366FC1C3CD2
:103F500066C2E265C0C2663C2BF86C1D5D66666C8D
:103F6000F87C580966626878686062668259109CBD
:103F70006060F04066DEC6C6663A296A396F5970DD
:103F80001A3C9D390159602B1E0C0165CCCCCC78B4
:103F90001FE6666C6C78787562E61AF05B19017939
:103FA000709EC6EEFEFED6508FC6E6F6FEDECE1042
:103FB00029DF29019B6C38E0294259A04A7C1F7EE9
:103FC000D6DE7C0C0E2029E4597019206008603878
:103FD0000C06C6C67CBC7E7E5AB0493F19015920EA
:103FE000590E9C6C3810106ED6D6FE6C6C101E6C80
:103FF0006C38386C9661196A9B663C50580AFEC64C
:10400000860C183060C2C6E05B3C30015920115864
:104010000A80C0E070381C0E0602205A0C013920BC
:104020001A10EF011922FF04123030186008780CC2
:104030007CCCCCCC762EE06060786C9592DC6E7C8B
:10404000C6C0C0C0E01A1C6A1A6C2F693039208AB9
:10405000FE201F386C6460F0600192F02A762F4ECB
:10406000CC7C0CCC78602B6C766062E61318181A46
:1040700038FE5B1818E01306063B0E06012B666639
:104080001319301C666C78935930492D8930312CC6
:10409000ECFED601912ADC5F9B6666A0290159A03F
:1040A00079207A7CA369A05B0C1E20BB7662C06E6F
:1040B0007CC660380C401E103030FC300193361C3A
:1040C000393F93CC76395F933C18197D8DD6D6FE57
:1040D0006C10AF6C3838386CC6201901657E060C40
:1040E000F86008FECC183060C6FE1A0EEB2A70F09D
:1040F000620E290B39055960291C29245B1870CDE3
:10410000C2DCCAFF0101161211101E124617201838
:1041100014192F1A1E320429142C1E2A04427F4D12
:104120000963E064FF6520661267101413F00D81C7
:104130000FC5142122FF23012434253C26A12B1076
:104140001E6BAA13FF695D900A910192019301947D
:104150005F95539611971A983D995A9A1E9B103263
:104160009C25A765A8659E81A6067E0C7F16802AE1
:10417000814E8261836F847B8586868E879788A433
:1041800089AF8AC58BD78CE88D20A980AA80ACFF27
:104190003316229923034A100E491347084B144C37
:1041A0001746050CD00E824D13743B33080F2A7C42
:1041B0000822012A840822022A8C0822032A940851
:1041C00022042A9C0822052AA40822062AAC087286
:0841D000077A10F091000000D5
:04000005080000ED02
:00000001FF
