:020000040800F2
:1000000090160020C9010008D1010008D3010008A2
:10001000D5010008D7010008D90100080000000040
:10002000000000000000000000000000DB010008EC
:10003000DD01000800000000DF010008190D0008C4
:10004000E3010008E3010008E3010008E301000800
:10005000E3010008E3010008E3010008E3010008F0
:10006000E3010008E3010008E30100083904000887
:10007000E3010008E3010008E3010008E3010008D0
:10008000E3010008E301000885020008E30100081D
:10009000E3010008E3010008E30100087905000816
:1000A000E3010008E3010008E3010008E3010008A0
:1000B000E3010008E3010008E3010008E301000890
:1000C000E3010008E3010008E3010008E301000880
:1000D000390B0008D9110008E3010008E9110008F4
:1000E00005050008E3010008E301000800F002F83C
:1000F00000F05AF80AA090E8000C82448344AAF168
:100100000107DA4501D100F04FF8AFF2090EBAE865
:100110000F0013F0010F18BFFB1A43F0010318473B
:10012000B4280000D42800000A444FF0000C10F856
:10013000013B13F0070408BF10F8014B1D1108BF65
:1001400010F8015B641E05D010F8016B641E01F805
:10015000016BF9D113F0080F1EBF10F8014BAD1C55
:100160000C1B09D16D1E58BF01F801CBFAD505E073
:1001700014F8016B01F8016B6D1EF9D59142D6D3CD
:10018000704700000023002400250026103A28BFF5
:1001900078C1FBD8520728BF30C148BF0B607047F9
:1001A0001FB51FBD10B510BD00F031F81146FFF7A7
:1001B000F7FF01F0B9FA00F04FF803B4FFF7F2FFD0
:1001C00003BC00F057F80000094880470948004781
:1001D000FEE7FEE7FEE7FEE7FEE7FEE7FEE7FEE7F7
:1001E000FEE7FEE704480549054A064B7047000054
:1001F000410D0008ED00000890100020901600202E
:10020000901200209012002070477047704775468A
:1002100000F02CF8AE4605006946534620F0070072
:10022000854618B020B5FFF7DDFFBDE820404FF050
:1002300000064FF000074FF000084FF0000B21F0D0
:100240000701AC46ACE8C009ACE8C009ACE8C0099D
:10025000ACE8C0098D46704710B50446AFF3008086
:100260002046BDE81040FFF7A8BF000000487047D7
:100270003010002001491820ABBEFEE72600020026
:100280007047000010B54FF408710B4800F023F8D8
:1002900088B1094800F01BF80849094A127821F88A
:1002A000120007480078401C054908704FF4087197
:1002B000014800F007F810BD00240140D00F0020D5
:1002C000B807002000220A12D3430360704701469A
:1002D000C86C80B2704770B502460020002300242D
:1002E0000B125568CEB205EA060415681D4015B11B
:1002F0000CB1012000E0002070BD00002DE9F047A6
:1003000005204A49086048604FF00108B42601F012
:100310006DF9814686E000BF01F068F94845FBD0E1
:1003200001F064F981460125B8F1010F79D100246B
:1003300071E03F4830F81400B42821D003DC50B1FC
:100340005A2861D131E0B0F5877F43D0A0F20F1079
:10035000002859D155E0364830F81400871B002F8B
:1003600001DB384600E07842B42802D168420546F5
:1003700000E028460146002000F0A6FA002644E0EE
:100380002B4830F81400871B002F01DB384600E0B3
:100390007842B42802D16842054600E0284601466A
:1003A000B42000F091FAB4262FE0214830F8140070
:1003B000871B002F01DB384600E07842B42802D1C9
:1003C0006842054600E0284601465A2000F07CFAC3
:1003D0005A261AE0164830F81400871B002F01DB5C
:1003E000384600E07842B42802D16842054600E071
:1003F000284601464FF4877000F066FA4FF487767E
:1004000003E000F0A5FE00E000BF00BF40F6B830FA
:1004100001F0E2F8641C07480068844289DB4FF071
:10042000020800E077E700BFBDE8F087F007002092
:10043000CC070020EC07002010B5022000F01AF8CD
:1004400038B104480078401C02490870022000F0CE
:1004500003F810BDB807002000F0805111B1034926
:10046000086001E00249486070470000040402404F
:100470000000024001460020002201F0805313B129
:10048000054B1A6801E0054B1A6802EA01030BB13B
:10049000012000E0002070470004024000000240FC
:1004A000704770470F48007888B904200E490860EB
:1004B00080020E49086001200A49087000030B49B8
:1004C000091F086004200849091F086009E0054861
:1004D0000078012805D10003044908600220014981
:1004E000087070476107002014140140140801408F
:1004F00010B5002001F00EF810BD10B5012001F07C
:1005000009F810BD10B51648006800F4805028B1F5
:10051000FFF7C8FF4FF4805000F07EF810480068E5
:1005200000F4005028B1FFF7E3FF4FF4005000F053
:1005300073F80B48006800F4804028B1FFF7DDFF36
:100540004FF4804000F068F80548006800F400406F
:1005500028B100F007F84FF4004000F05DF810BD3E
:100560001404014010B5022000F0D4FF10BD704704
:10057000704770477047000010B52548006800F0CC
:10058000200020B1FFF7F3FF202000F045F82048BD
:10059000006800F0400020B1FFF7EAFF402000F0C3
:1005A0003BF81B48006800F0800020B1FFF7E1FF36
:1005B000802000F031F81648006800F4807028B1FF
:1005C000FFF7D8FF4FF4807000F026F8104800685D
:1005D00000F4007028B100F01DF84FF4007000F036
:1005E0001BF80B48006800F4806028B1FFF758FF43
:1005F0004FF4806000F010F80548006800F40060D7
:1006000028B1FFF74EFF4FF4006000F005F810BD71
:100610001404014070470000014908607047000061
:10062000140401402DE9F041024600250026002077
:1006300000230024002791F803C00CF00F0591F867
:1006400003C00CF0100CBCF1000F03D091F802C0F5
:100650004CEA050591F800C0BCF1000F31D01468D8
:1006600000202BE04FF0010C0CFA00F3B1F800C0B1
:100670000CEA03069E4220D183004FF00F0C0CFAC7
:1006800003F7BC4305FA03FC4CEA040491F803C0E9
:10069000BCF1280F06D14FF0010C0CFA00FCC2F897
:1006A00014C00AE091F803C0BCF1480F05D14FF027
:1006B000010C0CFA00FCC2F810C0401C0828D1D371
:1006C0001460B1F800C0BCF1FF0F34DD54680020A5
:1006D0002EE000F1080C4FF0010808FA0CF3B1F815
:1006E00000C00CEA03069E4221D183004FF00F0C9C
:1006F0000CFA03F7BC4305FA03FC4CEA040491F836
:1007000003C0BCF1280F05D100F1080C08FA0CF861
:10071000C2F8148091F803C0BCF1480F07D100F172
:10072000080C4FF0010808FA0CF8C2F81080401CC1
:100730000828CED35460BDE8F0810000F0B50A4629
:10074000002300240021002500F00046B6F1004FF0
:1007500002D11D4EF16901E01B4E7168C0F30345E3
:1007600083B200F44016B6F5401F08D121F0706145
:10077000154E766826F07066134F7E6012E000F426
:100780008016B6F5801F06D1032606FA05F4A143AC
:1007900041F0706106E0460D360103FA06F6B143FA
:1007A00041F0706122B1460D360103FA06F631437D
:1007B00000F00046B6F1004F02D1034EF16101E0B6
:1007C000014E7160F0BD00000000014002460020B3
:1007D00093680B400BB1012000E00020704741619D
:1007E00070470161704700BFFEE7000070B5044626
:1007F00000F0FCFE05462E46B4F1FF3F13D0012C5D
:1008000004D0022C1CD0032C3AD129E0E2B24FF4E0
:100810009661294800F0CEFFE2B24FF49661274876
:1008200000F0C8FF2DE0E2B24FF49661224800F0DC
:10083000C1FFE2B24FF49661204800F0BBFF20E018
:100840006042C2B21E48008881B21B4800F0B2FF6D
:10085000E2B21C48008881B2184800F0ABFF10E0FB
:10086000E2B21748008881B2134800F0A3FF60424B
:10087000C2B21448008881B2104800F09BFF00E02B
:1008800000BF00BF16E000BF00F0B0FEA842FBD0E2
:1008900000F0ACFE0546A81BB0F57A7F0ADB01220A
:1008A0001146054800F086FF01221146034800F07A
:1008B00081FF70BDE7E700000C2800081C28000835
:1008C000C4070020C807002070B505460C46E2B2F8
:1008D0004FF496612D4800F06DFFE2B24FF496613F
:1008E0002B4800F067FF00F081FE06464CE000BF99
:1008F00000F07CFEB042FBD000F078FE06462548B2
:100900000068012806D1002000F00AF910B9002083
:1009100020490860002000F003F9012834D11D4867
:10092000006880BB01201B490860E2B20121174822
:1009300000F040FFE2B20121154800F03BFF3DB15D
:100940005A2D11D0B42D09D0B5F5877F18D111E0FB
:1009500011480068401C1049086012E00E48006809
:10096000401E0D4908600CE00B484068401E0A49D3
:10097000486006E008484068401C0749486000E0BD
:1009800000BF00BF70BDFFE7B1E700000C28000802
:100990001C280008F8070020F007002070B500218F
:1009A00000230F22C47804B3154C246804F4E064D7
:1009B000C4F5E064210AC1F10403CA40447804FA92
:1009C00003F184781440214309010E4C0678A155A7
:1009D000047804F01F050124AC4005786D11AD00CA
:1009E00005F1E025C5F8004109E0047804F01F0591
:1009F0000124AC40044D0678761145F8264070BDC0
:100A00000CED00E000E400E080E100E029B1064ADE
:100A1000D2690243044BDA6104E0034AD26982439B
:100A2000014BDA61704700000010024029B1064A0C
:100A300092690243044B9A6104E0034A926982433B
:100A4000014B9A61704700000010024030B5002150
:100A50000022002400232D4D6D6805F00C0121B10A
:100A6000042905D0082923D105E0294D056022E09D
:100A7000274D05601FE0254D6D6805F47012234D6C
:100A80006D6805F48034022505EB92421CB9214DB6
:100A9000554305600BE01D4D6D6805F400351DB133
:100AA0001C4D5543056002E0194D5543056002E0B9
:100AB000174D056000BF00BF144D6D6805F0F001D3
:100AC0000909154D6B5C0568DD4045600F4D6D688B
:100AD00005F4E061090A104D6B5C4568DD408560F6
:100AE0000A4D6D6805F46051C90A0B4D6B5C456891
:100AF000DD40C560054D6D6805F44041890B074D2B
:100B00006B5CC568B5FBF3F5056130BD00100240B4
:100B100000127A0000093D000000002010000020B3
:100B200070B50546034850F82540A1882068FFF7B6
:100B30004DFE70BDBC07002010B5024801F02CF836
:100B400010BD00009400002021B1028842F4005240
:100B5000028004E002884DF6FF731A40028070475D
:100B600021B1028842F04002028004E002884FF680
:100B7000BF731A400280704710B5002201F00F04C5
:100B80000123A3409AB2D343038110BD0246002043
:100B900013890B400BB1012000E000207047F0B535
:100BA0000246002000240023002501F00F07012643
:100BB000BE40B4B20B1101269E40B3B2968806EA3D
:100BC00003051689264016B10DB1012000E0002072
:100BD000F0BD0146888970478181704710B50022B9
:100BE000028802F441520B884C8823438C882343AB
:100BF000CC8823430C8923434C8923438C8923438A
:100C0000CC8923431A430280838B4FF2FF74234025
:100C100083830B8A038210BD21B1828842F00402D3
:100C2000828004E082884FF6FB731A40828070470E
:100C300010B500F001F810BD0CB500200190009037
:100C40003348006840F480303149086000BF3048C4
:100C5000006800F4003000900198401C019000985A
:100C600018B90198B0F5A06FF1D12948006800F4D7
:100C7000003010B10120009001E0002000900098A9
:100C8000012843D12348006840F010002149086042
:100C90000846006820F0030008600846006840F03D
:100CA000020008601A4840681949486008464068D0
:100CB00048600846406840F48060486008464068E4
:100CC00020F47C1048600846406840F4E810486012
:100CD0000846006840F08070086000BF0C4800685B
:100CE00000F000700028F9D00948406820F00300A7
:100CF000074948600846406840F00200486000BF6D
:100D00000348406800F00C000828F9D10CBD000031
:100D1000001002400020024006480068401C0549BF
:100D2000086005480068401E034908600020034928
:100D300008707047280000202C00002030000020A0
:100D400010B51348006840F00100114908600846DA
:100D50004068104908400E494860084600680E493E
:100D600008400B4908600846006820F480200860AD
:100D70000846406820F4FE0048604FF41F00886079
:100D8000FFF756FF4FF000600449086010BD0000F7
:100D9000001002400000FFF8FFFFF6FE08ED00E043
:100DA00021B1028842F08002028004E002884FF6FE
:100DB0007F731A400280704721B1028842F001021D
:100DC000028004E002884FF6FE731A4002807047EA
:100DD00031B1B0F8442042F40042A0F8442005E0CC
:100DE000B0F84420C2F30E02A0F84420704700007F
:100DF00070B5002400220023058C4FF6FE763540A6
:100E00000584028C8388048B4FF68F752C40B51EA9
:100E10002C400D882C43751E2A400D892A434D888D
:100E20002A43144DA8420BD0134DA84208D0134DAD
:100E3000A84205D0124DA84202D0124DA84213D1AB
:100E40004FF6F7752A404D892A434FF6FB752A4025
:100E50008D882A434FF6FF652B404FF6FF552B40F8
:100E60008D892B43CD892B4383800483CD88858650
:100E7000028470BD002C014000340140004001405C
:100E800000440140004801400A460021018B4FF612
:100E9000F7731940114301837047000070B50024B7
:100EA00000220023058C4FF6EF7635400584028C36
:100EB0008388048B48F6FF752C404FF6FF452C4085
:100EC0000D884FF6FF7606EA05252C434FF6DF75B1
:100ED0002A400D8906EA05152A434D8806EA0515BC
:100EE0002A43154DA84202D0144DA8421DD14FF6F9
:100EF0007F752A404D894FF6FF7606EA05152A438D
:100F00004FF6BF752A408D8806EA05152A434FF62D
:100F1000FF352B404FF2FF752B408D8906EA850582
:100F20002B43CD8906EA85052B4383800483CD8836
:100F30000587028470BD0000002C01400034014090
:100F40000A460021018B4FF2FF7319404FF6FF73E1
:100F500003EA0223194301837047000070B500249F
:100F600000220023058C4FF6FF6635400584028C75
:100F70008388848B4FF68F752C404FF6FC752C4080
:100F80000D882C434FF6FF552A400D894FF6FF760A
:100F900006EA05252A434D8806EA05252A43154D0C
:100FA000A84202D0144DA8421DD14FF2FF752A402D
:100FB0004D894FF6FF7606EA05252A434FF6FF35A1
:100FC0002A408D8806EA05252A434EF6FF752B40F8
:100FD0004DF6FF752B408D8906EA05152B43CD890B
:100FE00006EA05152B4383808483CD888587028498
:100FF00070BD0000002C0140003401400A46002171
:10100000818B4FF6F77319401143818370470000BD
:1010100070B5002200230024058C4EF6FF76354083
:101020000584038C8488828B48F6FF752A404FF62E
:10103000FF452A400D884FF6FF7606EA05252A432C
:101040004DF6FF752B400D8906EA05352B434D887B
:1010500006EA05352B430B4DA84202D00A4DA842A3
:1010600008D14BF6FF752C408D894FF6FF7606EAC6
:1010700085152C4384808283CD88A0F8405003845A
:1010800070BD0000002C0140003401400A460021E0
:10109000818B4FF2FF7319404FF6FF7303EA02236F
:1010A00019438183704781847047000000220288C1
:1010B0001D4B98420ED01D4B98420BD0B0F1804F83
:1010C00008D01B4B984205D01A4B984202D01A4BBD
:1010D000984204D14FF68F731A404B881A43174B2E
:1010E000984207D0164B984204D04FF6FF431A405F
:1010F000CB881A4302808B8883850B8803850A4B33
:1011000098420BD0094B984208D00E4B984205D01C
:101110000D4B984202D00D4B984201D10B7A0386B9
:101120000123838270470000002C014000340140FD
:101130000004004000080040000C00400010004087
:1011400000140040004001400044014000480140BC
:1011500010B501224FF496611B4800F02BFBFF22D3
:101160004FF49661194800F025FB00F03FFA044661
:1011700028E000BF00F03AFAA042FBD000F036FAB7
:10118000044613480068012806D10020FFF7C8FC78
:1011900010B900200E4908600020FFF7C1FC0128AB
:1011A00010D10B48006868B9012009490860012284
:1011B0001146054800F0FEFA01221146034800F0EE
:1011C000F9FA10BDD5E700000C2800081C2800081B
:1011D000F80700207047000010B5024801F04EFAF1
:1011E00010BD00006400002010B540F225512548D4
:1011F00000F0B4F8002844D0224800F06BF9C0B2E7
:1012000053281ED008DC412814D0442821D04C2873
:1012100026D0522834D12BE0572804D0582823D088
:1012200059282DD128E00120FFF7E0FA16A000F0A0
:101230005BF925E00220FFF7D9FA16A000F054F977
:101240001EE04FF0FF30FFF7D1FA15A000F04CF987
:1012500016E00320FFF7CAFA14A000F045F90FE0EA
:1012600016A000F041F90BE019A000F03DF907E0ED
:101270001CA000F039F903E01FA000F035F900BF11
:1012800000BF10BD00480040466F72776172642055
:101290000A0000005475726E204C656674200A00C6
:1012A0004261636B77617264200A00005475726E4C
:1012B000205269676874200A000000004C6566745B
:1012C0002061646420706F776572200A000000005E
:1012D0004C6566742073756220706F776572200AA2
:1012E0000000000052696768742061646420706FB8
:1012F000776572200A000000526967687420737570
:101300006220706F776572200A00000010B500221D
:10131000002340F66A14A14200D100BF0A12012442
:101320009440A3B2DC43048010BD21B1828942F411
:101330000052828104E082894DF6FF731A40828157
:10134000704702460020B1F5007F00D100BF13882E
:101350000B400BB1012000E00020704770B5024641
:10136000002400230025002040F66A16B14200D177
:1013700000BFC1F3421501F01F03012606FA03F373
:10138000012D02D19689334006E0022D02D1168A42
:10139000334001E0968A33400C12012606FA04F429
:1013A0001688344013B10CB1012000E0002070BD5C
:1013B000F0B50346002400260025002040F66A17F9
:1013C000B94200D100BF1846C1F3421401F01F0614
:1013D000012707FA06F5012C01D10C3004E0022C9C
:1013E00001D1103000E014301AB107682F430760B4
:1013F00002E00768AF430760F0BD00002DE9F04749
:1014000086B005460E460024A24600BFA14600272E
:10141000B08900B100BF2F462C8A4CF6FF70044003
:10142000F08804432C82AC894EF6F3100440B08857
:1014300031890843718908430443AC81AC8A4FF673
:10144000FF400440B0890443AC8201A8FFF7FEFAD4
:101450001F48874202D1DDF810A001E0DDF80CA0A2
:10146000A88900F4004040B10AEBCA0000EB0A1062
:1014700031684900B0FBF1F807E00AEBCA0000EB65
:101480000A1031688900B0FBF1F86420B8FBF0F075
:1014900004012009642101FB1089A88900F400409F
:1014A00040B1322000EBC900B0FBF1F000F00700C2
:1014B000044308E0322000EB09106421B0FBF1F096
:1014C00000F00F0004432C8106B0BDE8F087000057
:1014D0000038014001468888C0F308007047C1F316
:1014E000080282807047000010B504460BE014F833
:1014F000011B0748FFF7F3FF00BF40210448FFF737
:1015000020FF0028F9D020780028F0D110BD00007D
:101510000048004070B50446204600F02FF805460C
:10152000124800EB0410806850B14DB10F4800EB39
:101530000410007920B90D4901EB04118868804737
:101540000A4800EB0410C06850B14DB9074800EBE1
:101550000410007920B1054901EB0411C8688047E7
:10156000024800EB0410057170BD0000340000203B
:1015700010B501210846FFF759FA10BD70B50546B0
:10158000064800EB05100468A1882068FFF71EF9E3
:1015900008B9012070BD0020FCE7000034000020E5
:1015A000F8B5002412E00B4800EB0410482605684B
:1015B00003208DF802008DF80360A888ADF80000C4
:1015C00069462868FFF72EF800BF641C032CEADB8D
:1015D000F8BD0000340000200349086000BF024944
:1015E00009680029FBD170472C00002001480068E1
:1015F000704700002800002038B504460D4603203F
:101600008DF802008DF80350A088ADF800006946FF
:101610002068FFF707F838BD38B504460D460320AB
:101620008DF802008DF80350A088ADF800006946DF
:101630002068FEF7F7FF38BD38B504460D46032095
:101640008DF802008DF80350A088ADF800006946BF
:101650002068FEF7E7FF38BD38B504460D46032085
:101660008DF802008DF80350A088ADF8000069469F
:101670002068FEF7D7FF38BD38B504460D46032075
:101680008DF802008DF80350A088ADF8000069467F
:101690002068FEF7C7FF38BD38B504460D46032065
:1016A0008DF802008DF80350A088ADF8000069465F
:1016B0002068FEF7B7FF38BD10B50446A188206842
:1016C000FFF78DF810BD10B50446A1882068FFF71C
:1016D00088F810BD70B504460D4625B1A188206874
:1016E000FFF77FF803E0A1882068FFF778F870BD66
:1016F00010B510210348FFF78FFF10210248FFF7B4
:101700008BFF10BD9C280008A428000810B54821B4
:101710000348FFF7C1FF48210248FFF7BDFF10BD96
:10172000CC290008C429000808B500F0EBF800F047
:101730009DFDFFF7DDFFFFF733FF4FF6E0704FF43D
:1017400078434FF6FF7200210090012000F0A2FBC9
:101750004FF4E131134800F08BFE1349114800F0BB
:10176000E9FF0120034641F27072272100900F48E3
:1017700000F02EF80120034641F2707227210090FC
:101780000B4800F025F8FFF7C1FF04E00020FFF749
:10179000F5FE00B100E0F9E700BFFEF7AFFDFFF78F
:1017A00022F800007C000020D51100080C28000859
:1017B0001C28000870B504460E4615462946E06808
:1017C000FFF788FF3146204600F024F870BD000086
:1017D0002DE9F84304460D4616461F46DDF82080E5
:1017E00033462A4621460948009700F016F8102192
:1017F000E068FFF701FF4146E068FFF76BFF01215A
:101800000348FEF79BFFBDE8F88300000034014069
:10181000000C1A008268118070472DE9F04188B0F1
:1018200007460C4615461E46DDF83880384600F05F
:1018300061FD0020ADF81600ADF81A008DF81C000F
:10184000ADF81450ADF8186005A93846FFF72EFC26
:101850000020ADF80C00ADF80E006020ADF80400DB
:101860000020ADF81000ADF812000120ADF8060020
:101870000420ADF80800ADF80A80207830B10128C6
:101880000DD0022814D0032824D11AE001A938462B
:10189000FFF7AEFA01213846FFF7F6FA1AE001A980
:1018A0003846FFF7FBFA01213846FFF749FB11E004
:1018B00001A93846FFF752FB01213846FFF79EFB8E
:1018C00008E001A93846FFF7A3FB01213846FFF7DE
:1018D000DDFB00BF00BF18216068FFF78DFE01210E
:1018E0003846FFF75DFA01213846FFF765FA002117
:1018F0003846FFF7D8FB01213846FFF769FA08B0F0
:10190000BDE8F08110B5FFF733FE01210420FFF799
:101910008DF801210820FFF789F801211020FFF739
:1019200085F801212020FFF781F801214020FFF7F1
:101930007DF810BD2DE9F04186B004460F461546EE
:101940001E46DDF83080206800F04AF918216068F2
:10195000FFF782FE05F4004048B1B6F5827F01D161
:10196000A16800E0E16808461821FFF775FE05F45C
:10197000404048B1B6F5827F01D1E16800E0A1683E
:1019800008461821FFF768FE206901287ED02069EB
:101990000228FBD020690428F8D020690828F5D057
:1019A0006A4920698842F1D068492031206988421B
:1019B000ECD0674920698842E8D0654980312069C8
:1019C000884263D06349206988425FD062492069B8
:1019D00088425BD061492069884257D060492069BC
:1019E000884253D05F49206988424FD02069B0F5C2
:1019F000805F4BD02069B0F5EA1F7CD02069B0F53C
:101A0000EB1F78D02069B0F5004F74D0564920699B
:101A1000884270D0491C206988426CD0891C20699A
:101A2000884268D0091D2069884264D04E490F3130
:101A3000206988425FD02069B0F1201F5BD04FEA57
:101A4000F1312069884256D048492069884252D0F5
:101A50004749206988424ED04649206988424AD089
:101A600045492069884246D044492069884242D08D
:101A70002069B0F5011F3ED04149206988423AD023
:101A8000491C2069884236D0891C00E033E0206977
:101A9000884230D0091D206988422CD038490F3146
:101AA0002069884227D036491F312069884222D0D8
:101AB00033493F31206988421DD031497F31206947
:101AC000884218D02E49FF312069884213D02D4911
:101AD000206988420FD02C49206988420BD02B49BD
:101AE0002069884207D02A492069884203D02949C1
:101AF0002069884203D101212069FEF71FFEADF85D
:101B00000450ADF80660ADF808800220ADF80A0078
:101B10000120ADF80C004002ADF80E00ADF81070D9
:101B20000020ADF8120001A92068FFF757F8012145
:101B30002068FFF715F800212068FFF705F800215D
:101B40002068FFF769F806B0BDE8F08110001400C6
:101B500040001600000118000002180000031800E1
:101B600000081A00000C1A000100200000013000DB
:101B7000000230000004300000112000002020008E
:101B80000100008000020080000400800008008046
:101B9000001000800020008070B50446602120689D
:101BA000FEF7FDFF68B12068FFF713F8054660698E
:101BB00010B1E8B26169884760212068FEF7DCFF58
:101BC0000DE071212068FEF7EAFF40B1A06910B175
:101BD000A1692068884771212068FEF7CDFF70BD9C
:101BE00010B504460B48844204D101218014FEF74D
:101BF0001DFF0EE00848844204D101210014FEF7C5
:101C000005FF06E00548844203D10121C013FEF719
:101C1000FDFE10BD0030014000380040003C004097
:101C200070B504460D4600BF02212068FEF7AEFFE6
:101C30000028F9D029462068FEF7CEFF70BD0000CD
:101C400010B502463048007800EBC00303EB0010EB
:101C50002E4B03EBC00002EB820300EB4300405C21
:101C60002B4B1B7803EBC30404EB0313274C04EB4F
:101C7000C30302EB820403EB44035B5C98423FD155
:101C80002148007800EBC00303EB0010214B03EB6D
:101C9000001002EB820300EB830030F811001C4BB4
:101CA0001B7803EBC30404EB03131A4C04EB03137C
:101CB00002EB820403EB840333F8113098421FD106
:101CC0001148007800EBC00303EB0010124B03EB4C
:101CD000001002EB820300EB830030F811000C4B84
:101CE0001B7803EBC30404EB03130B4C04EB03134B
:101CF00002EB820403EB840333F81130984201D0E5
:101D0000012010BD0020FCE7C206002000080020D2
:101D1000C306002090090020B00C002010B5002060
:101D200006490880002404E0204600F00BF8601CFF
:101D3000C4B2034800788442F6DB10BDBC06002024
:101D4000C106002010B50146002032E020221B4BC6
:101D50001B7803EBC30404EB0313194C04EBC3031C
:101D600000EB800403EB44035A54164A1288134BC9
:101D70001B7803EBC30404EB0313134C04EB0313B2
:101D800000EB800403EB840323F811200F4A128830
:101D90000A4B1B7803EBC30404EB03130C4C04EB5A
:101DA000031300EB800403EB840323F81120421C8F
:101DB000D0B2084A12789042C8DB10BDC20600209B
:101DC00000080020B406002090090020B006002082
:101DD000B00C0020C006002010B5002423E01549F7
:101DE000085D00F027FA1348005D362805D1124936
:101DF000124A1278885C00F02BFA0EE00D48005D64
:101E0000FF2806D1611C0C460A4A505CFFF7E4FB30
:101E100003E00849085D00F01BFA601C0446054910
:101E2000085C4328EAD1601C04460249085C422849
:101E3000D5D110BD0C2900087D290008BA06002064
:101E40000120014908707047BB06002070B50546A7
:101E50000F49087800EBD0714910A0EB410131B176
:101E60008023A0220021084600F0A6F805E0A02368
:101E700080220021084600F09FF8002403E0284655
:101E800000F0CEF9641CB4F5A04FF8D370BD00008B
:101E9000BA0600202DE9F04104460D4616461F46BD
:101EA000DDF8188000202E4908802E490870012096
:101EB0002D4908702D4804700146087800EBD07158
:101EC0004910A0EB410109B1012100E00221284A9B
:101ED00011702649087800EBD0714910A0EB410140
:101EE00009B1022100E00121224A117000F0C2F87C
:101EF00000F046F8FFF770FF284600F051F8304632
:101F000000F0B2F8384600F0A9F8404600F04EF86C
:101F10002846FFF79BFF204604EBD0714910A4EB45
:101F2000410109B1142100E01021134A117020462B
:101F300004EBD0714910A4EB410109B1082100E084
:101F40000A210E4A1170FFF77BFFFFF7E7FE00F052
:101F5000ABF8FFF7E3FE00F0A7F8BDE8F081000062
:101F6000BC060020C2060020C3060020BA060020DE
:101F7000B8060020B9060020C0060020C1060020D7
:101F800010B50648FFF798FB6420FFF725FB0348D0
:101F9000FFF799FB6420FFF71FFB10BDFC2800082A
:101FA0000149088070470000B00600200149088000
:101FB00070470000B20600202DE9F05F04460D4690
:101FC00092469B4626462F4604EB0A001FFA80F8ED
:101FD00005EB0B001FFA80F91D480078304486B2EB
:101FE0001C480078384487B21948007840441FFAEA
:101FF00080F81848007848441FFA80F92A2000F039
:1020000019F9300A00F024F9F0B200F021F94FEA92
:10201000182000F01DF908F0FF0000F019F92B203E
:1020200000F008F9380A00F013F9F8B200F010F9DE
:102030004FEA192000F00CF909F0FF0000F008F950
:102040002C2000F0F7F80448FFF73DFBBDE8F09FB7
:10205000B8060020B90600200429000801490880BC
:1020600070470000B6060020014908807047000054
:10207000B406002008B500204FF482734FF44042AC
:10208000014600900548FFF755FC10210448FFF772
:10209000F3FA10210348FFF7EFFA08BD940000207F
:1020A000FC280008042900082DE9F05F002500271E
:1020B000A8465248007808B9BDE8F09F002686E09F
:1020C00000247DE031462046FFF7BAFD002875D098
:1020D000012501E0681C05B2601949490978884268
:1020E00006DA6119C8B23146FFF7AAFD0028F1D11E
:1020F0000123C3EBC5039AB23101E0000F23FFF7C0
:102100005BFF4FF0000853E03E48007800EBC00151
:1021100001EB00103C4901EBC000E11901EB81012A
:1021200000EB4100805D2038384901EB001A4FF088
:10213000080930E01AF80800A9F10101084100F08F
:10214000010080B12F48007800EBC00101EB0010C6
:102150002F4901EB0010E11901EB810100EB810037
:1021600030F816000FE02748007800EBC00101EBC3
:102170000010284901EB0010E11901EB810100EB8F
:10218000810030F816008346584600F049F8A9F15E
:10219000010000F0FF09B9F1000FCBDC781CC0B2E0
:1021A0000746A84204D1002708F1010000F0FF080B
:1021B000B8F1100FA8DB681E2044C4B2601CC4B282
:1021C0000F4800788442FFF67DAF701CC6B21248FB
:1021D00000788642FFF674AF0A48007808B90120FB
:1021E00000E00020074908700C48007808B9012079
:1021F00000E000200949087000BF5DE7BB06002031
:10220000C0060020C206002000080020B000002008
:1022100090090020B00C0020C1060020C306002059
:1022200010B50446201200F013F8E0B200F010F8E8
:1022300010BD000010B504460348FFF73DFA2146E3
:102240000248FFF7EDFC10BD0429000894000020AF
:1022500010B504460348FFF736FA21460248FFF757
:10226000DFFC10BD042900089400002038B50020D0
:102270008DF801008DF8020001208DF80300FF2089
:102280008DF800006846FEF789FB164800684FF499
:102290007A72B0FBF2F1B1F1807F00D31DE021F042
:1022A0007F40401E4FF0E022506150170F2200285F
:1022B00007DA13071D0E0C4B00F00F04241F1D55E9
:1022C00003E013071C0E094B1C5400BF00204FF005
:1022D000E02290610720106100BF002004490860DF
:1022E00038BD00001400002018ED00E000E400E01C
:1022F0002800002010B504464348844204D101213F
:10230000C014FEF793FB7EE04048844204D10121D3
:102310004014FEF78BFB76E03D48844204D1012156
:102320000804FEF783FB6EE03A48844204D10121A1
:102330004804FEF77BFB66E03748844204D1012164
:102340008804FEF773FB5EE03448844204D1012127
:10235000C804FEF76BFB56E03148844204D10121EA
:102360000805FEF763FB4EE02E48844204D10121AC
:102370004805FEF75BFB46E0B4F1804F04D1012134
:102380000846FEF743FB3EE02748844204D1012182
:102390000220FEF73BFB36E02448844204D10121B1
:1023A0000420FEF733FB2EE02148844204D10121B2
:1023B0000820FEF72BFB26E01E48844204D10121B1
:1023C0001020FEF723FB1EE01B48844204D10121AC
:1023D0002020FEF71BFB16E01848844204D101219F
:1023E0004020FEF713FB0EE01548844204D1012182
:1023F0008020FEF70BFB06E01248844203D1012146
:102400008015FEF703FB10BD002C01400034014095
:10241000004001400044014000480140004C0140A0
:1024200000500140005401400004004000080040FA
:10243000000C004000100040001400400018004054
:10244000001C00400020004001460848084440B1FC
:10245000B0F5806F07D0B0F5744F00D000BF2520D5
:1024600070472620FCE72720FAE7000000BCFFBFEA
:102470007FB504460D46206800F028F918216068F1
:10248000FFF7DAF80421A068FFF7D6F860690128A1
:102490007ED060690228FBD060690428F8D06069AA
:1024A0000828F5D0624960698842F1D0604920313E
:1024B00060698842ECD05F4960698842E8D05D4934
:1024C000803160698842E3D05B49606988425FD0AF
:1024D0005A49606988425BD059496069884257D03F
:1024E00058496069884253D05749606988424FD043
:1024F0006069B0F5805F4BD06069B0F5EA1F7CD0B1
:102500006069B0F5EB1F78D06069B0F5004F74D00A
:102510004E496069884270D0491C606988426CD01D
:10252000891C6069884268D0091D6069884264D04E
:1025300046490F31606988425FD06069B0F1201F61
:102540005BD04FEAF1316069884256D040496069FA
:10255000884252D03F49606988424ED03E49606906
:1025600088424AD03D496069884246D03C4960690A
:10257000884242D06069B0F5011F3ED03949606998
:1025800088423AD0491C6069884236D0891C00E0F4
:1025900033E06069884230D0091D606988422CD0E0
:1025A00030490F316069884227D02E491F31606958
:1025B000884222D02B493F31606988421DD0294989
:1025C0007F316069884218D02649FF3160698842AE
:1025D00013D02549606988420FD024496069884238
:1025E0000BD023496069884207D02249606988423C
:1025F00003D021496069884203D101216069FEF757
:102600009DF800950020ADF80400ADF80600ADF887
:102610000800ADF80C000C20ADF80A0069462068EF
:10262000FEF7ECFE01212068FEF77FFE7FBD000073
:1026300010001400400016000001180000021800ED
:102640000003180000081A00000C1A000100200006
:1026500000013000000230000004300000112000B2
:1026600000202000010000800002008000040080A3
:1026700000080080001000800020008070B5044633
:1026800040F225512068FEF769FE70B12068FEF720
:1026900021FF0546E06810B1E8B2E168884740F2E2
:1026A00025512068FEF732FE0EE040F227712068C7
:1026B000FEF754FE40B1206908B12069804740F21E
:1026C00027712068FEF722FE70BD000010B5044699
:1026D0001348844204D101218803FEF7A7F91EE0C4
:1026E0001048844204D101214804FEF78FF916E016
:1026F0000D48844204D101218804FEF787F90EE0D9
:102700000A48844204D10121C804FEF77FF906E09B
:102710000748844203D101210805FEF777F910BD6F
:10272000003801400044004000480040004C004098
:102730000050004038B504460D462068FFF784FE7F
:10274000C0B28DF8000001208DF801008DF8020064
:102750008DF803006846FEF721F9012240F2255169
:102760002068FEF725FE00BFE56000BF38BD000011
:1027700000080140010000000008014002000000C4
:1027800000080140040000000008014008000000AB
:1027900000080140400000000008014080000000E7
:1027A0000008014000010000000801400080000016
:1027B000000C014000040000000C01400008000073
:1027C000001001400800000000100140400000001F
:1027D00000100140800000000010014000010000D6
:1027E000001001400002000000000000A8270008BF
:1027F0003400004003000000B827000840000040FB
:1028000002000000B02700083C000040000000006B
:10281000C827000834340140C02700080100000028
:10282000D027000838340140A0270008020000002B
:10283000D82700083C340140E027000800000000D1
:1028400070270008340C0040000C0040010000001C
:1028500078270008380C0040000C004002000000FF
:10286000802700083C0C0040000C004003000000E2
:1028700088270008400C0040000C004000000000C9
:1028800090270008340400400004004001000000CC
:102890009827000838040040000400400010014060
:1028A0000200000000100140040000000010014080
:1028B0000020000000100140004000000010014016
:1028C00000800000000801400002000000080140F4
:1028D000000400000010014000040000001001404E
:1028E00000080000000C014000200000000C014026
:1028F00000400000000C014000800000000C01407E
:1029000000100000000C0140004000000011FF0A10
:1029100043B1012C2D43B2012C2D43B3012C2D01C9
:102920002C2D43B40743C0A2028443C1C543C20A4D
:102930000043C38A2A43C48AEE43C50E433643E0AC
:102940000F1A0F182F2820221F1B233700070210F1
:1029500043E10F1B0F17332C292E3030393F00076E
:102960000310432A0000007F432B0000009F43F028
:102970000143F600433A054329432C4342C0A000DB
:102980006000000000080140010000000008014054
:10299000020000000008014004000000000801409F
:1029A000080000000008014010000000000801407D
:1029B0002000000000080140400000000008014025
:1029C00080000000000801404000000000080140B5
:1029D00080000000F429000800000020000800002A
:1029E00028010008D82D000800080020900E0000E3
:1029F00084010008412D01020304041009060708A0
:102A0000090204060884A24A046918C113AC28C24A
:102A100008DAB410DABC10111D380140C414EACC35
:102A20001812481B40D4149ADC1812101A143011D2
:102A30001B40E4141AEC04EAF43401111008183CA9
:102A40003C3C181818190341E5666666243D6C6C19
:102A5000FE6C04392E580B187CC6C2C07C0686C694
:102A60007C31215809C2C60C183060C686AD500AA8
:102A70006C6C3876DCCCCCCC76D530303060192C10
:102A8000390163180C19093901931830AE663CFFFF
:102A90003C66A37B187E6D89149931110A11FED80A
:102AA00079322B0206A063C080580B7CC6C6CED6F6
:102AB000D6E6C6C67C281B38784C19016A7E2049A8
:102AC0002F5AC65419106E063C060606301F0C1C01
:102AD0003C6CCCFEB15A1E7B8EC0C0C0FC0E201BCD
:102AE0003860101AC60159101AFE4049F479802A3C
:102AF000C6046920290C1A7E60BB0C78BA99F1597A
:102B00001069EF399FA530180C0619AB59AE313951
:102B10001C292479601A0CDE895119115EDEDEDE73
:102B2000DCC0802F10386CC6C6FE91611EFC666644
:102B3000667C046366FC1C3C66C2E265C0C2663CFF
:102B40002BF86C1D5D66666CF87C580966626878C7
:102B5000686062668259109C6060F04066DEC6C69E
:102B6000663A296A396F59701A3C9D390159602BB0
:102B70001E0C0165CCCCCC781FE6666C6C78787541
:102B800062E61AF05B190179709EC6EEFEFED65021
:102B90008FC6E6F6FEDECE1029DF29019B6C38E0F9
:102BA000294259A04A7C1F7ED6DE7C0C0E2029E4E7
:102BB00059701920600860380C06C6C67CBC7E7E41
:102BC0005AB0493F19015920590E9C6C3810106EAB
:102BD000D6D6FE6C6C101E6C6C38386C9661196A17
:102BE0009B663C50580AFEC6860C183060C2C6E090
:102BF0005B3C3001592011580A80C0E070381C0E2F
:102C00000602205A0C0139201A10EF011922FF0484
:102C1000123030186008780C7CCCCCCC762EE0607A
:102C200060786C9592DC6E7CC6C0C0C0E01A1C6AED
:102C30001A6C2F693039208AFE201F386C6460F0CE
:102C4000600192F02A762F4ECC7C0CCC78602B6CF5
:102C5000766062E61318181A38FE5B1818E013063F
:102C6000063B0E06012B66661319301C666C7893C2
:102C70005930492D8930312CECFED601912ADC5F88
:102C80009B6666A0290159A079207A7CA369A05B84
:102C90000C1E20BB7662C06E7CC660380C401E10D5
:102CA0003030FC300193361C393F93CC76395F933A
:102CB0003C18197D8DD6D6FE6C10AF6C3838386C48
:102CC000C6201901657E060CF86008FECC1830603D
:102CD000C6FE1A0EEB2A70F0620E290B39055960F8
:102CE000291C29245B1870CDC2DCCAFF0101161211
:102CF00011101E124617201814192F1A1E320429FB
:102D0000142C1E2A04427F4D0963E064FF6520668F
:102D10001267101413F00D810FC5142122FF230137
:102D20002434253C26A12B101E6BAA13FF695D904D
:102D30000A910192019301945F95539611971A9805
:102D40003D995A9A1E9B10329C25A765A8659E81C5
:102D5000A6067E0C7F16802A814E8261836F847B5B
:102D60008586868E879788A489AF8AC58BD78CE89D
:102D70008D20A980AA80ACFF3316229923034A1024
:102D80000E491347084B144C1746050CD00E824DC4
:102D900013842933080F2A8C0822012A940822025E
:102DA0002A9C0822032AA40822042AAC0822052A05
:102DB000B40822062ABC0872077A10F0511ACC1CFB
:102DC0001AC4041AB03829045AB40221140F015A43
:082DD0006902296EC93FC10030
:04000005080000ED02
:00000001FF
